Component: ARM Compiler 5.06 update 7 (build 960) Tool: armlink [4d3601]

==============================================================================

Section Cross References

    stm32f3xx_hal_adc_ex.o(i.ADC_ConversionStop) refers to stm32f3xx_hal.o(i.HAL_GetTick) for HAL_GetTick
    stm32f3xx_hal_adc_ex.o(i.ADC_DMAConvCplt) refers to stm32f3xx_hal_adc.o(i.HAL_ADC_ConvCpltCallback) for HAL_ADC_ConvCpltCallback
    stm32f3xx_hal_adc_ex.o(i.ADC_DMAError) refers to stm32f3xx_hal_adc.o(i.HAL_ADC_ErrorCallback) for HAL_ADC_ErrorCallback
    stm32f3xx_hal_adc_ex.o(i.ADC_DMAHalfConvCplt) refers to stm32f3xx_hal_adc.o(i.HAL_ADC_ConvHalfCpltCallback) for HAL_ADC_ConvHalfCpltCallback
    stm32f3xx_hal_adc_ex.o(i.ADC_Disable) refers to stm32f3xx_hal.o(i.HAL_GetTick) for HAL_GetTick
    stm32f3xx_hal_adc_ex.o(i.ADC_Enable) refers to stm32f3xx_hal.o(i.HAL_GetTick) for HAL_GetTick
    stm32f3xx_hal_adc_ex.o(i.HAL_ADCEx_Calibration_Start) refers to stm32f3xx_hal_adc_ex.o(i.ADC_Disable) for ADC_Disable
    stm32f3xx_hal_adc_ex.o(i.HAL_ADCEx_Calibration_Start) refers to stm32f3xx_hal.o(i.HAL_GetTick) for HAL_GetTick
    stm32f3xx_hal_adc_ex.o(i.HAL_ADCEx_InjectedConfigChannel) refers to system_stm32f3xx.o(.data) for SystemCoreClock
    stm32f3xx_hal_adc_ex.o(i.HAL_ADCEx_InjectedPollForConversion) refers to stm32f3xx_hal.o(i.HAL_GetTick) for HAL_GetTick
    stm32f3xx_hal_adc_ex.o(i.HAL_ADCEx_InjectedStart) refers to stm32f3xx_hal_adc_ex.o(i.ADC_Enable) for ADC_Enable
    stm32f3xx_hal_adc_ex.o(i.HAL_ADCEx_InjectedStart_IT) refers to stm32f3xx_hal_adc_ex.o(i.ADC_Enable) for ADC_Enable
    stm32f3xx_hal_adc_ex.o(i.HAL_ADCEx_InjectedStop) refers to stm32f3xx_hal_adc_ex.o(i.ADC_ConversionStop) for ADC_ConversionStop
    stm32f3xx_hal_adc_ex.o(i.HAL_ADCEx_InjectedStop) refers to stm32f3xx_hal_adc_ex.o(i.ADC_Disable) for ADC_Disable
    stm32f3xx_hal_adc_ex.o(i.HAL_ADCEx_InjectedStop_IT) refers to stm32f3xx_hal_adc_ex.o(i.ADC_ConversionStop) for ADC_ConversionStop
    stm32f3xx_hal_adc_ex.o(i.HAL_ADCEx_InjectedStop_IT) refers to stm32f3xx_hal_adc_ex.o(i.ADC_Disable) for ADC_Disable
    stm32f3xx_hal_adc_ex.o(i.HAL_ADCEx_MultiModeStart_DMA) refers to rt_memclr_w.o(.text) for __aeabi_memclr4
    stm32f3xx_hal_adc_ex.o(i.HAL_ADCEx_MultiModeStart_DMA) refers to stm32f3xx_hal_adc_ex.o(i.ADC_Enable) for ADC_Enable
==============================================================================

Removing Unused input sections from the image.

    Removing stm32f3xx_hal_adc.o(.rev16_text), (4 bytes).
    Removing stm32f3xx_hal_adc.o(.revsh_text), (4 bytes).
    Removing stm32f3xx_hal_adc.o(.rrx_text), (6 bytes).
    Removing stm32f3xx_hal_adc.o(i.HAL_ADC_AnalogWDGConfig), (4 bytes).
    Removing stm32f3xx_hal_adc.o(i.HAL_ADC_ConfigChannel), (4 bytes).
    Removing stm32f3xx_hal_adc.o(i.HAL_ADC_DeInit), (4 bytes).
    Removing stm32f3xx_hal_adc.o(i.HAL_ADC_GetError), (4 bytes).
    Removing stm32f3xx_hal_adc.o(i.HAL_ADC_GetValue), (6 bytes).
    Removing stm32f3xx_hal_adc.o(i.HAL_ADC_IRQHandler), (2 bytes).
    Removing stm32f3xx_hal_adc.o(i.HAL_ADC_Init), (4 bytes).
    Removing stm32f3xx_hal_adc.o(i.HAL_ADC_LevelOutOfWindowCallback), (2 bytes).
    Removing stm32f3xx_hal_adc.o(i.HAL_ADC_MspDeInit), (2 bytes).
    Removing stm32f3xx_hal_adc.o(i.HAL_ADC_MspInit), (2 bytes).
    Removing stm32f3xx_hal_adc.o(i.HAL_ADC_PollForConversion), (4 bytes).
    Removing stm32f3xx_hal_adc.o(i.HAL_ADC_PollForEvent), (4 bytes).
    Removing stm32f3xx_hal_adc.o(i.HAL_ADC_Start), (4 bytes).
    Removing stm32f3xx_hal_adc.o(i.HAL_ADC_Start_DMA), (4 bytes).
    Removing stm32f3xx_hal_adc.o(i.HAL_ADC_Start_IT), (4 bytes).
==============================================================================

Image Symbol Table

    Local Symbols

    Symbol Name                              Value     Ov Type        Size  Object(Section)

    ../Core/Src/adc.c                        0x00000000   Number         0  adc_1.o ABSOLUTE
    ../Core/Src/can.c                        0x00000000   Number         0  can_1.o ABSOLUTE
    ../Core/Src/dma.c                        0x00000000   Number         0  dma_1.o ABSOLUTE
    ../Core/Src/gpio.c                       0x00000000   Number         0  gpio_1.o ABSOLUTE
    ../Core/Src/hrtim.c                      0x00000000   Number         0  hrtim_1.o ABSOLUTE
    ../Core/Src/main.c                       0x00000000   Number         0  main_1.o ABSOLUTE
    ../Core/Src/stm32f3xx_hal_msp.c          0x00000000   Number         0  stm32f3xx_hal_msp_1.o ABSOLUTE
    ../Core/Src/stm32f3xx_it.c               0x00000000   Number         0  stm32f3xx_it_1.o ABSOLUTE
    ../Core/Src/system_stm32f3xx.c           0x00000000   Number         0  system_stm32f3xx.o ABSOLUTE
    ../Core/Src/tim.c                        0x00000000   Number         0  tim_1.o ABSOLUTE
    ../Core/Src/usart.c                      0x00000000   Number         0  usart_1.o ABSOLUTE
    ../Drivers/STM32F3xx_HAL_Driver/Src/stm32f3xx_hal.c 0x00000000   Number         0  stm32f3xx_hal.o ABSOLUTE
    ../Drivers/STM32F3xx_HAL_Driver/Src/stm32f3xx_hal_adc.c 0x00000000   Number         0  stm32f3xx_hal_adc.o ABSOLUTE
    ../Drivers/STM32F3xx_HAL_Driver/Src/stm32f3xx_hal_adc_ex.c 0x00000000   Number         0  stm32f3xx_hal_adc_ex.o ABSOLUTE
    ../Drivers/STM32F3xx_HAL_Driver/Src/stm32f3xx_hal_can.c 0x00000000   Number         0  stm32f3xx_hal_can.o ABSOLUTE
    ../Drivers/STM32F3xx_HAL_Driver/Src/stm32f3xx_hal_cortex.c 0x00000000   Number         0  stm32f3xx_hal_cortex.o ABSOLUTE
    ../Drivers/STM32F3xx_HAL_Driver/Src/stm32f3xx_hal_dma.c 0x00000000   Number         0  stm32f3xx_hal_dma.o ABSOLUTE
    ../Drivers/STM32F3xx_HAL_Driver/Src/stm32f3xx_hal_exti.c 0x00000000   Number         0  stm32f3xx_hal_exti.o ABSOLUTE
    ../Drivers/STM32F3xx_HAL_Driver/Src/stm32f3xx_hal_flash.c 0x00000000   Number         0  stm32f3xx_hal_flash.o ABSOLUTE
    ../Drivers/STM32F3xx_HAL_Driver/Src/stm32f3xx_hal_flash_ex.c 0x00000000   Number         0  stm32f3xx_hal_flash_ex.o ABSOLUTE
    ../Drivers/STM32F3xx_HAL_Driver/Src/stm32f3xx_hal_gpio.c 0x00000000   Number         0  stm32f3xx_hal_gpio.o ABSOLUTE
    ../Drivers/STM32F3xx_HAL_Driver/Src/stm32f3xx_hal_hrtim.c 0x00000000   Number         0  stm32f3xx_hal_hrtim.o ABSOLUTE
    ../Drivers/STM32F3xx_HAL_Driver/Src/stm32f3xx_hal_i2c.c 0x00000000   Number         0  stm32f3xx_hal_i2c.o ABSOLUTE
    ../Drivers/STM32F3xx_HAL_Driver/Src/stm32f3xx_hal_i2c_ex.c 0x00000000   Number         0  stm32f3xx_hal_i2c_ex.o ABSOLUTE
    ../Drivers/STM32F3xx_HAL_Driver/Src/stm32f3xx_hal_pwr.c 0x00000000   Number         0  stm32f3xx_hal_pwr.o ABSOLUTE
    ../Drivers/STM32F3xx_HAL_Driver/Src/stm32f3xx_hal_pwr_ex.c 0x00000000   Number         0  stm32f3xx_hal_pwr_ex.o ABSOLUTE
    ../Drivers/STM32F3xx_HAL_Driver/Src/stm32f3xx_hal_rcc.c 0x00000000   Number         0  stm32f3xx_hal_rcc.o ABSOLUTE
    ../Drivers/STM32F3xx_HAL_Driver/Src/stm32f3xx_hal_rcc_ex.c 0x00000000   Number         0  stm32f3xx_hal_rcc_ex.o ABSOLUTE
    ../Drivers/STM32F3xx_HAL_Driver/Src/stm32f3xx_hal_tim.c 0x00000000   Number         0  stm32f3xx_hal_tim.o ABSOLUTE
    ../Drivers/STM32F3xx_HAL_Driver/Src/stm32f3xx_hal_tim_ex.c 0x00000000   Number         0  stm32f3xx_hal_tim_ex.o ABSOLUTE
    ../Drivers/STM32F3xx_HAL_Driver/Src/stm32f3xx_hal_uart.c 0x00000000   Number         0  stm32f3xx_hal_uart.o ABSOLUTE
    ../Drivers/STM32F3xx_HAL_Driver/Src/stm32f3xx_hal_uart_ex.c 0x00000000   Number         0  stm32f3xx_hal_uart_ex.o ABSOLUTE
    ../clib/angel/boardlib.s                 0x00000000   Number         0  boardinit2.o ABSOLUTE
    ../clib/angel/boardlib.s                 0x00000000   Number         0  boardinit3.o ABSOLUTE
    ../clib/angel/boardlib.s                 0x00000000   Number         0  boardinit1.o ABSOLUTE
    ../clib/angel/boardlib.s                 0x00000000   Number         0  boardshut.o ABSOLUTE
    ../clib/angel/handlers.s                 0x00000000   Number         0  __scatter_zi.o ABSOLUTE
    ../clib/angel/handlers.s                 0x00000000   Number         0  __scatter_copy.o ABSOLUTE
    ../clib/angel/kernel.s                   0x00000000   Number         0  __rtentry.o ABSOLUTE
    ../clib/angel/kernel.s                   0x00000000   Number         0  rtexit.o ABSOLUTE
    ../clib/angel/kernel.s                   0x00000000   Number         0  rtexit2.o ABSOLUTE
    ../clib/angel/kernel.s                   0x00000000   Number         0  __rtentry4.o ABSOLUTE
    ../clib/angel/kernel.s                   0x00000000   Number         0  __rtentry2.o ABSOLUTE
    ../clib/angel/rt.s                       0x00000000   Number         0  rt_locale.o ABSOLUTE
    ../clib/angel/rt.s                       0x00000000   Number         0  rt_locale_intlibspace.o ABSOLUTE
    ../clib/angel/rt.s                       0x00000000   Number         0  rt_ctype_table.o ABSOLUTE
    ../clib/angel/rt.s                       0x00000000   Number         0  aeabi_ldiv0_sigfpe.o ABSOLUTE
    ../clib/angel/rt.s                       0x00000000   Number         0  aeabi_ldiv0.o ABSOLUTE
    ../clib/angel/rt.s                       0x00000000   Number         0  rt_div0.o ABSOLUTE
    ../clib/angel/rt.s                       0x00000000   Number         0  rt_raise.o ABSOLUTE
    ../clib/angel/scatter.s                  0x00000000   Number         0  __scatter.o ABSOLUTE
    ../clib/angel/startup.s                  0x00000000   Number         0  __main.o ABSOLUTE
    ../clib/angel/sys.s                      0x00000000   Number         0  use_no_semi.o ABSOLUTE
    ../clib/angel/sys.s                      0x00000000   Number         0  indicate_semi.o ABSOLUTE
    ../clib/angel/sys.s                      0x00000000   Number         0  libspace.o ABSOLUTE
    ../clib/angel/sys.s                      0x00000000   Number         0  sys_stackheap_outer.o ABSOLUTE
    ../clib/angel/sysapp.c                   0x00000000   Number         0  sys_exit.o ABSOLUTE
    ../clib/angel/sysapp.c                   0x00000000   Number         0  sys_command.o ABSOLUTE
    ../clib/angel/sysapp.c                   0x00000000   Number         0  sys_wrch.o ABSOLUTE
    ../clib/armsys.c                         0x00000000   Number         0  no_argv.o ABSOLUTE
    ../clib/armsys.c                         0x00000000   Number         0  _get_argv_nomalloc.o ABSOLUTE
    ../clib/armsys.c                         0x00000000   Number         0  argv_veneer.o ABSOLUTE
    ../clib/armsys.c                         0x00000000   Number         0  argv_veneer.o ABSOLUTE
    ../clib/bigflt.c                         0x00000000   Number         0  bigflt0.o ABSOLUTE
    ../clib/btod.s                           0x00000000   Number         0  btod.o ABSOLUTE
    ../clib/heapalloc.c                      0x00000000   Number         0  hrguard.o ABSOLUTE
    ../clib/heapaux.c                        0x00000000   Number         0  heapauxi.o ABSOLUTE
    ../clib/libinit.s                        0x00000000   Number         0  libinit2.o ABSOLUTE
    ../clib/libinit.s                        0x00000000   Number         0  libshutdown.o ABSOLUTE
    ../clib/libinit.s                        0x00000000   Number         0  libinit.o ABSOLUTE
    ../clib/libinit.s                        0x00000000   Number         0  libshutdown2.o ABSOLUTE
    ../clib/locale.c                         0x00000000   Number         0  _wcrtomb.o ABSOLUTE
    ../clib/locale.s                         0x00000000   Number         0  lc_ctype_c.o ABSOLUTE
    ../clib/locale.s                         0x00000000   Number         0  lc_numeric_c.o ABSOLUTE
    ../clib/longlong.s                       0x00000000   Number         0  lludivv7m.o ABSOLUTE
    ../clib/longlong.s                       0x00000000   Number         0  llushr.o ABSOLUTE
    ../clib/longlong.s                       0x00000000   Number         0  lludiv10.o ABSOLUTE
    ../clib/memcpset.s                       0x00000000   Number         0  rt_memclr_w.o ABSOLUTE
    ../clib/memcpset.s                       0x00000000   Number         0  strcmpv7m.o ABSOLUTE
    ../clib/misc.s                           0x00000000   Number         0  printf_stubs.o ABSOLUTE
    ../clib/printf.c                         0x00000000   Number         0  __printf_wp.o ABSOLUTE
    ../clib/printf.c                         0x00000000   Number         0  __printf_flags_wp.o ABSOLUTE
    ../clib/printf.c                         0x00000000   Number         0  _printf_char_common.o ABSOLUTE
    ../clib/printf.c                         0x00000000   Number         0  __printf_ss_wp.o ABSOLUTE
    ../clib/printf.c                         0x00000000   Number         0  vsprintf.o ABSOLUTE
    ../clib/printf.c                         0x00000000   Number         0  __printf_flags_ss_wp.o ABSOLUTE
    ../clib/printf.c                         0x00000000   Number         0  _printf_hex_int.o ABSOLUTE
    ../clib/printf.c                         0x00000000   Number         0  _printf_wchar.o ABSOLUTE
    ../clib/printf.c                         0x00000000   Number         0  _printf_hex_int_ll.o ABSOLUTE
    ../clib/printf.c                         0x00000000   Number         0  _printf_fp_infnan.o ABSOLUTE
    ../clib/printf.c                         0x00000000   Number         0  _printf_truncate.o ABSOLUTE
    ../clib/printf.c                         0x00000000   Number         0  __printf.o ABSOLUTE
    ../clib/printf.c                         0x00000000   Number         0  _printf_fp_dec.o ABSOLUTE
    ../clib/printf.c                         0x00000000   Number         0  _printf_pad.o ABSOLUTE
    ../clib/printf.c                         0x00000000   Number         0  _printf_fp_hex.o ABSOLUTE
    ../clib/printf.c                         0x00000000   Number         0  __printf_nopercent.o ABSOLUTE
    ../clib/printf.c                         0x00000000   Number         0  _printf_intcommon.o ABSOLUTE
    ../clib/printf.c                         0x00000000   Number         0  _printf_char.o ABSOLUTE
    ../clib/printf.c                         0x00000000   Number         0  _printf_wctomb.o ABSOLUTE
    ../clib/printf.c                         0x00000000   Number         0  _sputc.o ABSOLUTE
    ../clib/printf.c                         0x00000000   Number         0  _printf_charcount.o ABSOLUTE
    ../clib/printf.c                         0x00000000   Number         0  _printf_dec.o ABSOLUTE
    ../clib/printf.c                         0x00000000   Number         0  _printf_str.o ABSOLUTE
    ../clib/printf.c                         0x00000000   Number         0  _printf_longlong_dec.o ABSOLUTE
    ../clib/printf.c                         0x00000000   Number         0  _printf_oct_ll.o ABSOLUTE
    ../clib/printf.c                         0x00000000   Number         0  __printf_flags_ss.o ABSOLUTE
    ../clib/printf.c                         0x00000000   Number         0  _printf_oct_int.o ABSOLUTE
    ../clib/printf.c                         0x00000000   Number         0  _printf_oct_int_ll.o ABSOLUTE
    ../clib/printf.c                         0x00000000   Number         0  _printf_hex_ll_ptr.o ABSOLUTE
    ../clib/printf.c                         0x00000000   Number         0  _printf_hex_ll.o ABSOLUTE
    ../clib/printf.c                         0x00000000   Number         0  _printf_hex_ptr.o ABSOLUTE
    ../clib/printf.c                         0x00000000   Number         0  _printf_hex_int_ptr.o ABSOLUTE
    ../clib/printf.c                         0x00000000   Number         0  _printf_hex_int_ll_ptr.o ABSOLUTE
    ../clib/printf.c                         0x00000000   Number         0  __printf_flags.o ABSOLUTE
    ../clib/printf.c                         0x00000000   Number         0  __printf_ss.o ABSOLUTE
    ../clib/printf_percent.s                 0x00000000   Number         0  _printf_percent_end.o ABSOLUTE
    ../clib/printf_percent.s                 0x00000000   Number         0  _printf_ls.o ABSOLUTE
    ../clib/printf_percent.s                 0x00000000   Number         0  _printf_lc.o ABSOLUTE
    ../clib/printf_percent.s                 0x00000000   Number         0  _printf_s.o ABSOLUTE
    ../clib/printf_percent.s                 0x00000000   Number         0  _printf_a.o ABSOLUTE
    ../clib/printf_percent.s                 0x00000000   Number         0  _printf_l.o ABSOLUTE
    ../clib/printf_percent.s                 0x00000000   Number         0  _printf_ll.o ABSOLUTE
    ../clib/printf_percent.s                 0x00000000   Number         0  _printf_n.o ABSOLUTE
    ../clib/printf_percent.s                 0x00000000   Number         0  _printf_llu.o ABSOLUTE
    ../clib/printf_percent.s                 0x00000000   Number         0  _printf_c.o ABSOLUTE
    ../clib/printf_percent.s                 0x00000000   Number         0  _printf_i.o ABSOLUTE
    ../clib/printf_percent.s                 0x00000000   Number         0  _printf_lli.o ABSOLUTE
    ../clib/printf_percent.s                 0x00000000   Number         0  _printf_percent.o ABSOLUTE
    ../clib/printf_percent.s                 0x00000000   Number         0  _printf_o.o ABSOLUTE
    ../clib/printf_percent.s                 0x00000000   Number         0  _printf_p.o ABSOLUTE
    ../clib/printf_percent.s                 0x00000000   Number         0  _printf_g.o ABSOLUTE
    ../clib/printf_percent.s                 0x00000000   Number         0  _printf_lld.o ABSOLUTE
    ../clib/printf_percent.s                 0x00000000   Number         0  _printf_e.o ABSOLUTE
    ../clib/printf_percent.s                 0x00000000   Number         0  _printf_llx.o ABSOLUTE
    ../clib/printf_percent.s                 0x00000000   Number         0  _printf_f.o ABSOLUTE
    ../clib/printf_percent.s                 0x00000000   Number         0  _printf_x.o ABSOLUTE
    ../clib/printf_percent.s                 0x00000000   Number         0  _printf_u.o ABSOLUTE
    ../clib/printf_percent.s                 0x00000000   Number         0  _printf_llo.o ABSOLUTE
    ../clib/printf_percent.s                 0x00000000   Number         0  _printf_d.o ABSOLUTE
    ../clib/signal.c                         0x00000000   Number         0  defsig_segv_inner.o ABSOLUTE
    ../clib/signal.c                         0x00000000   Number         0  __raise.o ABSOLUTE
    ../clib/signal.c                         0x00000000   Number         0  defsig_exit.o ABSOLUTE
    ../clib/signal.c                         0x00000000   Number         0  defsig_other.o ABSOLUTE
    ../clib/signal.c                         0x00000000   Number         0  defsig_cppl_inner.o ABSOLUTE
    ../clib/signal.c                         0x00000000   Number         0  defsig_pvfn_inner.o ABSOLUTE
    ../clib/signal.c                         0x00000000   Number         0  defsig_rtmem_formal.o ABSOLUTE
    ../clib/signal.c                         0x00000000   Number         0  defsig_rtmem_outer.o ABSOLUTE
    ../clib/signal.c                         0x00000000   Number         0  defsig_rtmem_inner.o ABSOLUTE
    ../clib/signal.c                         0x00000000   Number         0  defsig_rtred_inner.o ABSOLUTE
    ../clib/signal.c                         0x00000000   Number         0  defsig_abrt_inner.o ABSOLUTE
    ../clib/signal.c                         0x00000000   Number         0  defsig_fpe_inner.o ABSOLUTE
    ../clib/signal.c                         0x00000000   Number         0  defsig_fpe_outer.o ABSOLUTE
    ../clib/signal.c                         0x00000000   Number         0  defsig_fpe_formal.o ABSOLUTE
    ../clib/signal.c                         0x00000000   Number         0  defsig_general.o ABSOLUTE
    ../clib/signal.c                         0x00000000   Number         0  defsig_stak_inner.o ABSOLUTE
    ../clib/signal.s                         0x00000000   Number         0  defsig.o ABSOLUTE
    ../clib/stdlib.c                         0x00000000   Number         0  exit.o ABSOLUTE
    ../clib/stdlib.c                         0x00000000   Number         0  abs.o ABSOLUTE
    ../fplib/dcmpi.s                         0x00000000   Number         0  dcmpi.o ABSOLUTE
    ../fplib/dflt.s                          0x00000000   Number         0  dflt_clz.o ABSOLUTE
    ../fplib/dleqf.s                         0x00000000   Number         0  dleqf.o ABSOLUTE
    ../fplib/dnaninf.s                       0x00000000   Number         0  dnaninf.o ABSOLUTE
    ../fplib/dretinf.s                       0x00000000   Number         0  dretinf.o ABSOLUTE
    ../fplib/drleqf.s                        0x00000000   Number         0  drleqf.o ABSOLUTE
    ../fplib/f2d.s                           0x00000000   Number         0  f2d.o ABSOLUTE
    ../fplib/fcmp4.s                         0x00000000   Number         0  fcmp4.o ABSOLUTE
    ../fplib/fcmpi.s                         0x00000000   Number         0  fcmpi.o ABSOLUTE
    ../fplib/fnaninf.s                       0x00000000   Number         0  fnaninf.o ABSOLUTE
    ../fplib/fpinit.s                        0x00000000   Number         0  fpinit.o ABSOLUTE
    ../fplib/istatus.s                       0x00000000   Number         0  istatus.o ABSOLUTE
    ../fplib/printf1.s                       0x00000000   Number         0  printf1.o ABSOLUTE
    ../fplib/printf2.s                       0x00000000   Number         0  printf2.o ABSOLUTE
    ../fplib/printf2a.s                      0x00000000   Number         0  printf2a.o ABSOLUTE
    ../fplib/printf2b.s                      0x00000000   Number         0  printf2b.o ABSOLUTE
    ../fplib/usenofp.s                       0x00000000   Number         0  usenofp.o ABSOLUTE
    ../mathlib/fmax.c                        0x00000000   Number         0  fminf.o ABSOLUTE
    ../mathlib/fmax.c                        0x00000000   Number         0  fmaxf.o ABSOLUTE
    ../mathlib/fpclassify.c                  0x00000000   Number         0  fpclassify.o ABSOLUTE
    ..\Core\Src\adc.c                        0x00000000   Number         0  adc_1.o ABSOLUTE
    ..\Core\Src\can.c                        0x00000000   Number         0  can_1.o ABSOLUTE
    ..\Core\Src\dma.c                        0x00000000   Number         0  dma_1.o ABSOLUTE
    ..\Core\Src\gpio.c                       0x00000000   Number         0  gpio_1.o ABSOLUTE
    ..\Core\Src\hrtim.c                      0x00000000   Number         0  hrtim_1.o ABSOLUTE
    ..\Core\Src\main.c                       0x00000000   Number         0  main_1.o ABSOLUTE
    ..\Core\Src\stm32f3xx_hal_msp.c          0x00000000   Number         0  stm32f3xx_hal_msp_1.o ABSOLUTE
    ..\Core\Src\stm32f3xx_it.c               0x00000000   Number         0  stm32f3xx_it_1.o ABSOLUTE
    ..\Core\Src\system_stm32f3xx.c           0x00000000   Number         0  system_stm32f3xx.o ABSOLUTE
    ..\Core\Src\tim.c                        0x00000000   Number         0  tim_1.o ABSOLUTE
    ..\Core\Src\usart.c                      0x00000000   Number         0  usart_1.o ABSOLUTE
    ..\Drivers\STM32F3xx_HAL_Driver\Src\stm32f3xx_hal.c 0x00000000   Number         0  stm32f3xx_hal.o ABSOLUTE
    ..\Drivers\STM32F3xx_HAL_Driver\Src\stm32f3xx_hal_adc.c 0x00000000   Number         0  stm32f3xx_hal_adc.o ABSOLUTE
    ..\Drivers\STM32F3xx_HAL_Driver\Src\stm32f3xx_hal_adc_ex.c 0x00000000   Number         0  stm32f3xx_hal_adc_ex.o ABSOLUTE
    ..\Drivers\STM32F3xx_HAL_Driver\Src\stm32f3xx_hal_can.c 0x00000000   Number         0  stm32f3xx_hal_can.o ABSOLUTE
    ..\Drivers\STM32F3xx_HAL_Driver\Src\stm32f3xx_hal_cortex.c 0x00000000   Number         0  stm32f3xx_hal_cortex.o ABSOLUTE
    ..\Drivers\STM32F3xx_HAL_Driver\Src\stm32f3xx_hal_dma.c 0x00000000   Number         0  stm32f3xx_hal_dma.o ABSOLUTE
    ..\Drivers\STM32F3xx_HAL_Driver\Src\stm32f3xx_hal_exti.c 0x00000000   Number         0  stm32f3xx_hal_exti.o ABSOLUTE
    ..\Drivers\STM32F3xx_HAL_Driver\Src\stm32f3xx_hal_flash.c 0x00000000   Number         0  stm32f3xx_hal_flash.o ABSOLUTE
    ..\Drivers\STM32F3xx_HAL_Driver\Src\stm32f3xx_hal_flash_ex.c 0x00000000   Number         0  stm32f3xx_hal_flash_ex.o ABSOLUTE
    ..\Drivers\STM32F3xx_HAL_Driver\Src\stm32f3xx_hal_gpio.c 0x00000000   Number         0  stm32f3xx_hal_gpio.o ABSOLUTE
    ..\Drivers\STM32F3xx_HAL_Driver\Src\stm32f3xx_hal_hrtim.c 0x00000000   Number         0  stm32f3xx_hal_hrtim.o ABSOLUTE
    ..\Drivers\STM32F3xx_HAL_Driver\Src\stm32f3xx_hal_i2c.c 0x00000000   Number         0  stm32f3xx_hal_i2c.o ABSOLUTE
    ..\Drivers\STM32F3xx_HAL_Driver\Src\stm32f3xx_hal_i2c_ex.c 0x00000000   Number         0  stm32f3xx_hal_i2c_ex.o ABSOLUTE
    ..\Drivers\STM32F3xx_HAL_Driver\Src\stm32f3xx_hal_pwr.c 0x00000000   Number         0  stm32f3xx_hal_pwr.o ABSOLUTE
    ..\Drivers\STM32F3xx_HAL_Driver\Src\stm32f3xx_hal_pwr_ex.c 0x00000000   Number         0  stm32f3xx_hal_pwr_ex.o ABSOLUTE
    ..\Drivers\STM32F3xx_HAL_Driver\Src\stm32f3xx_hal_rcc.c 0x00000000   Number         0  stm32f3xx_hal_rcc.o ABSOLUTE
    ..\Drivers\STM32F3xx_HAL_Driver\Src\stm32f3xx_hal_rcc_ex.c 0x00000000   Number         0  stm32f3xx_hal_rcc_ex.o ABSOLUTE
    ..\Drivers\STM32F3xx_HAL_Driver\Src\stm32f3xx_hal_tim.c 0x00000000   Number         0  stm32f3xx_hal_tim.o ABSOLUTE
    ..\Drivers\STM32F3xx_HAL_Driver\Src\stm32f3xx_hal_tim_ex.c 0x00000000   Number         0  stm32f3xx_hal_tim_ex.o ABSOLUTE
    ..\Drivers\STM32F3xx_HAL_Driver\Src\stm32f3xx_hal_uart.c 0x00000000   Number         0  stm32f3xx_hal_uart.o ABSOLUTE
    ..\Drivers\STM32F3xx_HAL_Driver\Src\stm32f3xx_hal_uart_ex.c 0x00000000   Number         0  stm32f3xx_hal_uart_ex.o ABSOLUTE
    ..\User\Algorithm\adc_to_elec.c          0x00000000   Number         0  adc_to_elec.o ABSOLUTE
    ..\User\Algorithm\filter.c               0x00000000   Number         0  filter.o ABSOLUTE
    ..\User\Algorithm\pid.c                  0x00000000   Number         0  pid.o ABSOLUTE
    ..\User\Application\power_loop.c         0x00000000   Number         0  power_loop.o ABSOLUTE
    ..\User\Application\supercap.c           0x00000000   Number         0  supercap.o ABSOLUTE
    ..\User\Bsp\bsp_adc.c                    0x00000000   Number         0  bsp_adc.o ABSOLUTE
    ..\User\Bsp\bsp_can.c                    0x00000000   Number         0  bsp_can.o ABSOLUTE
    ..\User\Bsp\bsp_gpio.c                   0x00000000   Number         0  bsp_gpio.o ABSOLUTE
    ..\User\Bsp\bsp_hrtim.c                  0x00000000   Number         0  bsp_hrtim.o ABSOLUTE
    ..\User\Bsp\bsp_tim.c                    0x00000000   Number         0  bsp_tim.o ABSOLUTE
    ..\User\Bsp\bsp_uart.c                   0x00000000   Number         0  bsp_uart.o ABSOLUTE
    ..\\User\\Application\\power_loop.c      0x00000000   Number         0  power_loop.o ABSOLUTE
    ..\\User\\Application\\supercap.c        0x00000000   Number         0  supercap.o ABSOLUTE
    ..\\User\\Bsp\\bsp_adc.c                 0x00000000   Number         0  bsp_adc.o ABSOLUTE
    ..\\User\\Bsp\\bsp_can.c                 0x00000000   Number         0  bsp_can.o ABSOLUTE
    ..\\User\\Bsp\\bsp_gpio.c                0x00000000   Number         0  bsp_gpio.o ABSOLUTE
    ..\\User\\Bsp\\bsp_hrtim.c               0x00000000   Number         0  bsp_hrtim.o ABSOLUTE
    ..\\User\\Bsp\\bsp_tim.c                 0x00000000   Number         0  bsp_tim.o ABSOLUTE
    ..\\User\\Bsp\\bsp_uart.c                0x00000000   Number         0  bsp_uart.o ABSOLUTE
    dc.s                                     0x00000000   Number         0  dc.o ABSOLUTE
    startup_stm32f334x8.s                    0x00000000   Number         0  startup_stm32f334x8.o ABSOLUTE
    RESET                                    0x08000000   Section      392  startup_stm32f334x8.o(RESET)
    !!!main                                  0x08000188   Section        8  __main.o(!!!main)
    !!!scatter                               0x08000190   Section       52  __scatter.o(!!!scatter)
    !!handler_copy                           0x080001c4   Section       26  __scatter_copy.o(!!handler_copy)
    !!handler_zi                             0x080001e0   Section       28  __scatter_zi.o(!!handler_zi)
    .ARM.Collect$$_printf_percent$$00000000  0x080001fc   Section        0  _printf_percent.o(.ARM.Collect$$_printf_percent$$00000000)
    .ARM.Collect$$_printf_percent$$00000001  0x080001fc   Section        6  _printf_n.o(.ARM.Collect$$_printf_percent$$00000001)
    .ARM.Collect$$_printf_percent$$00000002  0x08000202   Section        6  _printf_p.o(.ARM.Collect$$_printf_percent$$00000002)
    .ARM.Collect$$_printf_percent$$00000003  0x08000208   Section        6  _printf_f.o(.ARM.Collect$$_printf_percent$$00000003)
    .ARM.Collect$$_printf_percent$$00000004  0x0800020e   Section        6  _printf_e.o(.ARM.Collect$$_printf_percent$$00000004)
    .ARM.Collect$$_printf_percent$$00000005  0x08000214   Section        6  _printf_g.o(.ARM.Collect$$_printf_percent$$00000005)
    .ARM.Collect$$_printf_percent$$00000006  0x0800021a   Section        6  _printf_a.o(.ARM.Collect$$_printf_percent$$00000006)
    .ARM.Collect$$_printf_percent$$00000007  0x08000220   Section       10  _printf_ll.o(.ARM.Collect$$_printf_percent$$00000007)
    .ARM.Collect$$_printf_percent$$00000008  0x0800022a   Section        6  _printf_i.o(.ARM.Collect$$_printf_percent$$00000008)
    .ARM.Collect$$_printf_percent$$00000009  0x08000230   Section        6  _printf_d.o(.ARM.Collect$$_printf_percent$$00000009)
    .ARM.Collect$$_printf_percent$$0000000A  0x08000236   Section        6  _printf_u.o(.ARM.Collect$$_printf_percent$$0000000A)
    .ARM.Collect$$_printf_percent$$0000000B  0x0800023c   Section        6  _printf_o.o(.ARM.Collect$$_printf_percent$$0000000B)
    .ARM.Collect$$_printf_percent$$0000000C  0x08000242   Section        6  _printf_x.o(.ARM.Collect$$_printf_percent$$0000000C)
    .ARM.Collect$$_printf_percent$$0000000D  0x08000248   Section        6  _printf_lli.o(.ARM.Collect$$_printf_percent$$0000000D)
    .ARM.Collect$$_printf_percent$$0000000E  0x0800024e   Section        6  _printf_lld.o(.ARM.Collect$$_printf_percent$$0000000E)
    .ARM.Collect$$_printf_percent$$0000000F  0x08000254   Section        6  _printf_llu.o(.ARM.Collect$$_printf_percent$$0000000F)
    .ARM.Collect$$_printf_percent$$00000010  0x0800025a   Section        6  _printf_llo.o(.ARM.Collect$$_printf_percent$$00000010)
    .ARM.Collect$$_printf_percent$$00000011  0x08000260   Section        6  _printf_llx.o(.ARM.Collect$$_printf_percent$$00000011)
    .ARM.Collect$$_printf_percent$$00000012  0x08000266   Section       10  _printf_l.o(.ARM.Collect$$_printf_percent$$00000012)
    .ARM.Collect$$_printf_percent$$00000013  0x08000270   Section        6  _printf_c.o(.ARM.Collect$$_printf_percent$$00000013)
    .ARM.Collect$$_printf_percent$$00000014  0x08000276   Section        6  _printf_s.o(.ARM.Collect$$_printf_percent$$00000014)
    .ARM.Collect$$_printf_percent$$00000015  0x0800027c   Section        6  _printf_lc.o(.ARM.Collect$$_printf_percent$$00000015)
    .ARM.Collect$$_printf_percent$$00000016  0x08000282   Section        6  _printf_ls.o(.ARM.Collect$$_printf_percent$$00000016)
    .ARM.Collect$$_printf_percent$$00000017  0x08000288   Section        4  _printf_percent_end.o(.ARM.Collect$$_printf_percent$$00000017)
    .ARM.Collect$$libinit$$00000000          0x0800028c   Section        2  libinit.o(.ARM.Collect$$libinit$$00000000)
    .ARM.Collect$$libinit$$00000001          0x0800028e   Section        4  libinit2.o(.ARM.Collect$$libinit$$00000001)
    .ARM.Collect$$libinit$$00000004          0x08000292   Section        0  libinit2.o(.ARM.Collect$$libinit$$00000004)
    .ARM.Collect$$libinit$$0000000A          0x08000292   Section        0  libinit2.o(.ARM.Collect$$libinit$$0000000A)
    .ARM.Collect$$libinit$$0000000C          0x08000292   Section        0  libinit2.o(.ARM.Collect$$libinit$$0000000C)
    .ARM.Collect$$libinit$$0000000E          0x08000292   Section        0  libinit2.o(.ARM.Collect$$libinit$$0000000E)
    .ARM.Collect$$libinit$$0000000F          0x08000292   Section        6  libinit2.o(.ARM.Collect$$libinit$$0000000F)
    .ARM.Collect$$libinit$$00000011          0x08000298   Section        0  libinit2.o(.ARM.Collect$$libinit$$00000011)
    .ARM.Collect$$libinit$$00000012          0x08000298   Section       12  libinit2.o(.ARM.Collect$$libinit$$00000012)
    .ARM.Collect$$libinit$$00000013          0x080002a4   Section        0  libinit2.o(.ARM.Collect$$libinit$$00000013)
    .ARM.Collect$$libinit$$00000015          0x080002a4   Section        0  libinit2.o(.ARM.Collect$$libinit$$00000015)
    .ARM.Collect$$libinit$$00000016          0x080002a4   Section       10  libinit2.o(.ARM.Collect$$libinit$$00000016)
    .ARM.Collect$$libinit$$00000017          0x080002ae   Section        0  libinit2.o(.ARM.Collect$$libinit$$00000017)
    .ARM.Collect$$libinit$$00000019          0x080002ae   Section        0  libinit2.o(.ARM.Collect$$libinit$$00000019)
    .ARM.Collect$$libinit$$0000001B          0x080002ae   Section        0  libinit2.o(.ARM.Collect$$libinit$$0000001B)
    .ARM.Collect$$libinit$$0000001D          0x080002ae   Section        0  libinit2.o(.ARM.Collect$$libinit$$0000001D)
    .ARM.Collect$$libinit$$0000001F          0x080002ae   Section        0  libinit2.o(.ARM.Collect$$libinit$$0000001F)
    .ARM.Collect$$libinit$$00000021          0x080002ae   Section        0  libinit2.o(.ARM.Collect$$libinit$$00000021)
    .ARM.Collect$$libinit$$00000023          0x080002ae   Section        0  libinit2.o(.ARM.Collect$$libinit$$00000023)
    .ARM.Collect$$libinit$$00000025          0x080002ae   Section        0  libinit2.o(.ARM.Collect$$libinit$$00000025)
    .ARM.Collect$$libinit$$0000002C          0x080002ae   Section        0  libinit2.o(.ARM.Collect$$libinit$$0000002C)
    .ARM.Collect$$libinit$$0000002E          0x080002ae   Section        0  libinit2.o(.ARM.Collect$$libinit$$0000002E)
    .ARM.Collect$$libinit$$00000030          0x080002ae   Section        0  libinit2.o(.ARM.Collect$$libinit$$00000030)
    .ARM.Collect$$libinit$$00000032          0x080002ae   Section        0  libinit2.o(.ARM.Collect$$libinit$$00000032)
    .ARM.Collect$$libinit$$00000033          0x080002ae   Section        2  libinit2.o(.ARM.Collect$$libinit$$00000033)
    .ARM.Collect$$libshutdown$$00000000      0x080002b0   Section        2  libshutdown.o(.ARM.Collect$$libshutdown$$00000000)
    .ARM.Collect$$libshutdown$$00000002      0x080002b2   Section        0  libshutdown2.o(.ARM.Collect$$libshutdown$$00000002)
    .ARM.Collect$$libshutdown$$00000004      0x080002b2   Section        0  libshutdown2.o(.ARM.Collect$$libshutdown$$00000004)
    .ARM.Collect$$libshutdown$$00000006      0x080002b2   Section        0  libshutdown2.o(.ARM.Collect$$libshutdown$$00000006)
    .ARM.Collect$$libshutdown$$00000009      0x080002b2   Section        0  libshutdown2.o(.ARM.Collect$$libshutdown$$00000009)
    .ARM.Collect$$libshutdown$$0000000C      0x080002b2   Section        0  libshutdown2.o(.ARM.Collect$$libshutdown$$0000000C)
    .ARM.Collect$$libshutdown$$0000000E      0x080002b2   Section        0  libshutdown2.o(.ARM.Collect$$libshutdown$$0000000E)
    .ARM.Collect$$libshutdown$$00000011      0x080002b2   Section        0  libshutdown2.o(.ARM.Collect$$libshutdown$$00000011)
    .ARM.Collect$$libshutdown$$00000012      0x080002b2   Section        2  libshutdown2.o(.ARM.Collect$$libshutdown$$00000012)
    .ARM.Collect$$rtentry$$00000000          0x080002b4   Section        0  __rtentry.o(.ARM.Collect$$rtentry$$00000000)
    .ARM.Collect$$rtentry$$00000002          0x080002b4   Section        0  __rtentry2.o(.ARM.Collect$$rtentry$$00000002)
    .ARM.Collect$$rtentry$$00000004          0x080002b4   Section        6  __rtentry4.o(.ARM.Collect$$rtentry$$00000004)
    .ARM.Collect$$rtentry$$00000009          0x080002ba   Section        0  __rtentry2.o(.ARM.Collect$$rtentry$$00000009)
    .ARM.Collect$$rtentry$$0000000A          0x080002ba   Section        4  __rtentry2.o(.ARM.Collect$$rtentry$$0000000A)
    .ARM.Collect$$rtentry$$0000000C          0x080002be   Section        0  __rtentry2.o(.ARM.Collect$$rtentry$$0000000C)
    .ARM.Collect$$rtentry$$0000000D          0x080002be   Section        8  __rtentry2.o(.ARM.Collect$$rtentry$$0000000D)
    .ARM.Collect$$rtexit$$00000000           0x080002c6   Section        2  rtexit.o(.ARM.Collect$$rtexit$$00000000)
    .ARM.Collect$$rtexit$$00000002           0x080002c8   Section        0  rtexit2.o(.ARM.Collect$$rtexit$$00000002)
    .ARM.Collect$$rtexit$$00000003           0x080002c8   Section        4  rtexit2.o(.ARM.Collect$$rtexit$$00000003)
    .ARM.Collect$$rtexit$$00000004           0x080002cc   Section        6  rtexit2.o(.ARM.Collect$$rtexit$$00000004)
    .text                                    0x080002d4   Section       64  startup_stm32f334x8.o(.text)
    $v0                                      0x080002d4   Number         0  startup_stm32f334x8.o(.text)
    .text                                    0x08000314   Section      238  lludivv7m.o(.text)
    .text                                    0x08000404   Section        0  vsprintf.o(.text)
    .text                                    0x08000428   Section       78  rt_memclr_w.o(.text)
    .text                                    0x08000476   Section        0  heapauxi.o(.text)
    .text                                    0x0800047c   Section        0  _printf_pad.o(.text)
    .text                                    0x080004ca   Section        0  _printf_truncate.o(.text)
    .text                                    0x080004ee   Section        0  _printf_str.o(.text)
    .text                                    0x08000540   Section        0  _printf_dec.o(.text)
    .text                                    0x080005b8   Section        0  _printf_charcount.o(.text)
    .text                                    0x080005e0   Section        0  _printf_char_common.o(.text)
    _printf_input_char                       0x080005e1   Thumb Code    10  _printf_char_common.o(.text)
    .text                                    0x08000610   Section        0  _sputc.o(.text)
    .text                                    0x0800061c   Section        0  _printf_wctomb.o(.text)
    .text                                    0x080006d8   Section        0  _printf_longlong_dec.o(.text)
    .text                                    0x08000754   Section        0  _printf_oct_int_ll.o(.text)
    _printf_longlong_oct_internal            0x08000755   Thumb Code     0  _printf_oct_int_ll.o(.text)
    .text                                    0x080007c4   Section        0  _printf_hex_int_ll_ptr.o(.text)
    _printf_hex_common                       0x080007c5   Thumb Code     0  _printf_hex_int_ll_ptr.o(.text)
    .text                                    0x08000858   Section        0  __printf_flags_ss_wp.o(.text)
    .text                                    0x080009e0   Section      138  lludiv10.o(.text)
    .text                                    0x08000a6a   Section        0  _printf_intcommon.o(.text)
    .text                                    0x08000b1c   Section        0  _printf_fp_dec.o(.text)
    _fp_digits                               0x08000b1f   Thumb Code   432  _printf_fp_dec.o(.text)
    .text                                    0x08000f3c   Section        0  _printf_fp_hex.o(.text)
    .text                                    0x08001238   Section        0  _printf_char.o(.text)
    .text                                    0x08001264   Section        0  _printf_wchar.o(.text)
    .text                                    0x08001290   Section        0  _wcrtomb.o(.text)
    .text                                    0x080012d0   Section       74  sys_stackheap_outer.o(.text)
    .text                                    0x0800131c   Section       16  rt_ctype_table.o(.text)
    .text                                    0x0800132c   Section        8  rt_locale_intlibspace.o(.text)
    .text                                    0x08001334   Section        0  _printf_fp_infnan.o(.text)
    .text                                    0x080013b4   Section        0  bigflt0.o(.text)
    .text                                    0x08001498   Section        0  exit.o(.text)
    .text                                    0x080014ac   Section        8  libspace.o(.text)
    .text                                    0x080014b4   Section      128  strcmpv7m.o(.text)
    .text                                    0x08001534   Section        0  sys_exit.o(.text)
    .text                                    0x08001540   Section        2  use_no_semi.o(.text)
    .text                                    0x08001542   Section        0  indicate_semi.o(.text)
    CL$$btod_d2e                             0x08001542   Section       62  btod.o(CL$$btod_d2e)
    CL$$btod_d2e_denorm_low                  0x08001580   Section       70  btod.o(CL$$btod_d2e_denorm_low)
    CL$$btod_d2e_norm_op1                    0x080015c6   Section       96  btod.o(CL$$btod_d2e_norm_op1)
    CL$$btod_div_common                      0x08001626   Section      824  btod.o(CL$$btod_div_common)
    CL$$btod_e2e                             0x0800195e   Section      220  btod.o(CL$$btod_e2e)
    CL$$btod_ediv                            0x08001a3a   Section       42  btod.o(CL$$btod_ediv)
    CL$$btod_emul                            0x08001a64   Section       42  btod.o(CL$$btod_emul)
    CL$$btod_mult_common                     0x08001a8e   Section      580  btod.o(CL$$btod_mult_common)
    i.ADC_DMAConvCplt                        0x08001cd2   Section        0  stm32f3xx_hal_adc_ex.o(i.ADC_DMAConvCplt)
    ADC_DMAConvCplt                          0x08001cd3   Thumb Code    68  stm32f3xx_hal_adc_ex.o(i.ADC_DMAConvCplt)
    i.ADC_DMAError                           0x08001d16   Section        0  stm32f3xx_hal_adc_ex.o(i.ADC_DMAError)
    ADC_DMAError                             0x08001d17   Thumb Code    22  stm32f3xx_hal_adc_ex.o(i.ADC_DMAError)
    i.ADC_DMAHalfConvCplt                    0x08001d2c   Section        0  stm32f3xx_hal_adc_ex.o(i.ADC_DMAHalfConvCplt)
    ADC_DMAHalfConvCplt                      0x08001d2d   Thumb Code     6  stm32f3xx_hal_adc_ex.o(i.ADC_DMAHalfConvCplt)
    i.ADC_Disable                            0x08001d34   Section        0  stm32f3xx_hal_adc_ex.o(i.ADC_Disable)
    ADC_Disable                              0x08001d35   Thumb Code   106  stm32f3xx_hal_adc_ex.o(i.ADC_Disable)
    i.ADC_Enable                             0x08001da0   Section        0  stm32f3xx_hal_adc_ex.o(i.ADC_Enable)
    ADC_Enable                               0x08001da1   Thumb Code   102  stm32f3xx_hal_adc_ex.o(i.ADC_Enable)
    i.ADC_Linear_calibration_init            0x08001e0c   Section        0  adc_to_elec.o(i.ADC_Linear_calibration_init)
    i.ADC_Value_To_Elec                      0x08001e3a   Section        0  adc_to_elec.o(i.ADC_Value_To_Elec)
    i.BSP_ADC_Init                           0x08001e6c   Section        0  bsp_adc.o(i.BSP_ADC_Init)
    i.BSP_ADC_Start_DMA                      0x08001e98   Section        0  bsp_adc.o(i.BSP_ADC_Start_DMA)
    i.BSP_ADC_Start_Injected                 0x08001e9c   Section        0  bsp_adc.o(i.BSP_ADC_Start_Injected)
    i.BSP_CAN_Init                           0x08001ea0   Section        0  bsp_can.o(i.BSP_CAN_Init)
    i.BSP_GPIO_Init                          0x08001edc   Section        0  bsp_gpio.o(i.BSP_GPIO_Init)
    i.BSP_HRTIM_Disable_PWM                  0x08001ee0   Section        0  bsp_hrtim.o(i.BSP_HRTIM_Disable_PWM)
    i.BSP_HRTIM_Enable_PWM                   0x08001eec   Section        0  bsp_hrtim.o(i.BSP_HRTIM_Enable_PWM)
    i.BSP_HRTIM_Init                         0x08001ef8   Section        0  bsp_hrtim.o(i.BSP_HRTIM_Init)
    i.BSP_HRTIM_Update_PWM                   0x08001f1c   Section        0  bsp_hrtim.o(i.BSP_HRTIM_Update_PWM)
    i.BSP_TIM_Init                           0x08001f38   Section        0  bsp_tim.o(i.BSP_TIM_Init)
    i.BSP_TIM_Start_Loop_Timer               0x08001f7c   Section        0  bsp_tim.o(i.BSP_TIM_Start_Loop_Timer)
    i.BSP_TIM_Stop_Loop_Timer                0x08001f88   Section        0  bsp_tim.o(i.BSP_TIM_Stop_Loop_Timer)
    i.BSP_UART_Init                          0x08001f94   Section        0  bsp_uart.o(i.BSP_UART_Init)
    i.BusFault_Handler                       0x08001f98   Section        0  stm32f3xx_it_1.o(i.BusFault_Handler)
    i.CAN_RX0_IRQHandler                     0x08001f9c   Section        0  stm32f3xx_it_1.o(i.CAN_RX0_IRQHandler)
    i.CAN_Send                               0x08001fa8   Section        0  supercap.o(i.CAN_Send)
    CAN_Send                                 0x08001fa9   Thumb Code   226  supercap.o(i.CAN_Send)
    i.Calc_CAP_Remain_And_Current            0x080020a4   Section        0  supercap.o(i.Calc_CAP_Remain_And_Current)
    Calc_CAP_Remain_And_Current              0x080020a5   Thumb Code   146  supercap.o(i.Calc_CAP_Remain_And_Current)
    i.DMA1_Channel1_IRQHandler               0x0800214c   Section        0  stm32f3xx_it_1.o(i.DMA1_Channel1_IRQHandler)
    i.DMA1_Channel2_IRQHandler               0x08002158   Section        0  stm32f3xx_it_1.o(i.DMA1_Channel2_IRQHandler)
    i.DMA1_Channel7_IRQHandler               0x08002164   Section        0  stm32f3xx_it_1.o(i.DMA1_Channel7_IRQHandler)
    i.DMA_CalcBaseAndBitshift                0x08002170   Section        0  stm32f3xx_hal_dma.o(i.DMA_CalcBaseAndBitshift)
    DMA_CalcBaseAndBitshift                  0x08002171   Thumb Code    22  stm32f3xx_hal_dma.o(i.DMA_CalcBaseAndBitshift)
    i.DMA_SetConfig                          0x08002190   Section        0  stm32f3xx_hal_dma.o(i.DMA_SetConfig)
    DMA_SetConfig                            0x08002191   Thumb Code    42  stm32f3xx_hal_dma.o(i.DMA_SetConfig)
    i.DebugMon_Handler                       0x080021ba   Section        0  stm32f3xx_it_1.o(i.DebugMon_Handler)
    i.Error_Handler                          0x080021bc   Section        0  main_1.o(i.Error_Handler)
    i.HAL_ADCEx_Calibration_Start            0x080021c0   Section        0  stm32f3xx_hal_adc_ex.o(i.HAL_ADCEx_Calibration_Start)
    i.HAL_ADCEx_InjectedStart_IT             0x0800225e   Section        0  stm32f3xx_hal_adc_ex.o(i.HAL_ADCEx_InjectedStart_IT)
    i.HAL_ADCEx_MultiModeConfigChannel       0x08002340   Section        0  stm32f3xx_hal_adc_ex.o(i.HAL_ADCEx_MultiModeConfigChannel)
    i.HAL_ADC_ConfigChannel                  0x08002420   Section        0  stm32f3xx_hal_adc_ex.o(i.HAL_ADC_ConfigChannel)
    i.HAL_ADC_ConvCpltCallback               0x08002770   Section        0  stm32f3xx_hal_adc.o(i.HAL_ADC_ConvCpltCallback)
    i.HAL_ADC_ConvHalfCpltCallback           0x08002772   Section        0  stm32f3xx_hal_adc.o(i.HAL_ADC_ConvHalfCpltCallback)
    i.HAL_ADC_ErrorCallback                  0x08002774   Section        0  stm32f3xx_hal_adc.o(i.HAL_ADC_ErrorCallback)
    i.HAL_ADC_GetState                       0x08002776   Section        0  stm32f3xx_hal_adc.o(i.HAL_ADC_GetState)
    i.HAL_ADC_Init                           0x0800277c   Section        0  stm32f3xx_hal_adc_ex.o(i.HAL_ADC_Init)
    i.HAL_ADC_MspInit                        0x08002960   Section        0  adc_1.o(i.HAL_ADC_MspInit)
    i.HAL_ADC_Start_DMA                      0x08002a98   Section        0  stm32f3xx_hal_adc_ex.o(i.HAL_ADC_Start_DMA)
    i.HAL_CAN_ActivateNotification           0x08002ba0   Section        0  stm32f3xx_hal_can.o(i.HAL_CAN_ActivateNotification)
    i.HAL_CAN_AddTxMessage                   0x08002bc4   Section        0  stm32f3xx_hal_can.o(i.HAL_CAN_AddTxMessage)
    i.HAL_CAN_ConfigFilter                   0x08002c94   Section        0  stm32f3xx_hal_can.o(i.HAL_CAN_ConfigFilter)
    i.HAL_CAN_ErrorCallback                  0x08002d82   Section        0  stm32f3xx_hal_can.o(i.HAL_CAN_ErrorCallback)
    i.HAL_CAN_GetRxMessage                   0x08002d84   Section        0  stm32f3xx_hal_can.o(i.HAL_CAN_GetRxMessage)
    i.HAL_CAN_IRQHandler                     0x08002e78   Section        0  stm32f3xx_hal_can.o(i.HAL_CAN_IRQHandler)
    i.HAL_CAN_Init                           0x08003074   Section        0  stm32f3xx_hal_can.o(i.HAL_CAN_Init)
    i.HAL_CAN_MspInit                        0x08003190   Section        0  can_1.o(i.HAL_CAN_MspInit)
    i.HAL_CAN_RxFifo0FullCallback            0x08003204   Section        0  stm32f3xx_hal_can.o(i.HAL_CAN_RxFifo0FullCallback)
    i.HAL_CAN_RxFifo0MsgPendingCallback      0x08003208   Section        0  supercap.o(i.HAL_CAN_RxFifo0MsgPendingCallback)
    i.HAL_CAN_RxFifo1FullCallback            0x0800327c   Section        0  stm32f3xx_hal_can.o(i.HAL_CAN_RxFifo1FullCallback)
    i.HAL_CAN_RxFifo1MsgPendingCallback      0x0800327e   Section        0  stm32f3xx_hal_can.o(i.HAL_CAN_RxFifo1MsgPendingCallback)
    i.HAL_CAN_SleepCallback                  0x08003280   Section        0  stm32f3xx_hal_can.o(i.HAL_CAN_SleepCallback)
    i.HAL_CAN_Start                          0x08003284   Section        0  stm32f3xx_hal_can.o(i.HAL_CAN_Start)
    i.HAL_CAN_TxMailbox0AbortCallback        0x080032dc   Section        0  stm32f3xx_hal_can.o(i.HAL_CAN_TxMailbox0AbortCallback)
    i.HAL_CAN_TxMailbox0CompleteCallback     0x080032de   Section        0  stm32f3xx_hal_can.o(i.HAL_CAN_TxMailbox0CompleteCallback)
    i.HAL_CAN_TxMailbox1AbortCallback        0x080032e0   Section        0  stm32f3xx_hal_can.o(i.HAL_CAN_TxMailbox1AbortCallback)
    i.HAL_CAN_TxMailbox1CompleteCallback     0x080032e2   Section        0  stm32f3xx_hal_can.o(i.HAL_CAN_TxMailbox1CompleteCallback)
    i.HAL_CAN_TxMailbox2AbortCallback        0x080032e4   Section        0  stm32f3xx_hal_can.o(i.HAL_CAN_TxMailbox2AbortCallback)
    i.HAL_CAN_TxMailbox2CompleteCallback     0x080032e6   Section        0  stm32f3xx_hal_can.o(i.HAL_CAN_TxMailbox2CompleteCallback)
    i.HAL_CAN_WakeUpFromRxMsgCallback        0x080032e8   Section        0  stm32f3xx_hal_can.o(i.HAL_CAN_WakeUpFromRxMsgCallback)
    i.HAL_DMA_Abort                          0x080032ea   Section        0  stm32f3xx_hal_dma.o(i.HAL_DMA_Abort)
    i.HAL_DMA_Abort_IT                       0x08003330   Section        0  stm32f3xx_hal_dma.o(i.HAL_DMA_Abort_IT)
    i.HAL_DMA_IRQHandler                     0x0800337a   Section        0  stm32f3xx_hal_dma.o(i.HAL_DMA_IRQHandler)
    i.HAL_DMA_Init                           0x08003422   Section        0  stm32f3xx_hal_dma.o(i.HAL_DMA_Init)
    i.HAL_DMA_Start_IT                       0x08003470   Section        0  stm32f3xx_hal_dma.o(i.HAL_DMA_Start_IT)
    i.HAL_Delay                              0x080034e0   Section        0  stm32f3xx_hal.o(i.HAL_Delay)
    i.HAL_GPIO_Init                          0x08003504   Section        0  stm32f3xx_hal_gpio.o(i.HAL_GPIO_Init)
    i.HAL_GPIO_WritePin                      0x08003724   Section        0  stm32f3xx_hal_gpio.o(i.HAL_GPIO_WritePin)
    i.HAL_GetTick                            0x08003730   Section        0  stm32f3xx_hal.o(i.HAL_GetTick)
    i.HAL_HRTIM_ADCTriggerConfig             0x0800373c   Section        0  stm32f3xx_hal_hrtim.o(i.HAL_HRTIM_ADCTriggerConfig)
    i.HAL_HRTIM_BurstModePeriodCallback      0x080037fa   Section        0  stm32f3xx_hal_hrtim.o(i.HAL_HRTIM_BurstModePeriodCallback)
    i.HAL_HRTIM_Capture1EventCallback        0x080037fc   Section        0  stm32f3xx_hal_hrtim.o(i.HAL_HRTIM_Capture1EventCallback)
    i.HAL_HRTIM_Capture2EventCallback        0x080037fe   Section        0  stm32f3xx_hal_hrtim.o(i.HAL_HRTIM_Capture2EventCallback)
    i.HAL_HRTIM_Compare1EventCallback        0x08003800   Section        0  stm32f3xx_hal_hrtim.o(i.HAL_HRTIM_Compare1EventCallback)
    i.HAL_HRTIM_Compare2EventCallback        0x08003802   Section        0  stm32f3xx_hal_hrtim.o(i.HAL_HRTIM_Compare2EventCallback)
    i.HAL_HRTIM_Compare3EventCallback        0x08003804   Section        0  stm32f3xx_hal_hrtim.o(i.HAL_HRTIM_Compare3EventCallback)
    i.HAL_HRTIM_Compare4EventCallback        0x08003806   Section        0  stm32f3xx_hal_hrtim.o(i.HAL_HRTIM_Compare4EventCallback)
    i.HAL_HRTIM_CounterResetCallback         0x08003808   Section        0  stm32f3xx_hal_hrtim.o(i.HAL_HRTIM_CounterResetCallback)
    i.HAL_HRTIM_DLLCalibrationReadyCallback  0x0800380a   Section        0  stm32f3xx_hal_hrtim.o(i.HAL_HRTIM_DLLCalibrationReadyCallback)
    i.HAL_HRTIM_DLLCalibrationStart          0x0800380c   Section        0  stm32f3xx_hal_hrtim.o(i.HAL_HRTIM_DLLCalibrationStart)
    i.HAL_HRTIM_DeadTimeConfig               0x08003870   Section        0  stm32f3xx_hal_hrtim.o(i.HAL_HRTIM_DeadTimeConfig)
    i.HAL_HRTIM_DelayedProtectionCallback    0x080038fc   Section        0  stm32f3xx_hal_hrtim.o(i.HAL_HRTIM_DelayedProtectionCallback)
    i.HAL_HRTIM_Fault1Callback               0x080038fe   Section        0  stm32f3xx_hal_hrtim.o(i.HAL_HRTIM_Fault1Callback)
    i.HAL_HRTIM_Fault2Callback               0x08003900   Section        0  stm32f3xx_hal_hrtim.o(i.HAL_HRTIM_Fault2Callback)
    i.HAL_HRTIM_Fault3Callback               0x08003902   Section        0  stm32f3xx_hal_hrtim.o(i.HAL_HRTIM_Fault3Callback)
    i.HAL_HRTIM_Fault4Callback               0x08003904   Section        0  stm32f3xx_hal_hrtim.o(i.HAL_HRTIM_Fault4Callback)
    i.HAL_HRTIM_Fault5Callback               0x08003906   Section        0  stm32f3xx_hal_hrtim.o(i.HAL_HRTIM_Fault5Callback)
    i.HAL_HRTIM_IRQHandler                   0x08003908   Section        0  stm32f3xx_hal_hrtim.o(i.HAL_HRTIM_IRQHandler)
    i.HAL_HRTIM_Init                         0x0800391c   Section        0  stm32f3xx_hal_hrtim.o(i.HAL_HRTIM_Init)
    i.HAL_HRTIM_MspInit                      0x080039d8   Section        0  hrtim_1.o(i.HAL_HRTIM_MspInit)
    i.HAL_HRTIM_MspPostInit                  0x08003a14   Section        0  hrtim_1.o(i.HAL_HRTIM_MspPostInit)
    i.HAL_HRTIM_Output1ResetCallback         0x08003a68   Section        0  stm32f3xx_hal_hrtim.o(i.HAL_HRTIM_Output1ResetCallback)
    i.HAL_HRTIM_Output1SetCallback           0x08003a6a   Section        0  stm32f3xx_hal_hrtim.o(i.HAL_HRTIM_Output1SetCallback)
    i.HAL_HRTIM_Output2ResetCallback         0x08003a6c   Section        0  stm32f3xx_hal_hrtim.o(i.HAL_HRTIM_Output2ResetCallback)
    i.HAL_HRTIM_Output2SetCallback           0x08003a6e   Section        0  stm32f3xx_hal_hrtim.o(i.HAL_HRTIM_Output2SetCallback)
    i.HAL_HRTIM_PollForDLLCalibration        0x08003a70   Section        0  stm32f3xx_hal_hrtim.o(i.HAL_HRTIM_PollForDLLCalibration)
    i.HAL_HRTIM_RegistersUpdateCallback      0x08003ab2   Section        0  stm32f3xx_hal_hrtim.o(i.HAL_HRTIM_RegistersUpdateCallback)
    i.HAL_HRTIM_RepetitionEventCallback      0x08003ab4   Section        0  power_loop.o(i.HAL_HRTIM_RepetitionEventCallback)
    i.HAL_HRTIM_SynchronizationEventCallback 0x08003ab6   Section        0  stm32f3xx_hal_hrtim.o(i.HAL_HRTIM_SynchronizationEventCallback)
    i.HAL_HRTIM_SystemFaultCallback          0x08003ab8   Section        0  stm32f3xx_hal_hrtim.o(i.HAL_HRTIM_SystemFaultCallback)
    i.HAL_HRTIM_TimeBaseConfig               0x08003aba   Section        0  stm32f3xx_hal_hrtim.o(i.HAL_HRTIM_TimeBaseConfig)
    i.HAL_HRTIM_WaveformCompareConfig        0x08003b34   Section        0  stm32f3xx_hal_hrtim.o(i.HAL_HRTIM_WaveformCompareConfig)
    i.HAL_HRTIM_WaveformCountStart           0x08003c68   Section        0  stm32f3xx_hal_hrtim.o(i.HAL_HRTIM_WaveformCountStart)
    i.HAL_HRTIM_WaveformCountStart_IT        0x08003c94   Section        0  stm32f3xx_hal_hrtim.o(i.HAL_HRTIM_WaveformCountStart_IT)
    i.HAL_HRTIM_WaveformOutputConfig         0x08003d18   Section        0  stm32f3xx_hal_hrtim.o(i.HAL_HRTIM_WaveformOutputConfig)
    i.HAL_HRTIM_WaveformOutputStart          0x08003d4e   Section        0  stm32f3xx_hal_hrtim.o(i.HAL_HRTIM_WaveformOutputStart)
    i.HAL_HRTIM_WaveformOutputStop           0x08003d7e   Section        0  stm32f3xx_hal_hrtim.o(i.HAL_HRTIM_WaveformOutputStop)
    i.HAL_HRTIM_WaveformTimerConfig          0x08003dae   Section        0  stm32f3xx_hal_hrtim.o(i.HAL_HRTIM_WaveformTimerConfig)
    i.HAL_I2CEx_EnableFastModePlus           0x08003e68   Section        0  stm32f3xx_hal_i2c_ex.o(i.HAL_I2CEx_EnableFastModePlus)
    i.HAL_IncTick                            0x08003e90   Section        0  stm32f3xx_hal.o(i.HAL_IncTick)
    i.HAL_Init                               0x08003ea0   Section        0  stm32f3xx_hal.o(i.HAL_Init)
    i.HAL_InitTick                           0x08003ec4   Section        0  stm32f3xx_hal.o(i.HAL_InitTick)
    i.HAL_MspInit                            0x08003f04   Section        0  stm32f3xx_hal_msp_1.o(i.HAL_MspInit)
    i.HAL_NVIC_EnableIRQ                     0x08003f30   Section        0  stm32f3xx_hal_cortex.o(i.HAL_NVIC_EnableIRQ)
    i.HAL_NVIC_SetPriority                   0x08003f4c   Section        0  stm32f3xx_hal_cortex.o(i.HAL_NVIC_SetPriority)
    i.HAL_NVIC_SetPriorityGrouping           0x08003f8c   Section        0  stm32f3xx_hal_cortex.o(i.HAL_NVIC_SetPriorityGrouping)
    i.HAL_RCCEx_PeriphCLKConfig              0x08003fb0   Section        0  stm32f3xx_hal_rcc_ex.o(i.HAL_RCCEx_PeriphCLKConfig)
    i.HAL_RCC_ClockConfig                    0x08004138   Section        0  stm32f3xx_hal_rcc.o(i.HAL_RCC_ClockConfig)
    i.HAL_RCC_GetPCLK1Freq                   0x08004280   Section        0  stm32f3xx_hal_rcc.o(i.HAL_RCC_GetPCLK1Freq)
    i.HAL_RCC_GetPCLK2Freq                   0x080042b0   Section        0  stm32f3xx_hal_rcc.o(i.HAL_RCC_GetPCLK2Freq)
    i.HAL_RCC_GetSysClockFreq                0x080042e0   Section        0  stm32f3xx_hal_rcc.o(i.HAL_RCC_GetSysClockFreq)
    i.HAL_RCC_OscConfig                      0x0800434c   Section        0  stm32f3xx_hal_rcc.o(i.HAL_RCC_OscConfig)
    i.HAL_SYSTICK_Config                     0x08004914   Section        0  stm32f3xx_hal_cortex.o(i.HAL_SYSTICK_Config)
    i.HAL_TIMEx_Break2Callback               0x0800493c   Section        0  stm32f3xx_hal_tim_ex.o(i.HAL_TIMEx_Break2Callback)
    i.HAL_TIMEx_BreakCallback                0x0800493e   Section        0  stm32f3xx_hal_tim_ex.o(i.HAL_TIMEx_BreakCallback)
    i.HAL_TIMEx_CommutCallback               0x08004940   Section        0  stm32f3xx_hal_tim_ex.o(i.HAL_TIMEx_CommutCallback)
    i.HAL_TIMEx_MasterConfigSynchronization  0x08004944   Section        0  stm32f3xx_hal_tim_ex.o(i.HAL_TIMEx_MasterConfigSynchronization)
    i.HAL_TIM_Base_Init                      0x080049b8   Section        0  stm32f3xx_hal_tim.o(i.HAL_TIM_Base_Init)
    i.HAL_TIM_Base_MspInit                   0x08004a1c   Section        0  tim_1.o(i.HAL_TIM_Base_MspInit)
    i.HAL_TIM_Base_Start                     0x08004a6c   Section        0  stm32f3xx_hal_tim.o(i.HAL_TIM_Base_Start)
    i.HAL_TIM_Base_Start_IT                  0x08004ac4   Section        0  stm32f3xx_hal_tim.o(i.HAL_TIM_Base_Start_IT)
    i.HAL_TIM_Base_Stop_IT                   0x08004b28   Section        0  stm32f3xx_hal_tim.o(i.HAL_TIM_Base_Stop_IT)
    i.HAL_TIM_ConfigClockSource              0x08004b58   Section        0  stm32f3xx_hal_tim.o(i.HAL_TIM_ConfigClockSource)
    i.HAL_TIM_IC_CaptureCallback             0x08004c38   Section        0  stm32f3xx_hal_tim.o(i.HAL_TIM_IC_CaptureCallback)
    i.HAL_TIM_IRQHandler                     0x08004c3a   Section        0  stm32f3xx_hal_tim.o(i.HAL_TIM_IRQHandler)
    i.HAL_TIM_MspPostInit                    0x08004dc0   Section        0  tim_1.o(i.HAL_TIM_MspPostInit)
    i.HAL_TIM_OC_DelayElapsedCallback        0x08004e08   Section        0  stm32f3xx_hal_tim.o(i.HAL_TIM_OC_DelayElapsedCallback)
    i.HAL_TIM_PWM_ConfigChannel              0x08004e0a   Section        0  stm32f3xx_hal_tim.o(i.HAL_TIM_PWM_ConfigChannel)
    i.HAL_TIM_PWM_Init                       0x08004f2e   Section        0  stm32f3xx_hal_tim.o(i.HAL_TIM_PWM_Init)
    i.HAL_TIM_PWM_MspInit                    0x08004f90   Section        0  stm32f3xx_hal_tim.o(i.HAL_TIM_PWM_MspInit)
    i.HAL_TIM_PWM_PulseFinishedCallback      0x08004f92   Section        0  stm32f3xx_hal_tim.o(i.HAL_TIM_PWM_PulseFinishedCallback)
    i.HAL_TIM_PWM_Start                      0x08004f94   Section        0  stm32f3xx_hal_tim.o(i.HAL_TIM_PWM_Start)
    i.HAL_TIM_PeriodElapsedCallback          0x08005078   Section        0  power_loop.o(i.HAL_TIM_PeriodElapsedCallback)
    i.HAL_TIM_TriggerCallback                0x08005088   Section        0  stm32f3xx_hal_tim.o(i.HAL_TIM_TriggerCallback)
    i.HAL_UARTEx_RxEventCallback             0x0800508a   Section        0  stm32f3xx_hal_uart.o(i.HAL_UARTEx_RxEventCallback)
    i.HAL_UARTEx_WakeupCallback              0x0800508c   Section        0  stm32f3xx_hal_uart_ex.o(i.HAL_UARTEx_WakeupCallback)
    i.HAL_UART_ErrorCallback                 0x0800508e   Section        0  stm32f3xx_hal_uart.o(i.HAL_UART_ErrorCallback)
    i.HAL_UART_IRQHandler                    0x08005090   Section        0  stm32f3xx_hal_uart.o(i.HAL_UART_IRQHandler)
    i.HAL_UART_Init                          0x08005348   Section        0  stm32f3xx_hal_uart.o(i.HAL_UART_Init)
    i.HAL_UART_MspInit                       0x080053b0   Section        0  usart_1.o(i.HAL_UART_MspInit)
    i.HAL_UART_Transmit_DMA                  0x08005458   Section        0  stm32f3xx_hal_uart.o(i.HAL_UART_Transmit_DMA)
    i.HAL_UART_TxCpltCallback                0x080054e4   Section        0  stm32f3xx_hal_uart.o(i.HAL_UART_TxCpltCallback)
    i.HAL_UART_TxHalfCpltCallback            0x080054e6   Section        0  stm32f3xx_hal_uart.o(i.HAL_UART_TxHalfCpltCallback)
    i.HRTIM1_Master_IRQHandler               0x080054e8   Section        0  stm32f3xx_it_1.o(i.HRTIM1_Master_IRQHandler)
    i.HRTIM_ForceRegistersUpdate             0x080054f4   Section        0  stm32f3xx_hal_hrtim.o(i.HRTIM_ForceRegistersUpdate)
    HRTIM_ForceRegistersUpdate               0x080054f5   Thumb Code    90  stm32f3xx_hal_hrtim.o(i.HRTIM_ForceRegistersUpdate)
    i.HRTIM_HRTIM_ISR                        0x0800554e   Section        0  stm32f3xx_hal_hrtim.o(i.HRTIM_HRTIM_ISR)
    HRTIM_HRTIM_ISR                          0x0800554f   Thumb Code   146  stm32f3xx_hal_hrtim.o(i.HRTIM_HRTIM_ISR)
    i.HRTIM_Master_ISR                       0x080055e0   Section        0  stm32f3xx_hal_hrtim.o(i.HRTIM_Master_ISR)
    HRTIM_Master_ISR                         0x080055e1   Thumb Code   240  stm32f3xx_hal_hrtim.o(i.HRTIM_Master_ISR)
    i.HRTIM_OutputConfig                     0x080056d0   Section        0  stm32f3xx_hal_hrtim.o(i.HRTIM_OutputConfig)
    HRTIM_OutputConfig                       0x080056d1   Thumb Code   206  stm32f3xx_hal_hrtim.o(i.HRTIM_OutputConfig)
    i.HRTIM_Timer_ISR                        0x0800579e   Section        0  stm32f3xx_hal_hrtim.o(i.HRTIM_Timer_ISR)
    HRTIM_Timer_ISR                          0x0800579f   Thumb Code   358  stm32f3xx_hal_hrtim.o(i.HRTIM_Timer_ISR)
    i.HRTIM_TimingUnitWaveform_Config        0x08005904   Section        0  stm32f3xx_hal_hrtim.o(i.HRTIM_TimingUnitWaveform_Config)
    HRTIM_TimingUnitWaveform_Config          0x08005905   Thumb Code   322  stm32f3xx_hal_hrtim.o(i.HRTIM_TimingUnitWaveform_Config)
    i.HardFault_Handler                      0x08005a46   Section        0  stm32f3xx_it_1.o(i.HardFault_Handler)
    i.MX_ADC1_Init                           0x08005a48   Section        0  adc_1.o(i.MX_ADC1_Init)
    i.MX_ADC2_Init                           0x08005aec   Section        0  adc_1.o(i.MX_ADC2_Init)
    i.MX_CAN_Init                            0x08005b90   Section        0  can_1.o(i.MX_CAN_Init)
    i.MX_DMA_Init                            0x08005bd4   Section        0  dma_1.o(i.MX_DMA_Init)
    i.MX_GPIO_Init                           0x08005c20   Section        0  gpio_1.o(i.MX_GPIO_Init)
    i.MX_HRTIM1_Init                         0x08005c9c   Section        0  hrtim_1.o(i.MX_HRTIM1_Init)
    i.MX_TIM2_Init                           0x08005ed0   Section        0  tim_1.o(i.MX_TIM2_Init)
    i.MX_TIM6_Init                           0x08005fa4   Section        0  tim_1.o(i.MX_TIM6_Init)
    i.MX_USART2_UART_Init                    0x08005fec   Section        0  usart_1.o(i.MX_USART2_UART_Init)
    i.MemManage_Handler                      0x08006028   Section        0  stm32f3xx_it_1.o(i.MemManage_Handler)
    i.NMI_Handler                            0x0800602a   Section        0  stm32f3xx_it_1.o(i.NMI_Handler)
    i.PID_calc                               0x0800602c   Section        0  pid.o(i.PID_calc)
    i.PID_init                               0x08006154   Section        0  pid.o(i.PID_init)
    i.PendSV_Handler                         0x080061a4   Section        0  stm32f3xx_it_1.o(i.PendSV_Handler)
    i.PowerON_Diagnose                       0x080061a8   Section        0  supercap.o(i.PowerON_Diagnose)
    PowerON_Diagnose                         0x080061a9   Thumb Code   236  supercap.o(i.PowerON_Diagnose)
    i.Running_Diagnose                       0x080062a8   Section        0  supercap.o(i.Running_Diagnose)
    Running_Diagnose                         0x080062a9   Thumb Code   170  supercap.o(i.Running_Diagnose)
    i.SVC_Handler                            0x08006378   Section        0  stm32f3xx_it_1.o(i.SVC_Handler)
    i.Set_Board_Config                       0x0800637c   Section        0  supercap.o(i.Set_Board_Config)
    Set_Board_Config                         0x0800637d   Thumb Code   380  supercap.o(i.Set_Board_Config)
    i.Show_Status                            0x08006544   Section        0  supercap.o(i.Show_Status)
    Show_Status                              0x08006545   Thumb Code   590  supercap.o(i.Show_Status)
    i.SysTick_Handler                        0x08006798   Section        0  stm32f3xx_it_1.o(i.SysTick_Handler)
    i.SystemClock_Config                     0x0800679c   Section        0  main_1.o(i.SystemClock_Config)
    i.SystemInit                             0x08006820   Section        0  system_stm32f3xx.o(i.SystemInit)
    i.TIM6_DAC1_IRQHandler                   0x08006830   Section        0  stm32f3xx_it_1.o(i.TIM6_DAC1_IRQHandler)
    i.TIM_Base_SetConfig                     0x0800683c   Section        0  stm32f3xx_hal_tim.o(i.TIM_Base_SetConfig)
    i.TIM_CCxChannelCmd                      0x080068c4   Section        0  stm32f3xx_hal_tim.o(i.TIM_CCxChannelCmd)
    i.TIM_ETR_SetConfig                      0x080068de   Section        0  stm32f3xx_hal_tim.o(i.TIM_ETR_SetConfig)
    i.TIM_ITRx_SetConfig                     0x080068f2   Section        0  stm32f3xx_hal_tim.o(i.TIM_ITRx_SetConfig)
    TIM_ITRx_SetConfig                       0x080068f3   Thumb Code    16  stm32f3xx_hal_tim.o(i.TIM_ITRx_SetConfig)
    i.TIM_OC1_SetConfig                      0x08006904   Section        0  stm32f3xx_hal_tim.o(i.TIM_OC1_SetConfig)
    TIM_OC1_SetConfig                        0x08006905   Thumb Code   116  stm32f3xx_hal_tim.o(i.TIM_OC1_SetConfig)
    i.TIM_OC2_SetConfig                      0x0800698c   Section        0  stm32f3xx_hal_tim.o(i.TIM_OC2_SetConfig)
    i.TIM_OC3_SetConfig                      0x08006a0c   Section        0  stm32f3xx_hal_tim.o(i.TIM_OC3_SetConfig)
    TIM_OC3_SetConfig                        0x08006a0d   Thumb Code   106  stm32f3xx_hal_tim.o(i.TIM_OC3_SetConfig)
    i.TIM_OC4_SetConfig                      0x08006a8c   Section        0  stm32f3xx_hal_tim.o(i.TIM_OC4_SetConfig)
    TIM_OC4_SetConfig                        0x08006a8d   Thumb Code    86  stm32f3xx_hal_tim.o(i.TIM_OC4_SetConfig)
    i.TIM_OC5_SetConfig                      0x08006af8   Section        0  stm32f3xx_hal_tim.o(i.TIM_OC5_SetConfig)
    TIM_OC5_SetConfig                        0x08006af9   Thumb Code    80  stm32f3xx_hal_tim.o(i.TIM_OC5_SetConfig)
    i.TIM_OC6_SetConfig                      0x08006b5c   Section        0  stm32f3xx_hal_tim.o(i.TIM_OC6_SetConfig)
    TIM_OC6_SetConfig                        0x08006b5d   Thumb Code    82  stm32f3xx_hal_tim.o(i.TIM_OC6_SetConfig)
    i.TIM_TI1_ConfigInputStage               0x08006bc4   Section        0  stm32f3xx_hal_tim.o(i.TIM_TI1_ConfigInputStage)
    TIM_TI1_ConfigInputStage                 0x08006bc5   Thumb Code    34  stm32f3xx_hal_tim.o(i.TIM_TI1_ConfigInputStage)
    i.TIM_TI2_ConfigInputStage               0x08006be6   Section        0  stm32f3xx_hal_tim.o(i.TIM_TI2_ConfigInputStage)
    TIM_TI2_ConfigInputStage                 0x08006be7   Thumb Code    36  stm32f3xx_hal_tim.o(i.TIM_TI2_ConfigInputStage)
    i.UART_AdvFeatureConfig                  0x08006c0a   Section        0  stm32f3xx_hal_uart.o(i.UART_AdvFeatureConfig)
    i.UART_CheckIdleState                    0x08006cd2   Section        0  stm32f3xx_hal_uart.o(i.UART_CheckIdleState)
    i.UART_DMAAbortOnError                   0x08006d7a   Section        0  stm32f3xx_hal_uart.o(i.UART_DMAAbortOnError)
    UART_DMAAbortOnError                     0x08006d7b   Thumb Code    20  stm32f3xx_hal_uart.o(i.UART_DMAAbortOnError)
    i.UART_DMAError                          0x08006d8e   Section        0  stm32f3xx_hal_uart.o(i.UART_DMAError)
    UART_DMAError                            0x08006d8f   Thumb Code    78  stm32f3xx_hal_uart.o(i.UART_DMAError)
    i.UART_DMATransmitCplt                   0x08006ddc   Section        0  stm32f3xx_hal_uart.o(i.UART_DMATransmitCplt)
    UART_DMATransmitCplt                     0x08006ddd   Thumb Code    64  stm32f3xx_hal_uart.o(i.UART_DMATransmitCplt)
    i.UART_DMATxHalfCplt                     0x08006e1c   Section        0  stm32f3xx_hal_uart.o(i.UART_DMATxHalfCplt)
    UART_DMATxHalfCplt                       0x08006e1d   Thumb Code    10  stm32f3xx_hal_uart.o(i.UART_DMATxHalfCplt)
    i.UART_EndRxTransfer                     0x08006e26   Section        0  stm32f3xx_hal_uart.o(i.UART_EndRxTransfer)
    UART_EndRxTransfer                       0x08006e27   Thumb Code    76  stm32f3xx_hal_uart.o(i.UART_EndRxTransfer)
    i.UART_EndTxTransfer                     0x08006e72   Section        0  stm32f3xx_hal_uart.o(i.UART_EndTxTransfer)
    UART_EndTxTransfer                       0x08006e73   Thumb Code    24  stm32f3xx_hal_uart.o(i.UART_EndTxTransfer)
    i.UART_SetConfig                         0x08006e8c   Section        0  stm32f3xx_hal_uart.o(i.UART_SetConfig)
    i.UART_WaitOnFlagUntilTimeout            0x08006fcc   Section        0  stm32f3xx_hal_uart.o(i.UART_WaitOnFlagUntilTimeout)
    i.USART2_IRQHandler                      0x08007058   Section        0  stm32f3xx_it_1.o(i.USART2_IRQHandler)
    i.Update_LED_PWM                         0x08007064   Section        0  bsp_tim.o(i.Update_LED_PWM)
    i.UsageFault_Handler                     0x0800709c   Section        0  stm32f3xx_it_1.o(i.UsageFault_Handler)
    i.Window_Filter_Calc                     0x080070a0   Section        0  filter.o(i.Window_Filter_Calc)
    i.Window_Filter_Init                     0x080070de   Section        0  filter.o(i.Window_Filter_Init)
    i.__ARM_fpclassify                       0x080070f8   Section        0  fpclassify.o(i.__ARM_fpclassify)
    i.__NVIC_SetPriority                     0x08007128   Section        0  stm32f3xx_hal_cortex.o(i.__NVIC_SetPriority)
    __NVIC_SetPriority                       0x08007129   Thumb Code    32  stm32f3xx_hal_cortex.o(i.__NVIC_SetPriority)
    i.__hardfp_fmaxf                         0x08007148   Section        0  fmaxf.o(i.__hardfp_fmaxf)
    i.__hardfp_fminf                         0x08007190   Section        0  fminf.o(i.__hardfp_fminf)
    i._is_digit                              0x080071d8   Section        0  __printf_wp.o(i._is_digit)
    i.buckboost_pwm_update                   0x080071e8   Section        0  power_loop.o(i.buckboost_pwm_update)
    buckboost_pwm_update                     0x080071e9   Thumb Code   194  power_loop.o(i.buckboost_pwm_update)
    i.control_calc                           0x080072c4   Section        0  power_loop.o(i.control_calc)
    control_calc                             0x080072c5   Thumb Code   404  power_loop.o(i.control_calc)
    i.main                                   0x08007464   Section        0  supercap.o(i.main)
    i.uart_dma_printf                        0x08007600   Section        0  bsp_uart.o(i.uart_dma_printf)
    locale$$code                             0x08007638   Section       44  lc_numeric_c.o(locale$$code)
    locale$$code                             0x08007664   Section       44  lc_ctype_c.o(locale$$code)
    x$fpl$dretinf                            0x08007690   Section       12  dretinf.o(x$fpl$dretinf)
    $v0                                      0x08007690   Number         0  dretinf.o(x$fpl$dretinf)
    x$fpl$f2d                                0x0800769c   Section       86  f2d.o(x$fpl$f2d)
    $v0                                      0x0800769c   Number         0  f2d.o(x$fpl$f2d)
    x$fpl$fcmp4                              0x080076f4   Section       82  fcmp4.o(x$fpl$fcmp4)
    $v0                                      0x080076f4   Number         0  fcmp4.o(x$fpl$fcmp4)
    x$fpl$fcmpinf                            0x08007746   Section       24  fcmpi.o(x$fpl$fcmpinf)
    $v0                                      0x08007746   Number         0  fcmpi.o(x$fpl$fcmpinf)
    x$fpl$fnaninf                            0x0800775e   Section      140  fnaninf.o(x$fpl$fnaninf)
    $v0                                      0x0800775e   Number         0  fnaninf.o(x$fpl$fnaninf)
    x$fpl$fpinit                             0x080077ea   Section       10  fpinit.o(x$fpl$fpinit)
    $v0                                      0x080077ea   Number         0  fpinit.o(x$fpl$fpinit)
    x$fpl$printf1                            0x080077f4   Section        4  printf1.o(x$fpl$printf1)
    $v0                                      0x080077f4   Number         0  printf1.o(x$fpl$printf1)
    x$fpl$printf2                            0x080077f8   Section        4  printf2.o(x$fpl$printf2)
    $v0                                      0x080077f8   Number         0  printf2.o(x$fpl$printf2)
    .constdata                               0x080077fc   Section       32  stm32f3xx_hal_rcc.o(.constdata)
    x$fpl$usenofp                            0x080077fc   Section        0  usenofp.o(x$fpl$usenofp)
    aPLLMULFactorTable                       0x080077fc   Data          16  stm32f3xx_hal_rcc.o(.constdata)
    aPredivFactorTable                       0x0800780c   Data          16  stm32f3xx_hal_rcc.o(.constdata)
    .constdata                               0x0800781c   Section       16  system_stm32f3xx.o(.constdata)
    .constdata                               0x0800782c   Section        8  system_stm32f3xx.o(.constdata)
    .constdata                               0x08007834   Section      400  supercap.o(.constdata)
    .constdata                               0x080079c4   Section        8  _printf_wctomb.o(.constdata)
    initial_mbstate                          0x080079c4   Data           8  _printf_wctomb.o(.constdata)
    .constdata                               0x080079cc   Section       40  _printf_hex_int_ll_ptr.o(.constdata)
    uc_hextab                                0x080079cc   Data          20  _printf_hex_int_ll_ptr.o(.constdata)
    lc_hextab                                0x080079e0   Data          20  _printf_hex_int_ll_ptr.o(.constdata)
    .constdata                               0x080079f4   Section       17  __printf_flags_ss_wp.o(.constdata)
    maptable                                 0x080079f4   Data          17  __printf_flags_ss_wp.o(.constdata)
    .constdata                               0x08007a05   Section       38  _printf_fp_hex.o(.constdata)
    lc_hextab                                0x08007a05   Data          19  _printf_fp_hex.o(.constdata)
    uc_hextab                                0x08007a18   Data          19  _printf_fp_hex.o(.constdata)
    .constdata                               0x08007a2c   Section      148  bigflt0.o(.constdata)
    tenpwrs_x                                0x08007a2c   Data          60  bigflt0.o(.constdata)
    tenpwrs_i                                0x08007a68   Data          64  bigflt0.o(.constdata)
    locale$$data                             0x08007ae0   Section       28  lc_numeric_c.o(locale$$data)
    __lcnum_c_name                           0x08007ae4   Data           2  lc_numeric_c.o(locale$$data)
    __lcnum_c_start                          0x08007aec   Data           0  lc_numeric_c.o(locale$$data)
    __lcnum_c_point                          0x08007af8   Data           0  lc_numeric_c.o(locale$$data)
    __lcnum_c_thousands                      0x08007afa   Data           0  lc_numeric_c.o(locale$$data)
    __lcnum_c_grouping                       0x08007afb   Data           0  lc_numeric_c.o(locale$$data)
    locale$$data                             0x08007afc   Section      272  lc_ctype_c.o(locale$$data)
    __lcnum_c_end                            0x08007afc   Data           0  lc_numeric_c.o(locale$$data)
    __lcctype_c_name                         0x08007b00   Data           2  lc_ctype_c.o(locale$$data)
    __lcctype_c_start                        0x08007b08   Data           0  lc_ctype_c.o(locale$$data)
    __lcctype_c_end                          0x08007c0c   Data           0  lc_ctype_c.o(locale$$data)
    .data                                    0x20000000   Section       12  stm32f3xx_hal.o(.data)
    .data                                    0x2000000c   Section       24  stm32f3xx_hal_hrtim.o(.data)
    TimerIdxToTimerId                        0x2000000c   Data          24  stm32f3xx_hal_hrtim.o(.data)
    .data                                    0x20000024   Section        4  system_stm32f3xx.o(.data)
    .data                                    0x20000028   Section        3  power_loop.o(.data)
    .data                                    0x2000002c   Section       24  supercap.o(.data)
    disable_cnt                              0x2000002c   Data           2  supercap.o(.data)
    status_code_copy                         0x20000034   Data           4  supercap.o(.data)
    state                                    0x20000038   Data           4  supercap.o(.data)
    next_time                                0x2000003c   Data           4  supercap.o(.data)
    .data                                    0x20000044   Section        8  bsp_uart.o(.data)
    len                                      0x20000044   Data           2  bsp_uart.o(.data)
    ap                                       0x20000048   Data           4  bsp_uart.o(.data)
    .data                                    0x2000004c   Section        4  adc_1.o(.data)
    HAL_RCC_ADC12_CLK_ENABLED                0x2000004c   Data           4  adc_1.o(.data)
    .bss                                     0x20000050   Section      804  power_loop.o(.bss)
    .bss                                     0x20000374   Section      128  bsp_uart.o(.bss)
    tx_buf                                   0x20000374   Data         128  bsp_uart.o(.bss)
    .bss                                     0x200003f4   Section      296  adc_1.o(.bss)
    .bss                                     0x2000051c   Section       40  can_1.o(.bss)
    .bss                                     0x20000544   Section      220  hrtim_1.o(.bss)
    .bss                                     0x20000620   Section      152  tim_1.o(.bss)
    .bss                                     0x200006b8   Section      204  usart_1.o(.bss)
    .bss                                     0x20000784   Section       96  libspace.o(.bss)
    HEAP                                     0x200007e8   Section     1024  startup_stm32f334x8.o(HEAP)
    Heap_Mem                                 0x200007e8   Data        1024  startup_stm32f334x8.o(HEAP)
    STACK                                    0x20000be8   Section     1024  startup_stm32f334x8.o(STACK)
    Stack_Mem                                0x20000be8   Data        1024  startup_stm32f334x8.o(STACK)
    __initial_sp                             0x20000fe8   Data           0  startup_stm32f334x8.o(STACK)

    Global Symbols

    Symbol Name                              Value     Ov Type        Size  Object(Section)

    BuildAttributes$$THM_ISAv4$E$P$D$K$B$S$7EM$VFPi3$EXTD16$VFPS$VFMA$PE$A:L22UL41UL21$X:L11$S22US41US21$IEEE1$IW$USESV6$~STKCKD$USESV7$~SHL$OTIME$ROPI$IEEEJ$EBA8$UX$STANDARDLIB$REQ8$PRES8$EABIv2 0x00000000   Number         0  anon$$obj.o ABSOLUTE
    __ARM_use_no_argv                        0x00000000   Number         0  supercap.o ABSOLUTE
    _printf_flags                            0x00000000   Number         0  printf_stubs.o ABSOLUTE
    _printf_return_value                     0x00000000   Number         0  printf_stubs.o ABSOLUTE
    _printf_sizespec                         0x00000000   Number         0  printf_stubs.o ABSOLUTE
    _printf_widthprec                        0x00000000   Number         0  printf_stubs.o ABSOLUTE
    __ARM_exceptions_init                     - Undefined Weak Reference
    __alloca_initialize                       - Undefined Weak Reference
    __arm_fini_                               - Undefined Weak Reference
    __arm_preinit_                            - Undefined Weak Reference
    __cpp_initialize__aeabi_                  - Undefined Weak Reference
    __cxa_finalize                            - Undefined Weak Reference
    __sigvec_lookup                           - Undefined Weak Reference
    _atexit_init                              - Undefined Weak Reference
    _call_atexit_fns                          - Undefined Weak Reference
    _clock_init                               - Undefined Weak Reference
    _fp_trap_init                             - Undefined Weak Reference
    _fp_trap_shutdown                         - Undefined Weak Reference
    _get_lc_collate                           - Undefined Weak Reference
    _get_lc_monetary                          - Undefined Weak Reference
    _get_lc_time                              - Undefined Weak Reference
    _getenv_init                              - Undefined Weak Reference
    _handle_redirection                       - Undefined Weak Reference
    _init_alloc                               - Undefined Weak Reference
    _init_user_alloc                          - Undefined Weak Reference
    _initio                                   - Undefined Weak Reference
    _printf_mbtowc                            - Undefined Weak Reference
    _printf_wc                                - Undefined Weak Reference
    _rand_init                                - Undefined Weak Reference
    _signal_finish                            - Undefined Weak Reference
    _signal_init                              - Undefined Weak Reference
    _terminate_alloc                          - Undefined Weak Reference
    _terminate_user_alloc                     - Undefined Weak Reference
    _terminateio                              - Undefined Weak Reference
    __Vectors_Size                           0x00000188   Number         0  startup_stm32f334x8.o ABSOLUTE
    __Vectors                                0x08000000   Data           4  startup_stm32f334x8.o(RESET)
    __Vectors_End                            0x08000188   Data           0  startup_stm32f334x8.o(RESET)
    __main                                   0x08000189   Thumb Code     8  __main.o(!!!main)
    __scatterload                            0x08000191   Thumb Code     0  __scatter.o(!!!scatter)
    __scatterload_rt2                        0x08000191   Thumb Code    44  __scatter.o(!!!scatter)
    __scatterload_rt2_thumb_only             0x08000191   Thumb Code     0  __scatter.o(!!!scatter)
    __scatterload_null                       0x0800019f   Thumb Code     0  __scatter.o(!!!scatter)
    __scatterload_copy                       0x080001c5   Thumb Code    26  __scatter_copy.o(!!handler_copy)
    __scatterload_zeroinit                   0x080001e1   Thumb Code    28  __scatter_zi.o(!!handler_zi)
    _printf_n                                0x080001fd   Thumb Code     0  _printf_n.o(.ARM.Collect$$_printf_percent$$00000001)
    _printf_percent                          0x080001fd   Thumb Code     0  _printf_percent.o(.ARM.Collect$$_printf_percent$$00000000)
    _printf_p                                0x08000203   Thumb Code     0  _printf_p.o(.ARM.Collect$$_printf_percent$$00000002)
    _printf_f                                0x08000209   Thumb Code     0  _printf_f.o(.ARM.Collect$$_printf_percent$$00000003)
    _printf_e                                0x0800020f   Thumb Code     0  _printf_e.o(.ARM.Collect$$_printf_percent$$00000004)
    _printf_g                                0x08000215   Thumb Code     0  _printf_g.o(.ARM.Collect$$_printf_percent$$00000005)
    _printf_a                                0x0800021b   Thumb Code     0  _printf_a.o(.ARM.Collect$$_printf_percent$$00000006)
    _printf_ll                               0x08000221   Thumb Code     0  _printf_ll.o(.ARM.Collect$$_printf_percent$$00000007)
    _printf_i                                0x0800022b   Thumb Code     0  _printf_i.o(.ARM.Collect$$_printf_percent$$00000008)
    _printf_d                                0x08000231   Thumb Code     0  _printf_d.o(.ARM.Collect$$_printf_percent$$00000009)
    _printf_u                                0x08000237   Thumb Code     0  _printf_u.o(.ARM.Collect$$_printf_percent$$0000000A)
    _printf_o                                0x0800023d   Thumb Code     0  _printf_o.o(.ARM.Collect$$_printf_percent$$0000000B)
    _printf_x                                0x08000243   Thumb Code     0  _printf_x.o(.ARM.Collect$$_printf_percent$$0000000C)
    _printf_lli                              0x08000249   Thumb Code     0  _printf_lli.o(.ARM.Collect$$_printf_percent$$0000000D)
    _printf_lld                              0x0800024f   Thumb Code     0  _printf_lld.o(.ARM.Collect$$_printf_percent$$0000000E)
    _printf_llu                              0x08000255   Thumb Code     0  _printf_llu.o(.ARM.Collect$$_printf_percent$$0000000F)
    _printf_llo                              0x0800025b   Thumb Code     0  _printf_llo.o(.ARM.Collect$$_printf_percent$$00000010)
    _printf_llx                              0x08000261   Thumb Code     0  _printf_llx.o(.ARM.Collect$$_printf_percent$$00000011)
    _printf_l                                0x08000267   Thumb Code     0  _printf_l.o(.ARM.Collect$$_printf_percent$$00000012)
    _printf_c                                0x08000271   Thumb Code     0  _printf_c.o(.ARM.Collect$$_printf_percent$$00000013)
    _printf_s                                0x08000277   Thumb Code     0  _printf_s.o(.ARM.Collect$$_printf_percent$$00000014)
    _printf_lc                               0x0800027d   Thumb Code     0  _printf_lc.o(.ARM.Collect$$_printf_percent$$00000015)
    _printf_ls                               0x08000283   Thumb Code     0  _printf_ls.o(.ARM.Collect$$_printf_percent$$00000016)
    _printf_percent_end                      0x08000289   Thumb Code     0  _printf_percent_end.o(.ARM.Collect$$_printf_percent$$00000017)
    __rt_lib_init                            0x0800028d   Thumb Code     0  libinit.o(.ARM.Collect$$libinit$$00000000)
    __rt_lib_init_fp_1                       0x0800028f   Thumb Code     0  libinit2.o(.ARM.Collect$$libinit$$00000001)
    __rt_lib_init_heap_1                     0x08000293   Thumb Code     0  libinit2.o(.ARM.Collect$$libinit$$0000000A)
    __rt_lib_init_lc_common                  0x08000293   Thumb Code     0  libinit2.o(.ARM.Collect$$libinit$$0000000F)
    __rt_lib_init_preinit_1                  0x08000293   Thumb Code     0  libinit2.o(.ARM.Collect$$libinit$$00000004)
    __rt_lib_init_rand_1                     0x08000293   Thumb Code     0  libinit2.o(.ARM.Collect$$libinit$$0000000E)
    __rt_lib_init_user_alloc_1               0x08000293   Thumb Code     0  libinit2.o(.ARM.Collect$$libinit$$0000000C)
    __rt_lib_init_lc_collate_1               0x08000299   Thumb Code     0  libinit2.o(.ARM.Collect$$libinit$$00000011)
    __rt_lib_init_lc_ctype_2                 0x08000299   Thumb Code     0  libinit2.o(.ARM.Collect$$libinit$$00000012)
    __rt_lib_init_lc_ctype_1                 0x080002a5   Thumb Code     0  libinit2.o(.ARM.Collect$$libinit$$00000013)
    __rt_lib_init_lc_monetary_1              0x080002a5   Thumb Code     0  libinit2.o(.ARM.Collect$$libinit$$00000015)
    __rt_lib_init_lc_numeric_2               0x080002a5   Thumb Code     0  libinit2.o(.ARM.Collect$$libinit$$00000016)
    __rt_lib_init_alloca_1                   0x080002af   Thumb Code     0  libinit2.o(.ARM.Collect$$libinit$$0000002E)
    __rt_lib_init_argv_1                     0x080002af   Thumb Code     0  libinit2.o(.ARM.Collect$$libinit$$0000002C)
    __rt_lib_init_atexit_1                   0x080002af   Thumb Code     0  libinit2.o(.ARM.Collect$$libinit$$0000001B)
    __rt_lib_init_clock_1                    0x080002af   Thumb Code     0  libinit2.o(.ARM.Collect$$libinit$$00000021)
    __rt_lib_init_cpp_1                      0x080002af   Thumb Code     0  libinit2.o(.ARM.Collect$$libinit$$00000032)
    __rt_lib_init_exceptions_1               0x080002af   Thumb Code     0  libinit2.o(.ARM.Collect$$libinit$$00000030)
    __rt_lib_init_fp_trap_1                  0x080002af   Thumb Code     0  libinit2.o(.ARM.Collect$$libinit$$0000001F)
    __rt_lib_init_getenv_1                   0x080002af   Thumb Code     0  libinit2.o(.ARM.Collect$$libinit$$00000023)
    __rt_lib_init_lc_numeric_1               0x080002af   Thumb Code     0  libinit2.o(.ARM.Collect$$libinit$$00000017)
    __rt_lib_init_lc_time_1                  0x080002af   Thumb Code     0  libinit2.o(.ARM.Collect$$libinit$$00000019)
    __rt_lib_init_return                     0x080002af   Thumb Code     0  libinit2.o(.ARM.Collect$$libinit$$00000033)
    __rt_lib_init_signal_1                   0x080002af   Thumb Code     0  libinit2.o(.ARM.Collect$$libinit$$0000001D)
    __rt_lib_init_stdio_1                    0x080002af   Thumb Code     0  libinit2.o(.ARM.Collect$$libinit$$00000025)
    __rt_lib_shutdown                        0x080002b1   Thumb Code     0  libshutdown.o(.ARM.Collect$$libshutdown$$00000000)
    __rt_lib_shutdown_cpp_1                  0x080002b3   Thumb Code     0  libshutdown2.o(.ARM.Collect$$libshutdown$$00000004)
    __rt_lib_shutdown_fini_1                 0x080002b3   Thumb Code     0  libshutdown2.o(.ARM.Collect$$libshutdown$$00000002)
    __rt_lib_shutdown_fp_trap_1              0x080002b3   Thumb Code     0  libshutdown2.o(.ARM.Collect$$libshutdown$$00000009)
    __rt_lib_shutdown_heap_1                 0x080002b3   Thumb Code     0  libshutdown2.o(.ARM.Collect$$libshutdown$$00000011)
    __rt_lib_shutdown_return                 0x080002b3   Thumb Code     0  libshutdown2.o(.ARM.Collect$$libshutdown$$00000012)
    __rt_lib_shutdown_signal_1               0x080002b3   Thumb Code     0  libshutdown2.o(.ARM.Collect$$libshutdown$$0000000C)
    __rt_lib_shutdown_stdio_1                0x080002b3   Thumb Code     0  libshutdown2.o(.ARM.Collect$$libshutdown$$00000006)
    __rt_lib_shutdown_user_alloc_1           0x080002b3   Thumb Code     0  libshutdown2.o(.ARM.Collect$$libshutdown$$0000000E)
    __rt_entry                               0x080002b5   Thumb Code     0  __rtentry.o(.ARM.Collect$$rtentry$$00000000)
    __rt_entry_presh_1                       0x080002b5   Thumb Code     0  __rtentry2.o(.ARM.Collect$$rtentry$$00000002)
    __rt_entry_sh                            0x080002b5   Thumb Code     0  __rtentry4.o(.ARM.Collect$$rtentry$$00000004)
    __rt_entry_li                            0x080002bb   Thumb Code     0  __rtentry2.o(.ARM.Collect$$rtentry$$0000000A)
    __rt_entry_postsh_1                      0x080002bb   Thumb Code     0  __rtentry2.o(.ARM.Collect$$rtentry$$00000009)
    __rt_entry_main                          0x080002bf   Thumb Code     0  __rtentry2.o(.ARM.Collect$$rtentry$$0000000D)
    __rt_entry_postli_1                      0x080002bf   Thumb Code     0  __rtentry2.o(.ARM.Collect$$rtentry$$0000000C)
    __rt_exit                                0x080002c7   Thumb Code     0  rtexit.o(.ARM.Collect$$rtexit$$00000000)
    __rt_exit_ls                             0x080002c9   Thumb Code     0  rtexit2.o(.ARM.Collect$$rtexit$$00000003)
    __rt_exit_prels_1                        0x080002c9   Thumb Code     0  rtexit2.o(.ARM.Collect$$rtexit$$00000002)
    __rt_exit_exit                           0x080002cd   Thumb Code     0  rtexit2.o(.ARM.Collect$$rtexit$$00000004)
    Reset_Handler                            0x080002d5   Thumb Code     8  startup_stm32f334x8.o(.text)
    ADC1_2_IRQHandler                        0x080002ef   Thumb Code     0  startup_stm32f334x8.o(.text)
    CAN_RX1_IRQHandler                       0x080002ef   Thumb Code     0  startup_stm32f334x8.o(.text)
    CAN_SCE_IRQHandler                       0x080002ef   Thumb Code     0  startup_stm32f334x8.o(.text)
    CAN_TX_IRQHandler                        0x080002ef   Thumb Code     0  startup_stm32f334x8.o(.text)
    COMP2_IRQHandler                         0x080002ef   Thumb Code     0  startup_stm32f334x8.o(.text)
    COMP4_6_IRQHandler                       0x080002ef   Thumb Code     0  startup_stm32f334x8.o(.text)
    DMA1_Channel3_IRQHandler                 0x080002ef   Thumb Code     0  startup_stm32f334x8.o(.text)
    DMA1_Channel4_IRQHandler                 0x080002ef   Thumb Code     0  startup_stm32f334x8.o(.text)
    DMA1_Channel5_IRQHandler                 0x080002ef   Thumb Code     0  startup_stm32f334x8.o(.text)
    DMA1_Channel6_IRQHandler                 0x080002ef   Thumb Code     0  startup_stm32f334x8.o(.text)
    EXTI0_IRQHandler                         0x080002ef   Thumb Code     0  startup_stm32f334x8.o(.text)
    EXTI15_10_IRQHandler                     0x080002ef   Thumb Code     0  startup_stm32f334x8.o(.text)
    EXTI1_IRQHandler                         0x080002ef   Thumb Code     0  startup_stm32f334x8.o(.text)
    EXTI2_TSC_IRQHandler                     0x080002ef   Thumb Code     0  startup_stm32f334x8.o(.text)
    EXTI3_IRQHandler                         0x080002ef   Thumb Code     0  startup_stm32f334x8.o(.text)
    EXTI4_IRQHandler                         0x080002ef   Thumb Code     0  startup_stm32f334x8.o(.text)
    EXTI9_5_IRQHandler                       0x080002ef   Thumb Code     0  startup_stm32f334x8.o(.text)
    FLASH_IRQHandler                         0x080002ef   Thumb Code     0  startup_stm32f334x8.o(.text)
    FPU_IRQHandler                           0x080002ef   Thumb Code     0  startup_stm32f334x8.o(.text)
    HRTIM1_FLT_IRQHandler                    0x080002ef   Thumb Code     0  startup_stm32f334x8.o(.text)
    HRTIM1_TIMA_IRQHandler                   0x080002ef   Thumb Code     0  startup_stm32f334x8.o(.text)
    HRTIM1_TIMB_IRQHandler                   0x080002ef   Thumb Code     0  startup_stm32f334x8.o(.text)
    HRTIM1_TIMC_IRQHandler                   0x080002ef   Thumb Code     0  startup_stm32f334x8.o(.text)
    HRTIM1_TIMD_IRQHandler                   0x080002ef   Thumb Code     0  startup_stm32f334x8.o(.text)
    HRTIM1_TIME_IRQHandler                   0x080002ef   Thumb Code     0  startup_stm32f334x8.o(.text)
    I2C1_ER_IRQHandler                       0x080002ef   Thumb Code     0  startup_stm32f334x8.o(.text)
    I2C1_EV_IRQHandler                       0x080002ef   Thumb Code     0  startup_stm32f334x8.o(.text)
    PVD_IRQHandler                           0x080002ef   Thumb Code     0  startup_stm32f334x8.o(.text)
    RCC_IRQHandler                           0x080002ef   Thumb Code     0  startup_stm32f334x8.o(.text)
    RTC_Alarm_IRQHandler                     0x080002ef   Thumb Code     0  startup_stm32f334x8.o(.text)
    RTC_WKUP_IRQHandler                      0x080002ef   Thumb Code     0  startup_stm32f334x8.o(.text)
    SPI1_IRQHandler                          0x080002ef   Thumb Code     0  startup_stm32f334x8.o(.text)
    TAMP_STAMP_IRQHandler                    0x080002ef   Thumb Code     0  startup_stm32f334x8.o(.text)
    TIM1_BRK_TIM15_IRQHandler                0x080002ef   Thumb Code     0  startup_stm32f334x8.o(.text)
    TIM1_CC_IRQHandler                       0x080002ef   Thumb Code     0  startup_stm32f334x8.o(.text)
    TIM1_TRG_COM_TIM17_IRQHandler            0x080002ef   Thumb Code     0  startup_stm32f334x8.o(.text)
    TIM1_UP_TIM16_IRQHandler                 0x080002ef   Thumb Code     0  startup_stm32f334x8.o(.text)
    TIM2_IRQHandler                          0x080002ef   Thumb Code     0  startup_stm32f334x8.o(.text)
    TIM3_IRQHandler                          0x080002ef   Thumb Code     0  startup_stm32f334x8.o(.text)
    TIM7_DAC2_IRQHandler                     0x080002ef   Thumb Code     0  startup_stm32f334x8.o(.text)
    USART1_IRQHandler                        0x080002ef   Thumb Code     0  startup_stm32f334x8.o(.text)
    USART3_IRQHandler                        0x080002ef   Thumb Code     0  startup_stm32f334x8.o(.text)
    WWDG_IRQHandler                          0x080002ef   Thumb Code     0  startup_stm32f334x8.o(.text)
    __user_initial_stackheap                 0x080002f1   Thumb Code     0  startup_stm32f334x8.o(.text)
    __aeabi_uldivmod                         0x08000315   Thumb Code     0  lludivv7m.o(.text)
    _ll_udiv                                 0x08000315   Thumb Code   238  lludivv7m.o(.text)
    vsprintf                                 0x08000405   Thumb Code    32  vsprintf.o(.text)
    __aeabi_memclr4                          0x08000429   Thumb Code     0  rt_memclr_w.o(.text)
    __aeabi_memclr8                          0x08000429   Thumb Code     0  rt_memclr_w.o(.text)
    __rt_memclr_w                            0x08000429   Thumb Code    78  rt_memclr_w.o(.text)
    _memset_w                                0x0800042d   Thumb Code     0  rt_memclr_w.o(.text)
    __use_two_region_memory                  0x08000477   Thumb Code     2  heapauxi.o(.text)
    __rt_heap_escrow$2region                 0x08000479   Thumb Code     2  heapauxi.o(.text)
    __rt_heap_expand$2region                 0x0800047b   Thumb Code     2  heapauxi.o(.text)
    _printf_pre_padding                      0x0800047d   Thumb Code    44  _printf_pad.o(.text)
    _printf_post_padding                     0x080004a9   Thumb Code    34  _printf_pad.o(.text)
    _printf_truncate_signed                  0x080004cb   Thumb Code    18  _printf_truncate.o(.text)
    _printf_truncate_unsigned                0x080004dd   Thumb Code    18  _printf_truncate.o(.text)
    _printf_str                              0x080004ef   Thumb Code    82  _printf_str.o(.text)
    _printf_int_dec                          0x08000541   Thumb Code   104  _printf_dec.o(.text)
    _printf_charcount                        0x080005b9   Thumb Code    40  _printf_charcount.o(.text)
    _printf_char_common                      0x080005eb   Thumb Code    32  _printf_char_common.o(.text)
    _sputc                                   0x08000611   Thumb Code    10  _sputc.o(.text)
    _printf_wctomb                           0x0800061d   Thumb Code   182  _printf_wctomb.o(.text)
    _printf_longlong_dec                     0x080006d9   Thumb Code   108  _printf_longlong_dec.o(.text)
    _printf_longlong_oct                     0x08000755   Thumb Code    66  _printf_oct_int_ll.o(.text)
    _printf_int_oct                          0x08000797   Thumb Code    24  _printf_oct_int_ll.o(.text)
    _printf_ll_oct                           0x080007af   Thumb Code    12  _printf_oct_int_ll.o(.text)
    _printf_longlong_hex                     0x080007c5   Thumb Code    86  _printf_hex_int_ll_ptr.o(.text)
    _printf_int_hex                          0x0800081b   Thumb Code    28  _printf_hex_int_ll_ptr.o(.text)
    _printf_ll_hex                           0x08000837   Thumb Code    12  _printf_hex_int_ll_ptr.o(.text)
    _printf_hex_ptr                          0x08000843   Thumb Code    18  _printf_hex_int_ll_ptr.o(.text)
    __printf                                 0x08000859   Thumb Code   388  __printf_flags_ss_wp.o(.text)
    _ll_udiv10                               0x080009e1   Thumb Code   138  lludiv10.o(.text)
    _printf_int_common                       0x08000a6b   Thumb Code   178  _printf_intcommon.o(.text)
    __lib_sel_fp_printf                      0x08000b1d   Thumb Code     2  _printf_fp_dec.o(.text)
    _printf_fp_dec_real                      0x08000ccf   Thumb Code   620  _printf_fp_dec.o(.text)
    _printf_fp_hex_real                      0x08000f3d   Thumb Code   756  _printf_fp_hex.o(.text)
    _printf_cs_common                        0x08001239   Thumb Code    20  _printf_char.o(.text)
    _printf_char                             0x0800124d   Thumb Code    16  _printf_char.o(.text)
    _printf_string                           0x0800125d   Thumb Code     8  _printf_char.o(.text)
    _printf_lcs_common                       0x08001265   Thumb Code    20  _printf_wchar.o(.text)
    _printf_wchar                            0x08001279   Thumb Code    16  _printf_wchar.o(.text)
    _printf_wstring                          0x08001289   Thumb Code     8  _printf_wchar.o(.text)
    _wcrtomb                                 0x08001291   Thumb Code    64  _wcrtomb.o(.text)
    __user_setup_stackheap                   0x080012d1   Thumb Code    74  sys_stackheap_outer.o(.text)
    __rt_ctype_table                         0x0800131d   Thumb Code    16  rt_ctype_table.o(.text)
    __rt_locale                              0x0800132d   Thumb Code     8  rt_locale_intlibspace.o(.text)
    _printf_fp_infnan                        0x08001335   Thumb Code   112  _printf_fp_infnan.o(.text)
    _btod_etento                             0x080013b5   Thumb Code   224  bigflt0.o(.text)
    exit                                     0x08001499   Thumb Code    18  exit.o(.text)
    __user_libspace                          0x080014ad   Thumb Code     8  libspace.o(.text)
    __user_perproc_libspace                  0x080014ad   Thumb Code     0  libspace.o(.text)
    __user_perthread_libspace                0x080014ad   Thumb Code     0  libspace.o(.text)
    strcmp                                   0x080014b5   Thumb Code   128  strcmpv7m.o(.text)
    _sys_exit                                0x08001535   Thumb Code     8  sys_exit.o(.text)
    __I$use$semihosting                      0x08001541   Thumb Code     0  use_no_semi.o(.text)
    __use_no_semihosting_swi                 0x08001541   Thumb Code     2  use_no_semi.o(.text)
    __semihosting_library_function           0x08001543   Thumb Code     0  indicate_semi.o(.text)
    _btod_d2e                                0x08001543   Thumb Code    62  btod.o(CL$$btod_d2e)
    _d2e_denorm_low                          0x08001581   Thumb Code    70  btod.o(CL$$btod_d2e_denorm_low)
    _d2e_norm_op1                            0x080015c7   Thumb Code    96  btod.o(CL$$btod_d2e_norm_op1)
    __btod_div_common                        0x08001627   Thumb Code   696  btod.o(CL$$btod_div_common)
    _e2e                                     0x0800195f   Thumb Code   220  btod.o(CL$$btod_e2e)
    _btod_ediv                               0x08001a3b   Thumb Code    42  btod.o(CL$$btod_ediv)
    _btod_emul                               0x08001a65   Thumb Code    42  btod.o(CL$$btod_emul)
    __btod_mult_common                       0x08001a8f   Thumb Code   580  btod.o(CL$$btod_mult_common)
    ADC_Linear_calibration_init              0x08001e0d   Thumb Code    46  adc_to_elec.o(i.ADC_Linear_calibration_init)
    ADC_Value_To_Elec                        0x08001e3b   Thumb Code    48  adc_to_elec.o(i.ADC_Value_To_Elec)
    BSP_ADC_Init                             0x08001e6d   Thumb Code    34  bsp_adc.o(i.BSP_ADC_Init)
    BSP_ADC_Start_DMA                        0x08001e99   Thumb Code     4  bsp_adc.o(i.BSP_ADC_Start_DMA)
    BSP_ADC_Start_Injected                   0x08001e9d   Thumb Code     4  bsp_adc.o(i.BSP_ADC_Start_Injected)
    BSP_CAN_Init                             0x08001ea1   Thumb Code    56  bsp_can.o(i.BSP_CAN_Init)
    BSP_GPIO_Init                            0x08001edd   Thumb Code     4  bsp_gpio.o(i.BSP_GPIO_Init)
    BSP_HRTIM_Disable_PWM                    0x08001ee1   Thumb Code     8  bsp_hrtim.o(i.BSP_HRTIM_Disable_PWM)
    BSP_HRTIM_Enable_PWM                     0x08001eed   Thumb Code     8  bsp_hrtim.o(i.BSP_HRTIM_Enable_PWM)
    BSP_HRTIM_Init                           0x08001ef9   Thumb Code    30  bsp_hrtim.o(i.BSP_HRTIM_Init)
    BSP_HRTIM_Update_PWM                     0x08001f1d   Thumb Code    22  bsp_hrtim.o(i.BSP_HRTIM_Update_PWM)
    BSP_TIM_Init                             0x08001f39   Thumb Code    64  bsp_tim.o(i.BSP_TIM_Init)
    BSP_TIM_Start_Loop_Timer                 0x08001f7d   Thumb Code     6  bsp_tim.o(i.BSP_TIM_Start_Loop_Timer)
    BSP_TIM_Stop_Loop_Timer                  0x08001f89   Thumb Code     6  bsp_tim.o(i.BSP_TIM_Stop_Loop_Timer)
    BSP_UART_Init                            0x08001f95   Thumb Code     4  bsp_uart.o(i.BSP_UART_Init)
    BusFault_Handler                         0x08001f99   Thumb Code     2  stm32f3xx_it_1.o(i.BusFault_Handler)
    CAN_RX0_IRQHandler                       0x08001f9d   Thumb Code     6  stm32f3xx_it_1.o(i.CAN_RX0_IRQHandler)
    DMA1_Channel1_IRQHandler                 0x0800214d   Thumb Code     6  stm32f3xx_it_1.o(i.DMA1_Channel1_IRQHandler)
    DMA1_Channel2_IRQHandler                 0x08002159   Thumb Code     6  stm32f3xx_it_1.o(i.DMA1_Channel2_IRQHandler)
    DMA1_Channel7_IRQHandler                 0x08002165   Thumb Code     6  stm32f3xx_it_1.o(i.DMA1_Channel7_IRQHandler)
    DebugMon_Handler                         0x080021bb   Thumb Code     2  stm32f3xx_it_1.o(i.DebugMon_Handler)
    Error_Handler                            0x080021bd   Thumb Code     4  main_1.o(i.Error_Handler)
    HAL_ADCEx_Calibration_Start              0x080021c1   Thumb Code   158  stm32f3xx_hal_adc_ex.o(i.HAL_ADCEx_Calibration_Start)
    HAL_ADCEx_InjectedStart_IT               0x0800225f   Thumb Code   224  stm32f3xx_hal_adc_ex.o(i.HAL_ADCEx_InjectedStart_IT)
    HAL_ADCEx_MultiModeConfigChannel         0x08002341   Thumb Code   214  stm32f3xx_hal_adc_ex.o(i.HAL_ADCEx_MultiModeConfigChannel)
    HAL_ADC_ConfigChannel                    0x08002421   Thumb Code   828  stm32f3xx_hal_adc_ex.o(i.HAL_ADC_ConfigChannel)
    HAL_ADC_ConvCpltCallback                 0x08002771   Thumb Code     2  stm32f3xx_hal_adc.o(i.HAL_ADC_ConvCpltCallback)
    HAL_ADC_ConvHalfCpltCallback             0x08002773   Thumb Code     2  stm32f3xx_hal_adc.o(i.HAL_ADC_ConvHalfCpltCallback)
    HAL_ADC_ErrorCallback                    0x08002775   Thumb Code     2  stm32f3xx_hal_adc.o(i.HAL_ADC_ErrorCallback)
    HAL_ADC_GetState                         0x08002777   Thumb Code     4  stm32f3xx_hal_adc.o(i.HAL_ADC_GetState)
    HAL_ADC_Init                             0x0800277d   Thumb Code   460  stm32f3xx_hal_adc_ex.o(i.HAL_ADC_Init)
    HAL_ADC_MspInit                          0x08002961   Thumb Code   284  adc_1.o(i.HAL_ADC_MspInit)
    HAL_ADC_Start_DMA                        0x08002a99   Thumb Code   246  stm32f3xx_hal_adc_ex.o(i.HAL_ADC_Start_DMA)
    HAL_CAN_ActivateNotification             0x08002ba1   Thumb Code    36  stm32f3xx_hal_can.o(i.HAL_CAN_ActivateNotification)
    HAL_CAN_AddTxMessage                     0x08002bc5   Thumb Code   208  stm32f3xx_hal_can.o(i.HAL_CAN_AddTxMessage)
    HAL_CAN_ConfigFilter                     0x08002c95   Thumb Code   238  stm32f3xx_hal_can.o(i.HAL_CAN_ConfigFilter)
    HAL_CAN_ErrorCallback                    0x08002d83   Thumb Code     2  stm32f3xx_hal_can.o(i.HAL_CAN_ErrorCallback)
    HAL_CAN_GetRxMessage                     0x08002d85   Thumb Code   244  stm32f3xx_hal_can.o(i.HAL_CAN_GetRxMessage)
    HAL_CAN_IRQHandler                       0x08002e79   Thumb Code   508  stm32f3xx_hal_can.o(i.HAL_CAN_IRQHandler)
    HAL_CAN_Init                             0x08003075   Thumb Code   282  stm32f3xx_hal_can.o(i.HAL_CAN_Init)
    HAL_CAN_MspInit                          0x08003191   Thumb Code   108  can_1.o(i.HAL_CAN_MspInit)
    HAL_CAN_RxFifo0FullCallback              0x08003205   Thumb Code     2  stm32f3xx_hal_can.o(i.HAL_CAN_RxFifo0FullCallback)
    HAL_CAN_RxFifo0MsgPendingCallback        0x08003209   Thumb Code    92  supercap.o(i.HAL_CAN_RxFifo0MsgPendingCallback)
    HAL_CAN_RxFifo1FullCallback              0x0800327d   Thumb Code     2  stm32f3xx_hal_can.o(i.HAL_CAN_RxFifo1FullCallback)
    HAL_CAN_RxFifo1MsgPendingCallback        0x0800327f   Thumb Code     2  stm32f3xx_hal_can.o(i.HAL_CAN_RxFifo1MsgPendingCallback)
    HAL_CAN_SleepCallback                    0x08003281   Thumb Code     2  stm32f3xx_hal_can.o(i.HAL_CAN_SleepCallback)
    HAL_CAN_Start                            0x08003285   Thumb Code    88  stm32f3xx_hal_can.o(i.HAL_CAN_Start)
    HAL_CAN_TxMailbox0AbortCallback          0x080032dd   Thumb Code     2  stm32f3xx_hal_can.o(i.HAL_CAN_TxMailbox0AbortCallback)
    HAL_CAN_TxMailbox0CompleteCallback       0x080032df   Thumb Code     2  stm32f3xx_hal_can.o(i.HAL_CAN_TxMailbox0CompleteCallback)
    HAL_CAN_TxMailbox1AbortCallback          0x080032e1   Thumb Code     2  stm32f3xx_hal_can.o(i.HAL_CAN_TxMailbox1AbortCallback)
    HAL_CAN_TxMailbox1CompleteCallback       0x080032e3   Thumb Code     2  stm32f3xx_hal_can.o(i.HAL_CAN_TxMailbox1CompleteCallback)
    HAL_CAN_TxMailbox2AbortCallback          0x080032e5   Thumb Code     2  stm32f3xx_hal_can.o(i.HAL_CAN_TxMailbox2AbortCallback)
    HAL_CAN_TxMailbox2CompleteCallback       0x080032e7   Thumb Code     2  stm32f3xx_hal_can.o(i.HAL_CAN_TxMailbox2CompleteCallback)
    HAL_CAN_WakeUpFromRxMsgCallback          0x080032e9   Thumb Code     2  stm32f3xx_hal_can.o(i.HAL_CAN_WakeUpFromRxMsgCallback)
    HAL_DMA_Abort                            0x080032eb   Thumb Code    70  stm32f3xx_hal_dma.o(i.HAL_DMA_Abort)
    HAL_DMA_Abort_IT                         0x08003331   Thumb Code    74  stm32f3xx_hal_dma.o(i.HAL_DMA_Abort_IT)
    HAL_DMA_IRQHandler                       0x0800337b   Thumb Code   168  stm32f3xx_hal_dma.o(i.HAL_DMA_IRQHandler)
    HAL_DMA_Init                             0x08003423   Thumb Code    78  stm32f3xx_hal_dma.o(i.HAL_DMA_Init)
    HAL_DMA_Start_IT                         0x08003471   Thumb Code   112  stm32f3xx_hal_dma.o(i.HAL_DMA_Start_IT)
    HAL_Delay                                0x080034e1   Thumb Code    32  stm32f3xx_hal.o(i.HAL_Delay)
    HAL_GPIO_Init                            0x08003505   Thumb Code   518  stm32f3xx_hal_gpio.o(i.HAL_GPIO_Init)
    HAL_GPIO_WritePin                        0x08003725   Thumb Code    10  stm32f3xx_hal_gpio.o(i.HAL_GPIO_WritePin)
    HAL_GetTick                              0x08003731   Thumb Code     6  stm32f3xx_hal.o(i.HAL_GetTick)
    HAL_HRTIM_ADCTriggerConfig               0x0800373d   Thumb Code   190  stm32f3xx_hal_hrtim.o(i.HAL_HRTIM_ADCTriggerConfig)
    HAL_HRTIM_BurstModePeriodCallback        0x080037fb   Thumb Code     2  stm32f3xx_hal_hrtim.o(i.HAL_HRTIM_BurstModePeriodCallback)
    HAL_HRTIM_Capture1EventCallback          0x080037fd   Thumb Code     2  stm32f3xx_hal_hrtim.o(i.HAL_HRTIM_Capture1EventCallback)
    HAL_HRTIM_Capture2EventCallback          0x080037ff   Thumb Code     2  stm32f3xx_hal_hrtim.o(i.HAL_HRTIM_Capture2EventCallback)
    HAL_HRTIM_Compare1EventCallback          0x08003801   Thumb Code     2  stm32f3xx_hal_hrtim.o(i.HAL_HRTIM_Compare1EventCallback)
    HAL_HRTIM_Compare2EventCallback          0x08003803   Thumb Code     2  stm32f3xx_hal_hrtim.o(i.HAL_HRTIM_Compare2EventCallback)
    HAL_HRTIM_Compare3EventCallback          0x08003805   Thumb Code     2  stm32f3xx_hal_hrtim.o(i.HAL_HRTIM_Compare3EventCallback)
    HAL_HRTIM_Compare4EventCallback          0x08003807   Thumb Code     2  stm32f3xx_hal_hrtim.o(i.HAL_HRTIM_Compare4EventCallback)
    HAL_HRTIM_CounterResetCallback           0x08003809   Thumb Code     2  stm32f3xx_hal_hrtim.o(i.HAL_HRTIM_CounterResetCallback)
    HAL_HRTIM_DLLCalibrationReadyCallback    0x0800380b   Thumb Code     2  stm32f3xx_hal_hrtim.o(i.HAL_HRTIM_DLLCalibrationReadyCallback)
    HAL_HRTIM_DLLCalibrationStart            0x0800380d   Thumb Code    98  stm32f3xx_hal_hrtim.o(i.HAL_HRTIM_DLLCalibrationStart)
    HAL_HRTIM_DeadTimeConfig                 0x08003871   Thumb Code   136  stm32f3xx_hal_hrtim.o(i.HAL_HRTIM_DeadTimeConfig)
    HAL_HRTIM_DelayedProtectionCallback      0x080038fd   Thumb Code     2  stm32f3xx_hal_hrtim.o(i.HAL_HRTIM_DelayedProtectionCallback)
    HAL_HRTIM_Fault1Callback                 0x080038ff   Thumb Code     2  stm32f3xx_hal_hrtim.o(i.HAL_HRTIM_Fault1Callback)
    HAL_HRTIM_Fault2Callback                 0x08003901   Thumb Code     2  stm32f3xx_hal_hrtim.o(i.HAL_HRTIM_Fault2Callback)
    HAL_HRTIM_Fault3Callback                 0x08003903   Thumb Code     2  stm32f3xx_hal_hrtim.o(i.HAL_HRTIM_Fault3Callback)
    HAL_HRTIM_Fault4Callback                 0x08003905   Thumb Code     2  stm32f3xx_hal_hrtim.o(i.HAL_HRTIM_Fault4Callback)
    HAL_HRTIM_Fault5Callback                 0x08003907   Thumb Code     2  stm32f3xx_hal_hrtim.o(i.HAL_HRTIM_Fault5Callback)
    HAL_HRTIM_IRQHandler                     0x08003909   Thumb Code    20  stm32f3xx_hal_hrtim.o(i.HAL_HRTIM_IRQHandler)
    HAL_HRTIM_Init                           0x0800391d   Thumb Code   180  stm32f3xx_hal_hrtim.o(i.HAL_HRTIM_Init)
    HAL_HRTIM_MspInit                        0x080039d9   Thumb Code    54  hrtim_1.o(i.HAL_HRTIM_MspInit)
    HAL_HRTIM_MspPostInit                    0x08003a15   Thumb Code    78  hrtim_1.o(i.HAL_HRTIM_MspPostInit)
    HAL_HRTIM_Output1ResetCallback           0x08003a69   Thumb Code     2  stm32f3xx_hal_hrtim.o(i.HAL_HRTIM_Output1ResetCallback)
    HAL_HRTIM_Output1SetCallback             0x08003a6b   Thumb Code     2  stm32f3xx_hal_hrtim.o(i.HAL_HRTIM_Output1SetCallback)
    HAL_HRTIM_Output2ResetCallback           0x08003a6d   Thumb Code     2  stm32f3xx_hal_hrtim.o(i.HAL_HRTIM_Output2ResetCallback)
    HAL_HRTIM_Output2SetCallback             0x08003a6f   Thumb Code     2  stm32f3xx_hal_hrtim.o(i.HAL_HRTIM_Output2SetCallback)
    HAL_HRTIM_PollForDLLCalibration          0x08003a71   Thumb Code    66  stm32f3xx_hal_hrtim.o(i.HAL_HRTIM_PollForDLLCalibration)
    HAL_HRTIM_RegistersUpdateCallback        0x08003ab3   Thumb Code     2  stm32f3xx_hal_hrtim.o(i.HAL_HRTIM_RegistersUpdateCallback)
    HAL_HRTIM_RepetitionEventCallback        0x08003ab5   Thumb Code     2  power_loop.o(i.HAL_HRTIM_RepetitionEventCallback)
    HAL_HRTIM_SynchronizationEventCallback   0x08003ab7   Thumb Code     2  stm32f3xx_hal_hrtim.o(i.HAL_HRTIM_SynchronizationEventCallback)
    HAL_HRTIM_SystemFaultCallback            0x08003ab9   Thumb Code     2  stm32f3xx_hal_hrtim.o(i.HAL_HRTIM_SystemFaultCallback)
    HAL_HRTIM_TimeBaseConfig                 0x08003abb   Thumb Code   122  stm32f3xx_hal_hrtim.o(i.HAL_HRTIM_TimeBaseConfig)
    HAL_HRTIM_WaveformCompareConfig          0x08003b35   Thumb Code   308  stm32f3xx_hal_hrtim.o(i.HAL_HRTIM_WaveformCompareConfig)
    HAL_HRTIM_WaveformCountStart             0x08003c69   Thumb Code    44  stm32f3xx_hal_hrtim.o(i.HAL_HRTIM_WaveformCountStart)
    HAL_HRTIM_WaveformCountStart_IT          0x08003c95   Thumb Code   128  stm32f3xx_hal_hrtim.o(i.HAL_HRTIM_WaveformCountStart_IT)
    HAL_HRTIM_WaveformOutputConfig           0x08003d19   Thumb Code    54  stm32f3xx_hal_hrtim.o(i.HAL_HRTIM_WaveformOutputConfig)
    HAL_HRTIM_WaveformOutputStart            0x08003d4f   Thumb Code    48  stm32f3xx_hal_hrtim.o(i.HAL_HRTIM_WaveformOutputStart)
    HAL_HRTIM_WaveformOutputStop             0x08003d7f   Thumb Code    48  stm32f3xx_hal_hrtim.o(i.HAL_HRTIM_WaveformOutputStop)
    HAL_HRTIM_WaveformTimerConfig            0x08003daf   Thumb Code   186  stm32f3xx_hal_hrtim.o(i.HAL_HRTIM_WaveformTimerConfig)
    HAL_I2CEx_EnableFastModePlus             0x08003e69   Thumb Code    30  stm32f3xx_hal_i2c_ex.o(i.HAL_I2CEx_EnableFastModePlus)
    HAL_IncTick                              0x08003e91   Thumb Code    12  stm32f3xx_hal.o(i.HAL_IncTick)
    HAL_Init                                 0x08003ea1   Thumb Code    32  stm32f3xx_hal.o(i.HAL_Init)
    HAL_InitTick                             0x08003ec5   Thumb Code    54  stm32f3xx_hal.o(i.HAL_InitTick)
    HAL_MspInit                              0x08003f05   Thumb Code    40  stm32f3xx_hal_msp_1.o(i.HAL_MspInit)
    HAL_NVIC_EnableIRQ                       0x08003f31   Thumb Code    26  stm32f3xx_hal_cortex.o(i.HAL_NVIC_EnableIRQ)
    HAL_NVIC_SetPriority                     0x08003f4d   Thumb Code    60  stm32f3xx_hal_cortex.o(i.HAL_NVIC_SetPriority)
    HAL_NVIC_SetPriorityGrouping             0x08003f8d   Thumb Code    26  stm32f3xx_hal_cortex.o(i.HAL_NVIC_SetPriorityGrouping)
    HAL_RCCEx_PeriphCLKConfig                0x08003fb1   Thumb Code   378  stm32f3xx_hal_rcc_ex.o(i.HAL_RCCEx_PeriphCLKConfig)
    HAL_RCC_ClockConfig                      0x08004139   Thumb Code   308  stm32f3xx_hal_rcc.o(i.HAL_RCC_ClockConfig)
    HAL_RCC_GetPCLK1Freq                     0x08004281   Thumb Code    34  stm32f3xx_hal_rcc.o(i.HAL_RCC_GetPCLK1Freq)
    HAL_RCC_GetPCLK2Freq                     0x080042b1   Thumb Code    34  stm32f3xx_hal_rcc.o(i.HAL_RCC_GetPCLK2Freq)
    HAL_RCC_GetSysClockFreq                  0x080042e1   Thumb Code    92  stm32f3xx_hal_rcc.o(i.HAL_RCC_GetSysClockFreq)
    HAL_RCC_OscConfig                        0x0800434d   Thumb Code  1480  stm32f3xx_hal_rcc.o(i.HAL_RCC_OscConfig)
    HAL_SYSTICK_Config                       0x08004915   Thumb Code    40  stm32f3xx_hal_cortex.o(i.HAL_SYSTICK_Config)
    HAL_TIMEx_Break2Callback                 0x0800493d   Thumb Code     2  stm32f3xx_hal_tim_ex.o(i.HAL_TIMEx_Break2Callback)
    HAL_TIMEx_BreakCallback                  0x0800493f   Thumb Code     2  stm32f3xx_hal_tim_ex.o(i.HAL_TIMEx_BreakCallback)
    HAL_TIMEx_CommutCallback                 0x08004941   Thumb Code     2  stm32f3xx_hal_tim_ex.o(i.HAL_TIMEx_CommutCallback)
    HAL_TIMEx_MasterConfigSynchronization    0x08004945   Thumb Code   104  stm32f3xx_hal_tim_ex.o(i.HAL_TIMEx_MasterConfigSynchronization)
    HAL_TIM_Base_Init                        0x080049b9   Thumb Code    98  stm32f3xx_hal_tim.o(i.HAL_TIM_Base_Init)
    HAL_TIM_Base_MspInit                     0x08004a1d   Thumb Code    74  tim_1.o(i.HAL_TIM_Base_MspInit)
    HAL_TIM_Base_Start                       0x08004a6d   Thumb Code    72  stm32f3xx_hal_tim.o(i.HAL_TIM_Base_Start)
    HAL_TIM_Base_Start_IT                    0x08004ac5   Thumb Code    82  stm32f3xx_hal_tim.o(i.HAL_TIM_Base_Start_IT)
    HAL_TIM_Base_Stop_IT                     0x08004b29   Thumb Code    48  stm32f3xx_hal_tim.o(i.HAL_TIM_Base_Stop_IT)
    HAL_TIM_ConfigClockSource                0x08004b59   Thumb Code   220  stm32f3xx_hal_tim.o(i.HAL_TIM_ConfigClockSource)
    HAL_TIM_IC_CaptureCallback               0x08004c39   Thumb Code     2  stm32f3xx_hal_tim.o(i.HAL_TIM_IC_CaptureCallback)
    HAL_TIM_IRQHandler                       0x08004c3b   Thumb Code   388  stm32f3xx_hal_tim.o(i.HAL_TIM_IRQHandler)
    HAL_TIM_MspPostInit                      0x08004dc1   Thumb Code    68  tim_1.o(i.HAL_TIM_MspPostInit)
    HAL_TIM_OC_DelayElapsedCallback          0x08004e09   Thumb Code     2  stm32f3xx_hal_tim.o(i.HAL_TIM_OC_DelayElapsedCallback)
    HAL_TIM_PWM_ConfigChannel                0x08004e0b   Thumb Code   292  stm32f3xx_hal_tim.o(i.HAL_TIM_PWM_ConfigChannel)
    HAL_TIM_PWM_Init                         0x08004f2f   Thumb Code    98  stm32f3xx_hal_tim.o(i.HAL_TIM_PWM_Init)
    HAL_TIM_PWM_MspInit                      0x08004f91   Thumb Code     2  stm32f3xx_hal_tim.o(i.HAL_TIM_PWM_MspInit)
    HAL_TIM_PWM_PulseFinishedCallback        0x08004f93   Thumb Code     2  stm32f3xx_hal_tim.o(i.HAL_TIM_PWM_PulseFinishedCallback)
    HAL_TIM_PWM_Start                        0x08004f95   Thumb Code   202  stm32f3xx_hal_tim.o(i.HAL_TIM_PWM_Start)
    HAL_TIM_PeriodElapsedCallback            0x08005079   Thumb Code    12  power_loop.o(i.HAL_TIM_PeriodElapsedCallback)
    HAL_TIM_TriggerCallback                  0x08005089   Thumb Code     2  stm32f3xx_hal_tim.o(i.HAL_TIM_TriggerCallback)
    HAL_UARTEx_RxEventCallback               0x0800508b   Thumb Code     2  stm32f3xx_hal_uart.o(i.HAL_UARTEx_RxEventCallback)
    HAL_UARTEx_WakeupCallback                0x0800508d   Thumb Code     2  stm32f3xx_hal_uart_ex.o(i.HAL_UARTEx_WakeupCallback)
    HAL_UART_ErrorCallback                   0x0800508f   Thumb Code     2  stm32f3xx_hal_uart.o(i.HAL_UART_ErrorCallback)
    HAL_UART_IRQHandler                      0x08005091   Thumb Code   686  stm32f3xx_hal_uart.o(i.HAL_UART_IRQHandler)
    HAL_UART_Init                            0x08005349   Thumb Code   102  stm32f3xx_hal_uart.o(i.HAL_UART_Init)
    HAL_UART_MspInit                         0x080053b1   Thumb Code   152  usart_1.o(i.HAL_UART_MspInit)
    HAL_UART_Transmit_DMA                    0x08005459   Thumb Code   126  stm32f3xx_hal_uart.o(i.HAL_UART_Transmit_DMA)
    HAL_UART_TxCpltCallback                  0x080054e5   Thumb Code     2  stm32f3xx_hal_uart.o(i.HAL_UART_TxCpltCallback)
    HAL_UART_TxHalfCpltCallback              0x080054e7   Thumb Code     2  stm32f3xx_hal_uart.o(i.HAL_UART_TxHalfCpltCallback)
    HRTIM1_Master_IRQHandler                 0x080054e9   Thumb Code     8  stm32f3xx_it_1.o(i.HRTIM1_Master_IRQHandler)
    HardFault_Handler                        0x08005a47   Thumb Code     2  stm32f3xx_it_1.o(i.HardFault_Handler)
    MX_ADC1_Init                             0x08005a49   Thumb Code   158  adc_1.o(i.MX_ADC1_Init)
    MX_ADC2_Init                             0x08005aed   Thumb Code   156  adc_1.o(i.MX_ADC2_Init)
    MX_CAN_Init                              0x08005b91   Thumb Code    60  can_1.o(i.MX_CAN_Init)
    MX_DMA_Init                              0x08005bd5   Thumb Code    72  dma_1.o(i.MX_DMA_Init)
    MX_GPIO_Init                             0x08005c21   Thumb Code   116  gpio_1.o(i.MX_GPIO_Init)
    MX_HRTIM1_Init                           0x08005c9d   Thumb Code   556  hrtim_1.o(i.MX_HRTIM1_Init)
    MX_TIM2_Init                             0x08005ed1   Thumb Code   206  tim_1.o(i.MX_TIM2_Init)
    MX_TIM6_Init                             0x08005fa5   Thumb Code    64  tim_1.o(i.MX_TIM6_Init)
    MX_USART2_UART_Init                      0x08005fed   Thumb Code    52  usart_1.o(i.MX_USART2_UART_Init)
    MemManage_Handler                        0x08006029   Thumb Code     2  stm32f3xx_it_1.o(i.MemManage_Handler)
    NMI_Handler                              0x0800602b   Thumb Code     2  stm32f3xx_it_1.o(i.NMI_Handler)
    PID_calc                                 0x0800602d   Thumb Code   292  pid.o(i.PID_calc)
    PID_init                                 0x08006155   Thumb Code    74  pid.o(i.PID_init)
    PendSV_Handler                           0x080061a5   Thumb Code     2  stm32f3xx_it_1.o(i.PendSV_Handler)
    SVC_Handler                              0x08006379   Thumb Code     2  stm32f3xx_it_1.o(i.SVC_Handler)
    SysTick_Handler                          0x08006799   Thumb Code     4  stm32f3xx_it_1.o(i.SysTick_Handler)
    SystemClock_Config                       0x0800679d   Thumb Code   130  main_1.o(i.SystemClock_Config)
    SystemInit                               0x08006821   Thumb Code    12  system_stm32f3xx.o(i.SystemInit)
    TIM6_DAC1_IRQHandler                     0x08006831   Thumb Code     6  stm32f3xx_it_1.o(i.TIM6_DAC1_IRQHandler)
    TIM_Base_SetConfig                       0x0800683d   Thumb Code   114  stm32f3xx_hal_tim.o(i.TIM_Base_SetConfig)
    TIM_CCxChannelCmd                        0x080068c5   Thumb Code    26  stm32f3xx_hal_tim.o(i.TIM_CCxChannelCmd)
    TIM_ETR_SetConfig                        0x080068df   Thumb Code    20  stm32f3xx_hal_tim.o(i.TIM_ETR_SetConfig)
    TIM_OC2_SetConfig                        0x0800698d   Thumb Code   108  stm32f3xx_hal_tim.o(i.TIM_OC2_SetConfig)
    UART_AdvFeatureConfig                    0x08006c0b   Thumb Code   200  stm32f3xx_hal_uart.o(i.UART_AdvFeatureConfig)
    UART_CheckIdleState                      0x08006cd3   Thumb Code   168  stm32f3xx_hal_uart.o(i.UART_CheckIdleState)
    UART_SetConfig                           0x08006e8d   Thumb Code   296  stm32f3xx_hal_uart.o(i.UART_SetConfig)
    UART_WaitOnFlagUntilTimeout              0x08006fcd   Thumb Code   140  stm32f3xx_hal_uart.o(i.UART_WaitOnFlagUntilTimeout)
    USART2_IRQHandler                        0x08007059   Thumb Code     6  stm32f3xx_it_1.o(i.USART2_IRQHandler)
    Update_LED_PWM                           0x08007065   Thumb Code    50  bsp_tim.o(i.Update_LED_PWM)
    UsageFault_Handler                       0x0800709d   Thumb Code     2  stm32f3xx_it_1.o(i.UsageFault_Handler)
    Window_Filter_Calc                       0x080070a1   Thumb Code    62  filter.o(i.Window_Filter_Calc)
    Window_Filter_Init                       0x080070df   Thumb Code    26  filter.o(i.Window_Filter_Init)
    __ARM_fpclassify                         0x080070f9   Thumb Code    48  fpclassify.o(i.__ARM_fpclassify)
    __hardfp_fmaxf                           0x08007149   Thumb Code    72  fmaxf.o(i.__hardfp_fmaxf)
    __hardfp_fminf                           0x08007191   Thumb Code    72  fminf.o(i.__hardfp_fminf)
    _is_digit                                0x080071d9   Thumb Code    14  __printf_wp.o(i._is_digit)
    main                                     0x08007465   Thumb Code   330  supercap.o(i.main)
    uart_dma_printf                          0x08007601   Thumb Code    46  bsp_uart.o(i.uart_dma_printf)
    _get_lc_numeric                          0x08007639   Thumb Code    44  lc_numeric_c.o(locale$$code)
    _get_lc_ctype                            0x08007665   Thumb Code    44  lc_ctype_c.o(locale$$code)
    __fpl_dretinf                            0x08007691   Thumb Code    12  dretinf.o(x$fpl$dretinf)
    __aeabi_f2d                              0x0800769d   Thumb Code     0  f2d.o(x$fpl$f2d)
    _f2d                                     0x0800769d   Thumb Code    86  f2d.o(x$fpl$f2d)
    __fcmp4                                  0x080076f5   Thumb Code    24  fcmp4.o(x$fpl$fcmp4)
    __ARM_fcmp4                              0x0800770d   Thumb Code     0  fcmp4.o(x$fpl$fcmp4)
    _fcmp4                                   0x0800770d   Thumb Code    58  fcmp4.o(x$fpl$fcmp4)
    __fpl_fcmp_Inf                           0x08007747   Thumb Code    24  fcmpi.o(x$fpl$fcmpinf)
    __fpl_fnaninf                            0x0800775f   Thumb Code   140  fnaninf.o(x$fpl$fnaninf)
    _fp_init                                 0x080077eb   Thumb Code    10  fpinit.o(x$fpl$fpinit)
    __fplib_config_fpu_vfp                   0x080077f3   Thumb Code     0  fpinit.o(x$fpl$fpinit)
    __fplib_config_pureend_doubles           0x080077f3   Thumb Code     0  fpinit.o(x$fpl$fpinit)
    _printf_fp_dec                           0x080077f5   Thumb Code     4  printf1.o(x$fpl$printf1)
    _printf_fp_hex                           0x080077f9   Thumb Code     4  printf2.o(x$fpl$printf2)
    __I$use$fp                               0x080077fc   Number         0  usenofp.o(x$fpl$usenofp)
    AHBPrescTable                            0x0800781c   Data          16  system_stm32f3xx.o(.constdata)
    APBPrescTable                            0x0800782c   Data           8  system_stm32f3xx.o(.constdata)
    samp_parameters                          0x08007834   Data         200  supercap.o(.constdata)
    calibration_parameters                   0x080078fc   Data         200  supercap.o(.constdata)
    Region$$Table$$Base                      0x08007ac0   Number         0  anon$$obj.o(Region$$Table)
    Region$$Table$$Limit                     0x08007ae0   Number         0  anon$$obj.o(Region$$Table)
    __ctype                                  0x08007b09   Data           0  lc_ctype_c.o(locale$$data)
    uwTickFreq                               0x20000000   Data           1  stm32f3xx_hal.o(.data)
    uwTickPrio                               0x20000004   Data           4  stm32f3xx_hal.o(.data)
    uwTick                                   0x20000008   Data           4  stm32f3xx_hal.o(.data)
    SystemCoreClock                          0x20000024   Data           4  system_stm32f3xx.o(.data)
    status                                   0x20000028   Data           3  power_loop.o(.data)
    s_code                                   0x20000030   Data           4  supercap.o(.data)
    last_can_tick                            0x20000040   Data           4  supercap.o(.data)
    samp                                     0x20000050   Data         516  power_loop.o(.bss)
    control                                  0x20000254   Data         288  power_loop.o(.bss)
    hadc1                                    0x200003f4   Data          80  adc_1.o(.bss)
    hadc2                                    0x20000444   Data          80  adc_1.o(.bss)
    hdma_adc1                                0x20000494   Data          68  adc_1.o(.bss)
    hdma_adc2                                0x200004d8   Data          68  adc_1.o(.bss)
    hcan                                     0x2000051c   Data          40  can_1.o(.bss)
    hhrtim1                                  0x20000544   Data         220  hrtim_1.o(.bss)
    htim2                                    0x20000620   Data          76  tim_1.o(.bss)
    htim6                                    0x2000066c   Data          76  tim_1.o(.bss)
    huart2                                   0x200006b8   Data         136  usart_1.o(.bss)
    hdma_usart2_tx                           0x20000740   Data          68  usart_1.o(.bss)
    __libspace_start                         0x20000784   Data          96  libspace.o(.bss)
    __temporary_stack_top$libspace           0x200007e4   Data           0  libspace.o(.bss)



==============================================================================

Memory Map of the image

  Image Entry point : 0x08000189

  Load Region LR_IROM1 (Base: 0x08000000, Size: 0x00007c5c, Max: 0x00010000, ABSOLUTE)

    Execution Region ER_IROM1 (Exec base: 0x08000000, Load base: 0x08000000, Size: 0x00007c0c, Max: 0x00010000, ABSOLUTE)

    Exec Addr    Load Addr    Size         Type   Attr      Idx    E Section Name        Object

    0x08000000   0x08000000   0x00000188   Data   RO         4495    RESET               startup_stm32f334x8.o
    0x08000188   0x08000188   0x00000008   Code   RO         5511  * !!!main             c_w.l(__main.o)
    0x08000190   0x08000190   0x00000034   Code   RO         5878    !!!scatter          c_w.l(__scatter.o)
    0x080001c4   0x080001c4   0x0000001a   Code   RO         5880    !!handler_copy      c_w.l(__scatter_copy.o)
    0x080001de   0x080001de   0x00000002   PAD
    0x080001e0   0x080001e0   0x0000001c   Code   RO         5882    !!handler_zi        c_w.l(__scatter_zi.o)
    0x080001fc   0x080001fc   0x00000000   Code   RO         5617    .ARM.Collect$$_printf_percent$$00000000  c_w.l(_printf_percent.o)
    0x080001fc   0x080001fc   0x00000006   Code   RO         5606    .ARM.Collect$$_printf_percent$$00000001  c_w.l(_printf_n.o)
    0x08000202   0x08000202   0x00000006   Code   RO         5608    .ARM.Collect$$_printf_percent$$00000002  c_w.l(_printf_p.o)
    0x08000208   0x08000208   0x00000006   Code   RO         5613    .ARM.Collect$$_printf_percent$$00000003  c_w.l(_printf_f.o)
    0x0800020e   0x0800020e   0x00000006   Code   RO         5614    .ARM.Collect$$_printf_percent$$00000004  c_w.l(_printf_e.o)
    0x08000214   0x08000214   0x00000006   Code   RO         5615    .ARM.Collect$$_printf_percent$$00000005  c_w.l(_printf_g.o)
    0x0800021a   0x0800021a   0x00000006   Code   RO         5616    .ARM.Collect$$_printf_percent$$00000006  c_w.l(_printf_a.o)
    0x08000220   0x08000220   0x0000000a   Code   RO         5621    .ARM.Collect$$_printf_percent$$00000007  c_w.l(_printf_ll.o)
    0x0800022a   0x0800022a   0x00000006   Code   RO         5610    .ARM.Collect$$_printf_percent$$00000008  c_w.l(_printf_i.o)
    0x08000230   0x08000230   0x00000006   Code   RO         5611    .ARM.Collect$$_printf_percent$$00000009  c_w.l(_printf_d.o)
    0x08000236   0x08000236   0x00000006   Code   RO         5612    .ARM.Collect$$_printf_percent$$0000000A  c_w.l(_printf_u.o)
    0x0800023c   0x0800023c   0x00000006   Code   RO         5609    .ARM.Collect$$_printf_percent$$0000000B  c_w.l(_printf_o.o)
    0x08000242   0x08000242   0x00000006   Code   RO         5607    .ARM.Collect$$_printf_percent$$0000000C  c_w.l(_printf_x.o)
    0x08000248   0x08000248   0x00000006   Code   RO         5618    .ARM.Collect$$_printf_percent$$0000000D  c_w.l(_printf_lli.o)
    0x0800024e   0x0800024e   0x00000006   Code   RO         5619    .ARM.Collect$$_printf_percent$$0000000E  c_w.l(_printf_lld.o)
    0x08000254   0x08000254   0x00000006   Code   RO         5620    .ARM.Collect$$_printf_percent$$0000000F  c_w.l(_printf_llu.o)
    0x0800025a   0x0800025a   0x00000006   Code   RO         5625    .ARM.Collect$$_printf_percent$$00000010  c_w.l(_printf_llo.o)
    0x08000260   0x08000260   0x00000006   Code   RO         5626    .ARM.Collect$$_printf_percent$$00000011  c_w.l(_printf_llx.o)
    0x08000266   0x08000266   0x0000000a   Code   RO         5622    .ARM.Collect$$_printf_percent$$00000012  c_w.l(_printf_l.o)
    0x08000270   0x08000270   0x00000006   Code   RO         5604    .ARM.Collect$$_printf_percent$$00000013  c_w.l(_printf_c.o)
    0x08000276   0x08000276   0x00000006   Code   RO         5605    .ARM.Collect$$_printf_percent$$00000014  c_w.l(_printf_s.o)
    0x0800027c   0x0800027c   0x00000006   Code   RO         5623    .ARM.Collect$$_printf_percent$$00000015  c_w.l(_printf_lc.o)
    0x08000282   0x08000282   0x00000006   Code   RO         5624    .ARM.Collect$$_printf_percent$$00000016  c_w.l(_printf_ls.o)
    0x08000288   0x08000288   0x00000004   Code   RO         5678    .ARM.Collect$$_printf_percent$$00000017  c_w.l(_printf_percent_end.o)
    0x0800028c   0x0800028c   0x00000002   Code   RO         5737    .ARM.Collect$$libinit$$00000000  c_w.l(libinit.o)
    0x0800028e   0x0800028e   0x00000004   Code   RO         5758    .ARM.Collect$$libinit$$00000001  c_w.l(libinit2.o)
    0x08000292   0x08000292   0x00000000   Code   RO         5761    .ARM.Collect$$libinit$$00000004  c_w.l(libinit2.o)
    0x08000292   0x08000292   0x00000000   Code   RO         5764    .ARM.Collect$$libinit$$0000000A  c_w.l(libinit2.o)
    0x08000292   0x08000292   0x00000000   Code   RO         5766    .ARM.Collect$$libinit$$0000000C  c_w.l(libinit2.o)
    0x08000292   0x08000292   0x00000000   Code   RO         5768    .ARM.Collect$$libinit$$0000000E  c_w.l(libinit2.o)
    0x08000292   0x08000292   0x00000006   Code   RO         5769    .ARM.Collect$$libinit$$0000000F  c_w.l(libinit2.o)
    0x08000298   0x08000298   0x00000000   Code   RO         5771    .ARM.Collect$$libinit$$00000011  c_w.l(libinit2.o)
    0x08000298   0x08000298   0x0000000c   Code   RO         5772    .ARM.Collect$$libinit$$00000012  c_w.l(libinit2.o)
    0x080002a4   0x080002a4   0x00000000   Code   RO         5773    .ARM.Collect$$libinit$$00000013  c_w.l(libinit2.o)
    0x080002a4   0x080002a4   0x00000000   Code   RO         5775    .ARM.Collect$$libinit$$00000015  c_w.l(libinit2.o)
    0x080002a4   0x080002a4   0x0000000a   Code   RO         5776    .ARM.Collect$$libinit$$00000016  c_w.l(libinit2.o)
    0x080002ae   0x080002ae   0x00000000   Code   RO         5777    .ARM.Collect$$libinit$$00000017  c_w.l(libinit2.o)
    0x080002ae   0x080002ae   0x00000000   Code   RO         5779    .ARM.Collect$$libinit$$00000019  c_w.l(libinit2.o)
    0x080002ae   0x080002ae   0x00000000   Code   RO         5781    .ARM.Collect$$libinit$$0000001B  c_w.l(libinit2.o)
    0x080002ae   0x080002ae   0x00000000   Code   RO         5783    .ARM.Collect$$libinit$$0000001D  c_w.l(libinit2.o)
    0x080002ae   0x080002ae   0x00000000   Code   RO         5785    .ARM.Collect$$libinit$$0000001F  c_w.l(libinit2.o)
    0x080002ae   0x080002ae   0x00000000   Code   RO         5787    .ARM.Collect$$libinit$$00000021  c_w.l(libinit2.o)
    0x080002ae   0x080002ae   0x00000000   Code   RO         5789    .ARM.Collect$$libinit$$00000023  c_w.l(libinit2.o)
    0x080002ae   0x080002ae   0x00000000   Code   RO         5791    .ARM.Collect$$libinit$$00000025  c_w.l(libinit2.o)
    0x080002ae   0x080002ae   0x00000000   Code   RO         5795    .ARM.Collect$$libinit$$0000002C  c_w.l(libinit2.o)
    0x080002ae   0x080002ae   0x00000000   Code   RO         5797    .ARM.Collect$$libinit$$0000002E  c_w.l(libinit2.o)
    0x080002ae   0x080002ae   0x00000000   Code   RO         5799    .ARM.Collect$$libinit$$00000030  c_w.l(libinit2.o)
    0x080002ae   0x080002ae   0x00000000   Code   RO         5801    .ARM.Collect$$libinit$$00000032  c_w.l(libinit2.o)
    0x080002ae   0x080002ae   0x00000002   Code   RO         5802    .ARM.Collect$$libinit$$00000033  c_w.l(libinit2.o)
    0x080002b0   0x080002b0   0x00000002   Code   RO         5833    .ARM.Collect$$libshutdown$$00000000  c_w.l(libshutdown.o)
    0x080002b2   0x080002b2   0x00000000   Code   RO         5859    .ARM.Collect$$libshutdown$$00000002  c_w.l(libshutdown2.o)
    0x080002b2   0x080002b2   0x00000000   Code   RO         5861    .ARM.Collect$$libshutdown$$00000004  c_w.l(libshutdown2.o)
    0x080002b2   0x080002b2   0x00000000   Code   RO         5863    .ARM.Collect$$libshutdown$$00000006  c_w.l(libshutdown2.o)
    0x080002b2   0x080002b2   0x00000000   Code   RO         5866    .ARM.Collect$$libshutdown$$00000009  c_w.l(libshutdown2.o)
    0x080002b2   0x080002b2   0x00000000   Code   RO         5869    .ARM.Collect$$libshutdown$$0000000C  c_w.l(libshutdown2.o)
    0x080002b2   0x080002b2   0x00000000   Code   RO         5871    .ARM.Collect$$libshutdown$$0000000E  c_w.l(libshutdown2.o)
    0x080002b2   0x080002b2   0x00000000   Code   RO         5874    .ARM.Collect$$libshutdown$$00000011  c_w.l(libshutdown2.o)
    0x080002b2   0x080002b2   0x00000002   Code   RO         5875    .ARM.Collect$$libshutdown$$00000012  c_w.l(libshutdown2.o)
    0x080002b4   0x080002b4   0x00000000   Code   RO         5531    .ARM.Collect$$rtentry$$00000000  c_w.l(__rtentry.o)
    0x080002b4   0x080002b4   0x00000000   Code   RO         5647    .ARM.Collect$$rtentry$$00000002  c_w.l(__rtentry2.o)
    0x080002b4   0x080002b4   0x00000006   Code   RO         5659    .ARM.Collect$$rtentry$$00000004  c_w.l(__rtentry4.o)
    0x080002ba   0x080002ba   0x00000000   Code   RO         5649    .ARM.Collect$$rtentry$$00000009  c_w.l(__rtentry2.o)
    0x080002ba   0x080002ba   0x00000004   Code   RO         5650    .ARM.Collect$$rtentry$$0000000A  c_w.l(__rtentry2.o)
    0x080002be   0x080002be   0x00000000   Code   RO         5652    .ARM.Collect$$rtentry$$0000000C  c_w.l(__rtentry2.o)
    0x080002be   0x080002be   0x00000008   Code   RO         5653    .ARM.Collect$$rtentry$$0000000D  c_w.l(__rtentry2.o)
    0x080002c6   0x080002c6   0x00000002   Code   RO         5745    .ARM.Collect$$rtexit$$00000000  c_w.l(rtexit.o)
    0x080002c8   0x080002c8   0x00000000   Code   RO         5806    .ARM.Collect$$rtexit$$00000002  c_w.l(rtexit2.o)
    0x080002c8   0x080002c8   0x00000004   Code   RO         5807    .ARM.Collect$$rtexit$$00000003  c_w.l(rtexit2.o)
    0x080002cc   0x080002cc   0x00000006   Code   RO         5808    .ARM.Collect$$rtexit$$00000004  c_w.l(rtexit2.o)
    0x080002d2   0x080002d2   0x00000002   PAD
    0x080002d4   0x080002d4   0x00000040   Code   RO         4496    .text               startup_stm32f334x8.o
    0x08000314   0x08000314   0x000000ee   Code   RO         5499    .text               c_w.l(lludivv7m.o)
    0x08000402   0x08000402   0x00000002   PAD
    0x08000404   0x08000404   0x00000024   Code   RO         5503    .text               c_w.l(vsprintf.o)
    0x08000428   0x08000428   0x0000004e   Code   RO         5507    .text               c_w.l(rt_memclr_w.o)
    0x08000476   0x08000476   0x00000006   Code   RO         5509    .text               c_w.l(heapauxi.o)
    0x0800047c   0x0800047c   0x0000004e   Code   RO         5538    .text               c_w.l(_printf_pad.o)
    0x080004ca   0x080004ca   0x00000024   Code   RO         5540    .text               c_w.l(_printf_truncate.o)
    0x080004ee   0x080004ee   0x00000052   Code   RO         5542    .text               c_w.l(_printf_str.o)
    0x08000540   0x08000540   0x00000078   Code   RO         5544    .text               c_w.l(_printf_dec.o)
    0x080005b8   0x080005b8   0x00000028   Code   RO         5546    .text               c_w.l(_printf_charcount.o)
    0x080005e0   0x080005e0   0x00000030   Code   RO         5548    .text               c_w.l(_printf_char_common.o)
    0x08000610   0x08000610   0x0000000a   Code   RO         5550    .text               c_w.l(_sputc.o)
    0x0800061a   0x0800061a   0x00000002   PAD
    0x0800061c   0x0800061c   0x000000bc   Code   RO         5552    .text               c_w.l(_printf_wctomb.o)
    0x080006d8   0x080006d8   0x0000007c   Code   RO         5555    .text               c_w.l(_printf_longlong_dec.o)
    0x08000754   0x08000754   0x00000070   Code   RO         5561    .text               c_w.l(_printf_oct_int_ll.o)
    0x080007c4   0x080007c4   0x00000094   Code   RO         5581    .text               c_w.l(_printf_hex_int_ll_ptr.o)
    0x08000858   0x08000858   0x00000188   Code   RO         5601    .text               c_w.l(__printf_flags_ss_wp.o)
    0x080009e0   0x080009e0   0x0000008a   Code   RO         5663    .text               c_w.l(lludiv10.o)
    0x08000a6a   0x08000a6a   0x000000b2   Code   RO         5665    .text               c_w.l(_printf_intcommon.o)
    0x08000b1c   0x08000b1c   0x0000041e   Code   RO         5667    .text               c_w.l(_printf_fp_dec.o)
    0x08000f3a   0x08000f3a   0x00000002   PAD
    0x08000f3c   0x08000f3c   0x000002fc   Code   RO         5669    .text               c_w.l(_printf_fp_hex.o)
    0x08001238   0x08001238   0x0000002c   Code   RO         5674    .text               c_w.l(_printf_char.o)
    0x08001264   0x08001264   0x0000002c   Code   RO         5676    .text               c_w.l(_printf_wchar.o)
    0x08001290   0x08001290   0x00000040   Code   RO         5679    .text               c_w.l(_wcrtomb.o)
    0x080012d0   0x080012d0   0x0000004a   Code   RO         5687    .text               c_w.l(sys_stackheap_outer.o)
    0x0800131a   0x0800131a   0x00000002   PAD
    0x0800131c   0x0800131c   0x00000010   Code   RO         5689    .text               c_w.l(rt_ctype_table.o)
    0x0800132c   0x0800132c   0x00000008   Code   RO         5694    .text               c_w.l(rt_locale_intlibspace.o)
    0x08001334   0x08001334   0x00000080   Code   RO         5696    .text               c_w.l(_printf_fp_infnan.o)
    0x080013b4   0x080013b4   0x000000e4   Code   RO         5698    .text               c_w.l(bigflt0.o)
    0x08001498   0x08001498   0x00000012   Code   RO         5726    .text               c_w.l(exit.o)
    0x080014aa   0x080014aa   0x00000002   PAD
    0x080014ac   0x080014ac   0x00000008   Code   RO         5742    .text               c_w.l(libspace.o)
    0x080014b4   0x080014b4   0x00000080   Code   RO         5756    .text               c_w.l(strcmpv7m.o)
    0x08001534   0x08001534   0x0000000c   Code   RO         5803    .text               c_w.l(sys_exit.o)
    0x08001540   0x08001540   0x00000002   Code   RO         5822    .text               c_w.l(use_no_semi.o)
    0x08001542   0x08001542   0x00000000   Code   RO         5824    .text               c_w.l(indicate_semi.o)
    0x08001542   0x08001542   0x0000003e   Code   RO         5701    CL$$btod_d2e        c_w.l(btod.o)
    0x08001580   0x08001580   0x00000046   Code   RO         5703    CL$$btod_d2e_denorm_low  c_w.l(btod.o)
    0x080015c6   0x080015c6   0x00000060   Code   RO         5702    CL$$btod_d2e_norm_op1  c_w.l(btod.o)
    0x08001626   0x08001626   0x00000338   Code   RO         5711    CL$$btod_div_common  c_w.l(btod.o)
    0x0800195e   0x0800195e   0x000000dc   Code   RO         5708    CL$$btod_e2e        c_w.l(btod.o)
    0x08001a3a   0x08001a3a   0x0000002a   Code   RO         5705    CL$$btod_ediv       c_w.l(btod.o)
    0x08001a64   0x08001a64   0x0000002a   Code   RO         5704    CL$$btod_emul       c_w.l(btod.o)
    0x08001a8e   0x08001a8e   0x00000244   Code   RO         5710    CL$$btod_mult_common  c_w.l(btod.o)
    0x08001cd2   0x08001cd2   0x00000044   Code   RO          266    i.ADC_DMAConvCplt   stm32f3xx_hal_adc_ex.o
    0x08001d16   0x08001d16   0x00000016   Code   RO          267    i.ADC_DMAError      stm32f3xx_hal_adc_ex.o
    0x08001d2c   0x08001d2c   0x00000006   Code   RO          268    i.ADC_DMAHalfConvCplt  stm32f3xx_hal_adc_ex.o
    0x08001d32   0x08001d32   0x00000002   PAD
    0x08001d34   0x08001d34   0x0000006a   Code   RO          269    i.ADC_Disable       stm32f3xx_hal_adc_ex.o
    0x08001d9e   0x08001d9e   0x00000002   PAD
    0x08001da0   0x08001da0   0x0000006c   Code   RO          270    i.ADC_Enable        stm32f3xx_hal_adc_ex.o
    0x08001e0c   0x08001e0c   0x0000002e   Code   RO         4538    i.ADC_Linear_calibration_init  adc_to_elec.o
    0x08001e3a   0x08001e3a   0x00000030   Code   RO         4539    i.ADC_Value_To_Elec  adc_to_elec.o
    0x08001e6a   0x08001e6a   0x00000002   PAD
    0x08001e6c   0x08001e6c   0x0000002c   Code   RO         4820    i.BSP_ADC_Init      bsp_adc.o
    0x08001e98   0x08001e98   0x00000004   Code   RO         4821    i.BSP_ADC_Start_DMA  bsp_adc.o
    0x08001e9c   0x08001e9c   0x00000004   Code   RO         4822    i.BSP_ADC_Start_Injected  bsp_adc.o
    0x08001ea0   0x08001ea0   0x0000003c   Code   RO         4859    i.BSP_CAN_Init      bsp_can.o
    0x08001edc   0x08001edc   0x00000004   Code   RO         4886    i.BSP_GPIO_Init     bsp_gpio.o
    0x08001ee0   0x08001ee0   0x0000000c   Code   RO         4913    i.BSP_HRTIM_Disable_PWM  bsp_hrtim.o
    0x08001eec   0x08001eec   0x0000000c   Code   RO         4914    i.BSP_HRTIM_Enable_PWM  bsp_hrtim.o
    0x08001ef8   0x08001ef8   0x00000024   Code   RO         4915    i.BSP_HRTIM_Init    bsp_hrtim.o
    0x08001f1c   0x08001f1c   0x0000001c   Code   RO         4916    i.BSP_HRTIM_Update_PWM  bsp_hrtim.o
    0x08001f38   0x08001f38   0x00000044   Code   RO         4958    i.BSP_TIM_Init      bsp_tim.o
    0x08001f7c   0x08001f7c   0x0000000c   Code   RO         4959    i.BSP_TIM_Start_Loop_Timer  bsp_tim.o
    0x08001f88   0x08001f88   0x0000000c   Code   RO         4960    i.BSP_TIM_Stop_Loop_Timer  bsp_tim.o
    0x08001f94   0x08001f94   0x00000004   Code   RO         5003    i.BSP_UART_Init     bsp_uart.o
    0x08001f98   0x08001f98   0x00000002   Code   RO         5358    i.BusFault_Handler  stm32f3xx_it_1.o
    0x08001f9a   0x08001f9a   0x00000002   PAD
    0x08001f9c   0x08001f9c   0x0000000c   Code   RO         5359    i.CAN_RX0_IRQHandler  stm32f3xx_it_1.o
    0x08001fa8   0x08001fa8   0x000000fc   Code   RO         4699    i.CAN_Send          supercap.o
    0x080020a4   0x080020a4   0x000000a8   Code   RO         4700    i.Calc_CAP_Remain_And_Current  supercap.o
    0x0800214c   0x0800214c   0x0000000c   Code   RO         5360    i.DMA1_Channel1_IRQHandler  stm32f3xx_it_1.o
    0x08002158   0x08002158   0x0000000c   Code   RO         5361    i.DMA1_Channel2_IRQHandler  stm32f3xx_it_1.o
    0x08002164   0x08002164   0x0000000c   Code   RO         5362    i.DMA1_Channel7_IRQHandler  stm32f3xx_it_1.o
    0x08002170   0x08002170   0x00000020   Code   RO          915    i.DMA_CalcBaseAndBitshift  stm32f3xx_hal_dma.o
    0x08002190   0x08002190   0x0000002a   Code   RO          916    i.DMA_SetConfig     stm32f3xx_hal_dma.o
    0x080021ba   0x080021ba   0x00000002   Code   RO         5363    i.DebugMon_Handler  stm32f3xx_it_1.o
    0x080021bc   0x080021bc   0x00000004   Code   RO         5045    i.Error_Handler     main_1.o
    0x080021c0   0x080021c0   0x0000009e   Code   RO          273    i.HAL_ADCEx_Calibration_Start  stm32f3xx_hal_adc_ex.o
    0x0800225e   0x0800225e   0x000000e0   Code   RO          280    i.HAL_ADCEx_InjectedStart_IT  stm32f3xx_hal_adc_ex.o
    0x0800233e   0x0800233e   0x00000002   PAD
    0x08002340   0x08002340   0x000000e0   Code   RO          285    i.HAL_ADCEx_MultiModeConfigChannel  stm32f3xx_hal_adc_ex.o
    0x08002420   0x08002420   0x00000350   Code   RO          294    i.HAL_ADC_ConfigChannel  stm32f3xx_hal_adc_ex.o
    0x08002770   0x08002770   0x00000002   Code   RO            6    i.HAL_ADC_ConvCpltCallback  stm32f3xx_hal_adc.o
    0x08002772   0x08002772   0x00000002   Code   RO            7    i.HAL_ADC_ConvHalfCpltCallback  stm32f3xx_hal_adc.o
    0x08002774   0x08002774   0x00000002   Code   RO            9    i.HAL_ADC_ErrorCallback  stm32f3xx_hal_adc.o
    0x08002776   0x08002776   0x00000004   Code   RO           11    i.HAL_ADC_GetState  stm32f3xx_hal_adc.o
    0x0800277a   0x0800277a   0x00000002   PAD
    0x0800277c   0x0800277c   0x000001e4   Code   RO          298    i.HAL_ADC_Init      stm32f3xx_hal_adc_ex.o
    0x08002960   0x08002960   0x00000138   Code   RO         5100    i.HAL_ADC_MspInit   adc_1.o
    0x08002a98   0x08002a98   0x00000108   Code   RO          302    i.HAL_ADC_Start_DMA  stm32f3xx_hal_adc_ex.o
    0x08002ba0   0x08002ba0   0x00000024   Code   RO         2057    i.HAL_CAN_ActivateNotification  stm32f3xx_hal_can.o
    0x08002bc4   0x08002bc4   0x000000d0   Code   RO         2058    i.HAL_CAN_AddTxMessage  stm32f3xx_hal_can.o
    0x08002c94   0x08002c94   0x000000ee   Code   RO         2059    i.HAL_CAN_ConfigFilter  stm32f3xx_hal_can.o
    0x08002d82   0x08002d82   0x00000002   Code   RO         2062    i.HAL_CAN_ErrorCallback  stm32f3xx_hal_can.o
    0x08002d84   0x08002d84   0x000000f4   Code   RO         2065    i.HAL_CAN_GetRxMessage  stm32f3xx_hal_can.o
    0x08002e78   0x08002e78   0x000001fc   Code   RO         2069    i.HAL_CAN_IRQHandler  stm32f3xx_hal_can.o
    0x08003074   0x08003074   0x0000011a   Code   RO         2070    i.HAL_CAN_Init      stm32f3xx_hal_can.o
    0x0800318e   0x0800318e   0x00000002   PAD
    0x08003190   0x08003190   0x00000074   Code   RO         5149    i.HAL_CAN_MspInit   can_1.o
    0x08003204   0x08003204   0x00000002   Code   RO         2077    i.HAL_CAN_RxFifo0FullCallback  stm32f3xx_hal_can.o
    0x08003206   0x08003206   0x00000002   PAD
    0x08003208   0x08003208   0x00000074   Code   RO         4702    i.HAL_CAN_RxFifo0MsgPendingCallback  supercap.o
    0x0800327c   0x0800327c   0x00000002   Code   RO         2079    i.HAL_CAN_RxFifo1FullCallback  stm32f3xx_hal_can.o
    0x0800327e   0x0800327e   0x00000002   Code   RO         2080    i.HAL_CAN_RxFifo1MsgPendingCallback  stm32f3xx_hal_can.o
    0x08003280   0x08003280   0x00000002   Code   RO         2081    i.HAL_CAN_SleepCallback  stm32f3xx_hal_can.o
    0x08003282   0x08003282   0x00000002   PAD
    0x08003284   0x08003284   0x00000058   Code   RO         2082    i.HAL_CAN_Start     stm32f3xx_hal_can.o
    0x080032dc   0x080032dc   0x00000002   Code   RO         2084    i.HAL_CAN_TxMailbox0AbortCallback  stm32f3xx_hal_can.o
    0x080032de   0x080032de   0x00000002   Code   RO         2085    i.HAL_CAN_TxMailbox0CompleteCallback  stm32f3xx_hal_can.o
    0x080032e0   0x080032e0   0x00000002   Code   RO         2086    i.HAL_CAN_TxMailbox1AbortCallback  stm32f3xx_hal_can.o
    0x080032e2   0x080032e2   0x00000002   Code   RO         2087    i.HAL_CAN_TxMailbox1CompleteCallback  stm32f3xx_hal_can.o
    0x080032e4   0x080032e4   0x00000002   Code   RO         2088    i.HAL_CAN_TxMailbox2AbortCallback  stm32f3xx_hal_can.o
    0x080032e6   0x080032e6   0x00000002   Code   RO         2089    i.HAL_CAN_TxMailbox2CompleteCallback  stm32f3xx_hal_can.o
    0x080032e8   0x080032e8   0x00000002   Code   RO         2091    i.HAL_CAN_WakeUpFromRxMsgCallback  stm32f3xx_hal_can.o
    0x080032ea   0x080032ea   0x00000046   Code   RO          917    i.HAL_DMA_Abort     stm32f3xx_hal_dma.o
    0x08003330   0x08003330   0x0000004a   Code   RO          918    i.HAL_DMA_Abort_IT  stm32f3xx_hal_dma.o
    0x0800337a   0x0800337a   0x000000a8   Code   RO          922    i.HAL_DMA_IRQHandler  stm32f3xx_hal_dma.o
    0x08003422   0x08003422   0x0000004e   Code   RO          923    i.HAL_DMA_Init      stm32f3xx_hal_dma.o
    0x08003470   0x08003470   0x00000070   Code   RO          927    i.HAL_DMA_Start_IT  stm32f3xx_hal_dma.o
    0x080034e0   0x080034e0   0x00000024   Code   RO          536    i.HAL_Delay         stm32f3xx_hal.o
    0x08003504   0x08003504   0x00000220   Code   RO          852    i.HAL_GPIO_Init     stm32f3xx_hal_gpio.o
    0x08003724   0x08003724   0x0000000a   Code   RO          856    i.HAL_GPIO_WritePin  stm32f3xx_hal_gpio.o
    0x0800372e   0x0800372e   0x00000002   PAD
    0x08003730   0x08003730   0x0000000c   Code   RO          540    i.HAL_GetTick       stm32f3xx_hal.o
    0x0800373c   0x0800373c   0x000000be   Code   RO         2291    i.HAL_HRTIM_ADCTriggerConfig  stm32f3xx_hal_hrtim.o
    0x080037fa   0x080037fa   0x00000002   Code   RO         2297    i.HAL_HRTIM_BurstModePeriodCallback  stm32f3xx_hal_hrtim.o
    0x080037fc   0x080037fc   0x00000002   Code   RO         2299    i.HAL_HRTIM_Capture1EventCallback  stm32f3xx_hal_hrtim.o
    0x080037fe   0x080037fe   0x00000002   Code   RO         2300    i.HAL_HRTIM_Capture2EventCallback  stm32f3xx_hal_hrtim.o
    0x08003800   0x08003800   0x00000002   Code   RO         2302    i.HAL_HRTIM_Compare1EventCallback  stm32f3xx_hal_hrtim.o
    0x08003802   0x08003802   0x00000002   Code   RO         2303    i.HAL_HRTIM_Compare2EventCallback  stm32f3xx_hal_hrtim.o
    0x08003804   0x08003804   0x00000002   Code   RO         2304    i.HAL_HRTIM_Compare3EventCallback  stm32f3xx_hal_hrtim.o
    0x08003806   0x08003806   0x00000002   Code   RO         2305    i.HAL_HRTIM_Compare4EventCallback  stm32f3xx_hal_hrtim.o
    0x08003808   0x08003808   0x00000002   Code   RO         2306    i.HAL_HRTIM_CounterResetCallback  stm32f3xx_hal_hrtim.o
    0x0800380a   0x0800380a   0x00000002   Code   RO         2307    i.HAL_HRTIM_DLLCalibrationReadyCallback  stm32f3xx_hal_hrtim.o
    0x0800380c   0x0800380c   0x00000062   Code   RO         2308    i.HAL_HRTIM_DLLCalibrationStart  stm32f3xx_hal_hrtim.o
    0x0800386e   0x0800386e   0x00000002   PAD
    0x08003870   0x08003870   0x0000008c   Code   RO         2311    i.HAL_HRTIM_DeadTimeConfig  stm32f3xx_hal_hrtim.o
    0x080038fc   0x080038fc   0x00000002   Code   RO         2312    i.HAL_HRTIM_DelayedProtectionCallback  stm32f3xx_hal_hrtim.o
    0x080038fe   0x080038fe   0x00000002   Code   RO         2316    i.HAL_HRTIM_Fault1Callback  stm32f3xx_hal_hrtim.o
    0x08003900   0x08003900   0x00000002   Code   RO         2317    i.HAL_HRTIM_Fault2Callback  stm32f3xx_hal_hrtim.o
    0x08003902   0x08003902   0x00000002   Code   RO         2318    i.HAL_HRTIM_Fault3Callback  stm32f3xx_hal_hrtim.o
    0x08003904   0x08003904   0x00000002   Code   RO         2319    i.HAL_HRTIM_Fault4Callback  stm32f3xx_hal_hrtim.o
    0x08003906   0x08003906   0x00000002   Code   RO         2320    i.HAL_HRTIM_Fault5Callback  stm32f3xx_hal_hrtim.o
    0x08003908   0x08003908   0x00000014   Code   RO         2330    i.HAL_HRTIM_IRQHandler  stm32f3xx_hal_hrtim.o
    0x0800391c   0x0800391c   0x000000bc   Code   RO         2331    i.HAL_HRTIM_Init    stm32f3xx_hal_hrtim.o
    0x080039d8   0x080039d8   0x0000003c   Code   RO         5215    i.HAL_HRTIM_MspInit  hrtim_1.o
    0x08003a14   0x08003a14   0x00000054   Code   RO         5216    i.HAL_HRTIM_MspPostInit  hrtim_1.o
    0x08003a68   0x08003a68   0x00000002   Code   RO         2334    i.HAL_HRTIM_Output1ResetCallback  stm32f3xx_hal_hrtim.o
    0x08003a6a   0x08003a6a   0x00000002   Code   RO         2335    i.HAL_HRTIM_Output1SetCallback  stm32f3xx_hal_hrtim.o
    0x08003a6c   0x08003a6c   0x00000002   Code   RO         2336    i.HAL_HRTIM_Output2ResetCallback  stm32f3xx_hal_hrtim.o
    0x08003a6e   0x08003a6e   0x00000002   Code   RO         2337    i.HAL_HRTIM_Output2SetCallback  stm32f3xx_hal_hrtim.o
    0x08003a70   0x08003a70   0x00000042   Code   RO         2338    i.HAL_HRTIM_PollForDLLCalibration  stm32f3xx_hal_hrtim.o
    0x08003ab2   0x08003ab2   0x00000002   Code   RO         2339    i.HAL_HRTIM_RegistersUpdateCallback  stm32f3xx_hal_hrtim.o
    0x08003ab4   0x08003ab4   0x00000002   Code   RO         4626    i.HAL_HRTIM_RepetitionEventCallback  power_loop.o
    0x08003ab6   0x08003ab6   0x00000002   Code   RO         2376    i.HAL_HRTIM_SynchronizationEventCallback  stm32f3xx_hal_hrtim.o
    0x08003ab8   0x08003ab8   0x00000002   Code   RO         2377    i.HAL_HRTIM_SystemFaultCallback  stm32f3xx_hal_hrtim.o
    0x08003aba   0x08003aba   0x0000007a   Code   RO         2378    i.HAL_HRTIM_TimeBaseConfig  stm32f3xx_hal_hrtim.o
    0x08003b34   0x08003b34   0x00000134   Code   RO         2383    i.HAL_HRTIM_WaveformCompareConfig  stm32f3xx_hal_hrtim.o
    0x08003c68   0x08003c68   0x0000002c   Code   RO         2384    i.HAL_HRTIM_WaveformCountStart  stm32f3xx_hal_hrtim.o
    0x08003c94   0x08003c94   0x00000084   Code   RO         2386    i.HAL_HRTIM_WaveformCountStart_IT  stm32f3xx_hal_hrtim.o
    0x08003d18   0x08003d18   0x00000036   Code   RO         2392    i.HAL_HRTIM_WaveformOutputConfig  stm32f3xx_hal_hrtim.o
    0x08003d4e   0x08003d4e   0x00000030   Code   RO         2393    i.HAL_HRTIM_WaveformOutputStart  stm32f3xx_hal_hrtim.o
    0x08003d7e   0x08003d7e   0x00000030   Code   RO         2394    i.HAL_HRTIM_WaveformOutputStop  stm32f3xx_hal_hrtim.o
    0x08003dae   0x08003dae   0x000000ba   Code   RO         2396    i.HAL_HRTIM_WaveformTimerConfig  stm32f3xx_hal_hrtim.o
    0x08003e68   0x08003e68   0x00000028   Code   RO         1934    i.HAL_I2CEx_EnableFastModePlus  stm32f3xx_hal_i2c_ex.o
    0x08003e90   0x08003e90   0x00000010   Code   RO          546    i.HAL_IncTick       stm32f3xx_hal.o
    0x08003ea0   0x08003ea0   0x00000024   Code   RO          547    i.HAL_Init          stm32f3xx_hal.o
    0x08003ec4   0x08003ec4   0x00000040   Code   RO          548    i.HAL_InitTick      stm32f3xx_hal.o
    0x08003f04   0x08003f04   0x0000002c   Code   RO         5476    i.HAL_MspInit       stm32f3xx_hal_msp_1.o
    0x08003f30   0x08003f30   0x0000001a   Code   RO         1017    i.HAL_NVIC_EnableIRQ  stm32f3xx_hal_cortex.o
    0x08003f4a   0x08003f4a   0x00000002   PAD
    0x08003f4c   0x08003f4c   0x00000040   Code   RO         1023    i.HAL_NVIC_SetPriority  stm32f3xx_hal_cortex.o
    0x08003f8c   0x08003f8c   0x00000024   Code   RO         1024    i.HAL_NVIC_SetPriorityGrouping  stm32f3xx_hal_cortex.o
    0x08003fb0   0x08003fb0   0x00000188   Code   RO          809    i.HAL_RCCEx_PeriphCLKConfig  stm32f3xx_hal_rcc_ex.o
    0x08004138   0x08004138   0x00000148   Code   RO          704    i.HAL_RCC_ClockConfig  stm32f3xx_hal_rcc.o
    0x08004280   0x08004280   0x00000030   Code   RO          711    i.HAL_RCC_GetPCLK1Freq  stm32f3xx_hal_rcc.o
    0x080042b0   0x080042b0   0x00000030   Code   RO          712    i.HAL_RCC_GetPCLK2Freq  stm32f3xx_hal_rcc.o
    0x080042e0   0x080042e0   0x0000006c   Code   RO          713    i.HAL_RCC_GetSysClockFreq  stm32f3xx_hal_rcc.o
    0x0800434c   0x0800434c   0x000005c8   Code   RO          716    i.HAL_RCC_OscConfig  stm32f3xx_hal_rcc.o
    0x08004914   0x08004914   0x00000028   Code   RO         1028    i.HAL_SYSTICK_Config  stm32f3xx_hal_cortex.o
    0x0800493c   0x0800493c   0x00000002   Code   RO         3747    i.HAL_TIMEx_Break2Callback  stm32f3xx_hal_tim_ex.o
    0x0800493e   0x0800493e   0x00000002   Code   RO         3748    i.HAL_TIMEx_BreakCallback  stm32f3xx_hal_tim_ex.o
    0x08004940   0x08004940   0x00000002   Code   RO         3749    i.HAL_TIMEx_CommutCallback  stm32f3xx_hal_tim_ex.o
    0x08004942   0x08004942   0x00000002   PAD
    0x08004944   0x08004944   0x00000074   Code   RO         3768    i.HAL_TIMEx_MasterConfigSynchronization  stm32f3xx_hal_tim_ex.o
    0x080049b8   0x080049b8   0x00000062   Code   RO         3033    i.HAL_TIM_Base_Init  stm32f3xx_hal_tim.o
    0x08004a1a   0x08004a1a   0x00000002   PAD
    0x08004a1c   0x08004a1c   0x00000050   Code   RO         5263    i.HAL_TIM_Base_MspInit  tim_1.o
    0x08004a6c   0x08004a6c   0x00000058   Code   RO         3036    i.HAL_TIM_Base_Start  stm32f3xx_hal_tim.o
    0x08004ac4   0x08004ac4   0x00000064   Code   RO         3038    i.HAL_TIM_Base_Start_IT  stm32f3xx_hal_tim.o
    0x08004b28   0x08004b28   0x00000030   Code   RO         3041    i.HAL_TIM_Base_Stop_IT  stm32f3xx_hal_tim.o
    0x08004b58   0x08004b58   0x000000e0   Code   RO         3042    i.HAL_TIM_ConfigClockSource  stm32f3xx_hal_tim.o
    0x08004c38   0x08004c38   0x00000002   Code   RO         3067    i.HAL_TIM_IC_CaptureCallback  stm32f3xx_hal_tim.o
    0x08004c3a   0x08004c3a   0x00000184   Code   RO         3081    i.HAL_TIM_IRQHandler  stm32f3xx_hal_tim.o
    0x08004dbe   0x08004dbe   0x00000002   PAD
    0x08004dc0   0x08004dc0   0x00000048   Code   RO         5264    i.HAL_TIM_MspPostInit  tim_1.o
    0x08004e08   0x08004e08   0x00000002   Code   RO         3084    i.HAL_TIM_OC_DelayElapsedCallback  stm32f3xx_hal_tim.o
    0x08004e0a   0x08004e0a   0x00000124   Code   RO         3105    i.HAL_TIM_PWM_ConfigChannel  stm32f3xx_hal_tim.o
    0x08004f2e   0x08004f2e   0x00000062   Code   RO         3108    i.HAL_TIM_PWM_Init  stm32f3xx_hal_tim.o
    0x08004f90   0x08004f90   0x00000002   Code   RO         3110    i.HAL_TIM_PWM_MspInit  stm32f3xx_hal_tim.o
    0x08004f92   0x08004f92   0x00000002   Code   RO         3111    i.HAL_TIM_PWM_PulseFinishedCallback  stm32f3xx_hal_tim.o
    0x08004f94   0x08004f94   0x000000e4   Code   RO         3113    i.HAL_TIM_PWM_Start  stm32f3xx_hal_tim.o
    0x08005078   0x08005078   0x00000010   Code   RO         4627    i.HAL_TIM_PeriodElapsedCallback  power_loop.o
    0x08005088   0x08005088   0x00000002   Code   RO         3124    i.HAL_TIM_TriggerCallback  stm32f3xx_hal_tim.o
    0x0800508a   0x0800508a   0x00000002   Code   RO         4035    i.HAL_UARTEx_RxEventCallback  stm32f3xx_hal_uart.o
    0x0800508c   0x0800508c   0x00000002   Code   RO         4427    i.HAL_UARTEx_WakeupCallback  stm32f3xx_hal_uart_ex.o
    0x0800508e   0x0800508e   0x00000002   Code   RO         4051    i.HAL_UART_ErrorCallback  stm32f3xx_hal_uart.o
    0x08005090   0x08005090   0x000002b8   Code   RO         4054    i.HAL_UART_IRQHandler  stm32f3xx_hal_uart.o
    0x08005348   0x08005348   0x00000066   Code   RO         4055    i.HAL_UART_Init     stm32f3xx_hal_uart.o
    0x080053ae   0x080053ae   0x00000002   PAD
    0x080053b0   0x080053b0   0x000000a8   Code   RO         5317    i.HAL_UART_MspInit  usart_1.o
    0x08005458   0x08005458   0x0000008c   Code   RO         4065    i.HAL_UART_Transmit_DMA  stm32f3xx_hal_uart.o
    0x080054e4   0x080054e4   0x00000002   Code   RO         4067    i.HAL_UART_TxCpltCallback  stm32f3xx_hal_uart.o
    0x080054e6   0x080054e6   0x00000002   Code   RO         4068    i.HAL_UART_TxHalfCpltCallback  stm32f3xx_hal_uart.o
    0x080054e8   0x080054e8   0x0000000c   Code   RO         5364    i.HRTIM1_Master_IRQHandler  stm32f3xx_it_1.o
    0x080054f4   0x080054f4   0x0000005a   Code   RO         2403    i.HRTIM_ForceRegistersUpdate  stm32f3xx_hal_hrtim.o
    0x0800554e   0x0800554e   0x00000092   Code   RO         2407    i.HRTIM_HRTIM_ISR   stm32f3xx_hal_hrtim.o
    0x080055e0   0x080055e0   0x000000f0   Code   RO         2408    i.HRTIM_Master_ISR  stm32f3xx_hal_hrtim.o
    0x080056d0   0x080056d0   0x000000ce   Code   RO         2409    i.HRTIM_OutputConfig  stm32f3xx_hal_hrtim.o
    0x0800579e   0x0800579e   0x00000166   Code   RO         2411    i.HRTIM_Timer_ISR   stm32f3xx_hal_hrtim.o
    0x08005904   0x08005904   0x00000142   Code   RO         2412    i.HRTIM_TimingUnitWaveform_Config  stm32f3xx_hal_hrtim.o
    0x08005a46   0x08005a46   0x00000002   Code   RO         5365    i.HardFault_Handler  stm32f3xx_it_1.o
    0x08005a48   0x08005a48   0x000000a4   Code   RO         5101    i.MX_ADC1_Init      adc_1.o
    0x08005aec   0x08005aec   0x000000a4   Code   RO         5102    i.MX_ADC2_Init      adc_1.o
    0x08005b90   0x08005b90   0x00000044   Code   RO         5150    i.MX_CAN_Init       can_1.o
    0x08005bd4   0x08005bd4   0x0000004c   Code   RO         5190    i.MX_DMA_Init       dma_1.o
    0x08005c20   0x08005c20   0x0000007c   Code   RO         5075    i.MX_GPIO_Init      gpio_1.o
    0x08005c9c   0x08005c9c   0x00000234   Code   RO         5217    i.MX_HRTIM1_Init    hrtim_1.o
    0x08005ed0   0x08005ed0   0x000000d4   Code   RO         5265    i.MX_TIM2_Init      tim_1.o
    0x08005fa4   0x08005fa4   0x00000048   Code   RO         5266    i.MX_TIM6_Init      tim_1.o
    0x08005fec   0x08005fec   0x0000003c   Code   RO         5318    i.MX_USART2_UART_Init  usart_1.o
    0x08006028   0x08006028   0x00000002   Code   RO         5366    i.MemManage_Handler  stm32f3xx_it_1.o
    0x0800602a   0x0800602a   0x00000002   Code   RO         5367    i.NMI_Handler       stm32f3xx_it_1.o
    0x0800602c   0x0800602c   0x00000128   Code   RO         4596    i.PID_calc          pid.o
    0x08006154   0x08006154   0x00000050   Code   RO         4598    i.PID_init          pid.o
    0x080061a4   0x080061a4   0x00000002   Code   RO         5368    i.PendSV_Handler    stm32f3xx_it_1.o
    0x080061a6   0x080061a6   0x00000002   PAD
    0x080061a8   0x080061a8   0x00000100   Code   RO         4703    i.PowerON_Diagnose  supercap.o
    0x080062a8   0x080062a8   0x000000d0   Code   RO         4704    i.Running_Diagnose  supercap.o
    0x08006378   0x08006378   0x00000002   Code   RO         5369    i.SVC_Handler       stm32f3xx_it_1.o
    0x0800637a   0x0800637a   0x00000002   PAD
    0x0800637c   0x0800637c   0x000001c8   Code   RO         4705    i.Set_Board_Config  supercap.o
    0x08006544   0x08006544   0x00000254   Code   RO         4706    i.Show_Status       supercap.o
    0x08006798   0x08006798   0x00000004   Code   RO         5370    i.SysTick_Handler   stm32f3xx_it_1.o
    0x0800679c   0x0800679c   0x00000082   Code   RO         5046    i.SystemClock_Config  main_1.o
    0x0800681e   0x0800681e   0x00000002   PAD
    0x08006820   0x08006820   0x00000010   Code   RO         4504    i.SystemInit        system_stm32f3xx.o
    0x08006830   0x08006830   0x0000000c   Code   RO         5371    i.TIM6_DAC1_IRQHandler  stm32f3xx_it_1.o
    0x0800683c   0x0800683c   0x00000088   Code   RO         3126    i.TIM_Base_SetConfig  stm32f3xx_hal_tim.o
    0x080068c4   0x080068c4   0x0000001a   Code   RO         3127    i.TIM_CCxChannelCmd  stm32f3xx_hal_tim.o
    0x080068de   0x080068de   0x00000014   Code   RO         3137    i.TIM_ETR_SetConfig  stm32f3xx_hal_tim.o
    0x080068f2   0x080068f2   0x00000010   Code   RO         3138    i.TIM_ITRx_SetConfig  stm32f3xx_hal_tim.o
    0x08006902   0x08006902   0x00000002   PAD
    0x08006904   0x08006904   0x00000088   Code   RO         3139    i.TIM_OC1_SetConfig  stm32f3xx_hal_tim.o
    0x0800698c   0x0800698c   0x00000080   Code   RO         3140    i.TIM_OC2_SetConfig  stm32f3xx_hal_tim.o
    0x08006a0c   0x08006a0c   0x00000080   Code   RO         3141    i.TIM_OC3_SetConfig  stm32f3xx_hal_tim.o
    0x08006a8c   0x08006a8c   0x0000006c   Code   RO         3142    i.TIM_OC4_SetConfig  stm32f3xx_hal_tim.o
    0x08006af8   0x08006af8   0x00000064   Code   RO         3143    i.TIM_OC5_SetConfig  stm32f3xx_hal_tim.o
    0x08006b5c   0x08006b5c   0x00000068   Code   RO         3144    i.TIM_OC6_SetConfig  stm32f3xx_hal_tim.o
    0x08006bc4   0x08006bc4   0x00000022   Code   RO         3146    i.TIM_TI1_ConfigInputStage  stm32f3xx_hal_tim.o
    0x08006be6   0x08006be6   0x00000024   Code   RO         3148    i.TIM_TI2_ConfigInputStage  stm32f3xx_hal_tim.o
    0x08006c0a   0x08006c0a   0x000000c8   Code   RO         4069    i.UART_AdvFeatureConfig  stm32f3xx_hal_uart.o
    0x08006cd2   0x08006cd2   0x000000a8   Code   RO         4070    i.UART_CheckIdleState  stm32f3xx_hal_uart.o
    0x08006d7a   0x08006d7a   0x00000014   Code   RO         4071    i.UART_DMAAbortOnError  stm32f3xx_hal_uart.o
    0x08006d8e   0x08006d8e   0x0000004e   Code   RO         4072    i.UART_DMAError     stm32f3xx_hal_uart.o
    0x08006ddc   0x08006ddc   0x00000040   Code   RO         4077    i.UART_DMATransmitCplt  stm32f3xx_hal_uart.o
    0x08006e1c   0x08006e1c   0x0000000a   Code   RO         4079    i.UART_DMATxHalfCplt  stm32f3xx_hal_uart.o
    0x08006e26   0x08006e26   0x0000004c   Code   RO         4081    i.UART_EndRxTransfer  stm32f3xx_hal_uart.o
    0x08006e72   0x08006e72   0x00000018   Code   RO         4082    i.UART_EndTxTransfer  stm32f3xx_hal_uart.o
    0x08006e8a   0x08006e8a   0x00000002   PAD
    0x08006e8c   0x08006e8c   0x00000140   Code   RO         4085    i.UART_SetConfig    stm32f3xx_hal_uart.o
    0x08006fcc   0x08006fcc   0x0000008c   Code   RO         4090    i.UART_WaitOnFlagUntilTimeout  stm32f3xx_hal_uart.o
    0x08007058   0x08007058   0x0000000c   Code   RO         5372    i.USART2_IRQHandler  stm32f3xx_it_1.o
    0x08007064   0x08007064   0x00000038   Code   RO         4961    i.Update_LED_PWM    bsp_tim.o
    0x0800709c   0x0800709c   0x00000002   Code   RO         5373    i.UsageFault_Handler  stm32f3xx_it_1.o
    0x0800709e   0x0800709e   0x00000002   PAD
    0x080070a0   0x080070a0   0x0000003e   Code   RO         4567    i.Window_Filter_Calc  filter.o
    0x080070de   0x080070de   0x0000001a   Code   RO         4568    i.Window_Filter_Init  filter.o
    0x080070f8   0x080070f8   0x00000030   Code   RO         5740    i.__ARM_fpclassify  m_wm.l(fpclassify.o)
    0x08007128   0x08007128   0x00000020   Code   RO         1030    i.__NVIC_SetPriority  stm32f3xx_hal_cortex.o
    0x08007148   0x08007148   0x00000048   Code   RO         5523    i.__hardfp_fmaxf    m_wm.l(fmaxf.o)
    0x08007190   0x08007190   0x00000048   Code   RO         5527    i.__hardfp_fminf    m_wm.l(fminf.o)
    0x080071d8   0x080071d8   0x0000000e   Code   RO         5594    i._is_digit         c_w.l(__printf_wp.o)
    0x080071e6   0x080071e6   0x00000002   PAD
    0x080071e8   0x080071e8   0x000000dc   Code   RO         4628    i.buckboost_pwm_update  power_loop.o
    0x080072c4   0x080072c4   0x000001a0   Code   RO         4629    i.control_calc      power_loop.o
    0x08007464   0x08007464   0x0000019c   Code   RO         4707    i.main              supercap.o
    0x08007600   0x08007600   0x00000038   Code   RO         5004    i.uart_dma_printf   bsp_uart.o
    0x08007638   0x08007638   0x0000002c   Code   RO         5724    locale$$code        c_w.l(lc_numeric_c.o)
    0x08007664   0x08007664   0x0000002c   Code   RO         5750    locale$$code        c_w.l(lc_ctype_c.o)
    0x08007690   0x08007690   0x0000000c   Code   RO         5629    x$fpl$dretinf       fz_wm.l(dretinf.o)
    0x0800769c   0x0800769c   0x00000056   Code   RO         5521    x$fpl$f2d           fz_wm.l(f2d.o)
    0x080076f2   0x080076f2   0x00000002   PAD
    0x080076f4   0x080076f4   0x00000052   Code   RO         5631    x$fpl$fcmp4         fz_wm.l(fcmp4.o)
    0x08007746   0x08007746   0x00000018   Code   RO         5685    x$fpl$fcmpinf       fz_wm.l(fcmpi.o)
    0x0800775e   0x0800775e   0x0000008c   Code   RO         5635    x$fpl$fnaninf       fz_wm.l(fnaninf.o)
    0x080077ea   0x080077ea   0x0000000a   Code   RO         5818    x$fpl$fpinit        fz_wm.l(fpinit.o)
    0x080077f4   0x080077f4   0x00000004   Code   RO         5637    x$fpl$printf1       fz_wm.l(printf1.o)
    0x080077f8   0x080077f8   0x00000004   Code   RO         5639    x$fpl$printf2       fz_wm.l(printf2.o)
    0x080077fc   0x080077fc   0x00000000   Code   RO         5645    x$fpl$usenofp       fz_wm.l(usenofp.o)
    0x080077fc   0x080077fc   0x00000020   Data   RO          717    .constdata          stm32f3xx_hal_rcc.o
    0x0800781c   0x0800781c   0x00000010   Data   RO         4505    .constdata          system_stm32f3xx.o
    0x0800782c   0x0800782c   0x00000008   Data   RO         4506    .constdata          system_stm32f3xx.o
    0x08007834   0x08007834   0x00000190   Data   RO         4708    .constdata          supercap.o
    0x080079c4   0x080079c4   0x00000008   Data   RO         5553    .constdata          c_w.l(_printf_wctomb.o)
    0x080079cc   0x080079cc   0x00000028   Data   RO         5582    .constdata          c_w.l(_printf_hex_int_ll_ptr.o)
    0x080079f4   0x080079f4   0x00000011   Data   RO         5602    .constdata          c_w.l(__printf_flags_ss_wp.o)
    0x08007a05   0x08007a05   0x00000026   Data   RO         5670    .constdata          c_w.l(_printf_fp_hex.o)
    0x08007a2b   0x08007a2b   0x00000001   PAD
    0x08007a2c   0x08007a2c   0x00000094   Data   RO         5699    .constdata          c_w.l(bigflt0.o)
    0x08007ac0   0x08007ac0   0x00000020   Data   RO         5876    Region$$Table       anon$$obj.o
    0x08007ae0   0x08007ae0   0x0000001c   Data   RO         5723    locale$$data        c_w.l(lc_numeric_c.o)
    0x08007afc   0x08007afc   0x00000110   Data   RO         5749    locale$$data        c_w.l(lc_ctype_c.o)


    Execution Region RW_IRAM2 (Exec base: 0x10000000, Load base: 0x08007c5c, Size: 0x00000000, Max: 0x00001000, ABSOLUTE)

    **** No section assigned to this execution region ****


    Execution Region RW_IRAM1 (Exec base: 0x20000000, Load base: 0x08007c0c, Size: 0x00000fe8, Max: 0x00003000, ABSOLUTE)

    Exec Addr    Load Addr    Size         Type   Attr      Idx    E Section Name        Object

    0x20000000   0x08007c0c   0x0000000c   Data   RW          554    .data               stm32f3xx_hal.o
    0x2000000c   0x08007c18   0x00000018   Data   RW         2413    .data               stm32f3xx_hal_hrtim.o
    0x20000024   0x08007c30   0x00000004   Data   RW         4507    .data               system_stm32f3xx.o
    0x20000028   0x08007c34   0x00000003   Data   RW         4631    .data               power_loop.o
    0x2000002b   0x08007c37   0x00000001   PAD
    0x2000002c   0x08007c38   0x00000018   Data   RW         4709    .data               supercap.o
    0x20000044   0x08007c50   0x00000008   Data   RW         5006    .data               bsp_uart.o
    0x2000004c   0x08007c58   0x00000004   Data   RW         5104    .data               adc_1.o
    0x20000050        -       0x00000324   Zero   RW         4630    .bss                power_loop.o
    0x20000374        -       0x00000080   Zero   RW         5005    .bss                bsp_uart.o
    0x200003f4        -       0x00000128   Zero   RW         5103    .bss                adc_1.o
    0x2000051c        -       0x00000028   Zero   RW         5151    .bss                can_1.o
    0x20000544        -       0x000000dc   Zero   RW         5218    .bss                hrtim_1.o
    0x20000620        -       0x00000098   Zero   RW         5267    .bss                tim_1.o
    0x200006b8        -       0x000000cc   Zero   RW         5319    .bss                usart_1.o
    0x20000784        -       0x00000060   Zero   RW         5743    .bss                c_w.l(libspace.o)
    0x200007e4   0x08007c5c   0x00000004   PAD
    0x200007e8        -       0x00000400   Zero   RW         4494    HEAP                startup_stm32f334x8.o
    0x20000be8        -       0x00000400   Zero   RW         4493    STACK               startup_stm32f334x8.o


==============================================================================

Image component sizes


      Code (inc. data)   RO Data    RW Data    ZI Data      Debug   Object Name

       640         42          0          4        296       2766   adc_1.o
        94          0          0          0          0       2790   adc_to_elec.o
        52         10          0          0          0       1756   bsp_adc.o
        60          4          0          0          0        539   bsp_can.o
         4          0          0          0          0        432   bsp_gpio.o
        88         20          0          0          0       2011   bsp_hrtim.o
       148         22          0          0          0       1973   bsp_tim.o
        60         10          0          8        128       1938   bsp_uart.o
       184         16          0          0         40       1599   can_1.o
        76          4          0          0          0        746   dma_1.o
        88          0          0          0          0       1510   filter.o
       124          8          0          0          0        891   gpio_1.o
       708         20          0          0        220       2671   hrtim_1.o
       134          0          0          0          0       1093   main_1.o
       376         10          0          0          0       2534   pid.o
       654         42          0          3        804       6414   power_loop.o
        64         26        392          0       2048        792   startup_stm32f334x8.o
       164         28          0         12          0      15029   stm32f3xx_hal.o
        10          0          0          0          0     789981   stm32f3xx_hal_adc.o
      2512         78          0          0          0      10597   stm32f3xx_hal_adc_ex.o
      1628          0          0          0          0      13855   stm32f3xx_hal_can.o
       198         14          0          0          0      32151   stm32f3xx_hal_cortex.o
       576         10          0          0          0       5470   stm32f3xx_hal_dma.o
       554         26          0          0          0       2216   stm32f3xx_hal_gpio.o
      3050         28          0         24          0      31663   stm32f3xx_hal_hrtim.o
        40         10          0          0          0       1011   stm32f3xx_hal_i2c_ex.o
        44          4          0          0          0        818   stm32f3xx_hal_msp_1.o
      2012         76         32          0          0       5608   stm32f3xx_hal_rcc.o
       392         14          0          0          0       1432   stm32f3xx_hal_rcc_ex.o
      2546        212          0          0          0      19258   stm32f3xx_hal_tim.o
       122         12          0          0          0       2984   stm32f3xx_hal_tim_ex.o
      2046         68          0          0          0      13457   stm32f3xx_hal_uart.o
         2          0          0          0          0        972   stm32f3xx_hal_uart_ex.o
       104         40          0          0          0       7190   stm32f3xx_it_1.o
      2464        294        400         24          0       7377   supercap.o
        16          4         24          4          0       1067   system_stm32f3xx.o
       436         24          0          0        152       2989   tim_1.o
       228         24          0          0        204       1729   usart_1.o

    ----------------------------------------------------------------------
     22742       1200        880         80       3892     999309   Object Totals
         0          0         32          0          0          0   (incl. Generated)
        44          0          0          1          0          0   (incl. Padding)

    ----------------------------------------------------------------------

      Code (inc. data)   RO Data    RW Data    ZI Data      Debug   Library Member Name

         8          0          0          0          0         68   __main.o
       392          4         17          0          0         92   __printf_flags_ss_wp.o
        14          0          0          0          0         68   __printf_wp.o
         0          0          0          0          0          0   __rtentry.o
        12          0          0          0          0          0   __rtentry2.o
         6          0          0          0          0          0   __rtentry4.o
        52          8          0          0          0          0   __scatter.o
        26          0          0          0          0          0   __scatter_copy.o
        28          0          0          0          0          0   __scatter_zi.o
         6          0          0          0          0          0   _printf_a.o
         6          0          0          0          0          0   _printf_c.o
        44          0          0          0          0        108   _printf_char.o
        48          6          0          0          0         96   _printf_char_common.o
        40          0          0          0          0         68   _printf_charcount.o
         6          0          0          0          0          0   _printf_d.o
       120         16          0          0          0         92   _printf_dec.o
         6          0          0          0          0          0   _printf_e.o
         6          0          0          0          0          0   _printf_f.o
      1054          0          0          0          0        216   _printf_fp_dec.o
       764          8         38          0          0        100   _printf_fp_hex.o
       128         16          0          0          0         84   _printf_fp_infnan.o
         6          0          0          0          0          0   _printf_g.o
       148          4         40          0          0        160   _printf_hex_int_ll_ptr.o
         6          0          0          0          0          0   _printf_i.o
       178          0          0          0          0         88   _printf_intcommon.o
        10          0          0          0          0          0   _printf_l.o
         6          0          0          0          0          0   _printf_lc.o
        10          0          0          0          0          0   _printf_ll.o
         6          0          0          0          0          0   _printf_lld.o
         6          0          0          0          0          0   _printf_lli.o
         6          0          0          0          0          0   _printf_llo.o
         6          0          0          0          0          0   _printf_llu.o
         6          0          0          0          0          0   _printf_llx.o
       124         16          0          0          0         92   _printf_longlong_dec.o
         6          0          0          0          0          0   _printf_ls.o
         6          0          0          0          0          0   _printf_n.o
         6          0          0          0          0          0   _printf_o.o
       112         10          0          0          0        124   _printf_oct_int_ll.o
         6          0          0          0          0          0   _printf_p.o
        78          0          0          0          0        108   _printf_pad.o
         0          0          0          0          0          0   _printf_percent.o
         4          0          0          0          0          0   _printf_percent_end.o
         6          0          0          0          0          0   _printf_s.o
        82          0          0          0          0         80   _printf_str.o
        36          0          0          0          0         84   _printf_truncate.o
         6          0          0          0          0          0   _printf_u.o
        44          0          0          0          0        108   _printf_wchar.o
       188          6          8          0          0         92   _printf_wctomb.o
         6          0          0          0          0          0   _printf_x.o
        10          0          0          0          0         68   _sputc.o
        64          0          0          0          0         92   _wcrtomb.o
       228          4        148          0          0         96   bigflt0.o
      1936        128          0          0          0        672   btod.o
        18          0          0          0          0         80   exit.o
         6          0          0          0          0        152   heapauxi.o
         0          0          0          0          0          0   indicate_semi.o
        44         10        272          0          0         76   lc_ctype_c.o
        44         10         28          0          0         76   lc_numeric_c.o
         2          0          0          0          0          0   libinit.o
        34          0          0          0          0          0   libinit2.o
         2          0          0          0          0          0   libshutdown.o
         2          0          0          0          0          0   libshutdown2.o
         8          4          0          0         96         68   libspace.o
       138          0          0          0          0         80   lludiv10.o
       238          0          0          0          0        100   lludivv7m.o
        16          4          0          0          0         76   rt_ctype_table.o
         8          4          0          0          0         68   rt_locale_intlibspace.o
        78          0          0          0          0         80   rt_memclr_w.o
         2          0          0          0          0          0   rtexit.o
        10          0          0          0          0          0   rtexit2.o
       128          0          0          0          0         68   strcmpv7m.o
        12          4          0          0          0         68   sys_exit.o
        74          0          0          0          0         80   sys_stackheap_outer.o
         2          0          0          0          0         68   use_no_semi.o
        36          4          0          0          0         76   vsprintf.o
        12          0          0          0          0        116   dretinf.o
        86          4          0          0          0        132   f2d.o
        82          4          0          0          0        160   fcmp4.o
        24          0          0          0          0        116   fcmpi.o
       140          4          0          0          0        132   fnaninf.o
        10          0          0          0          0        116   fpinit.o
         4          0          0          0          0        116   printf1.o
         4          0          0          0          0        116   printf2.o
         0          0          0          0          0          0   usenofp.o
        72          0          0          0          0        148   fmaxf.o
        72          0          0          0          0        148   fminf.o
        48          0          0          0          0        124   fpclassify.o

    ----------------------------------------------------------------------
      7582        278        552          0        100       5496   Library Totals
        18          0          1          0          4          0   (incl. Padding)

    ----------------------------------------------------------------------

      Code (inc. data)   RO Data    RW Data    ZI Data      Debug   Library Name

      7010        266        551          0         96       4072   c_w.l
       362         12          0          0          0       1004   fz_wm.l
       192          0          0          0          0        420   m_wm.l

    ----------------------------------------------------------------------
      7582        278        552          0        100       5496   Library Totals

    ----------------------------------------------------------------------

==============================================================================


      Code (inc. data)   RO Data    RW Data    ZI Data      Debug   

     30324       1478       1432         80       3992     980721   Grand Totals
     30324       1478       1432         80       3992     980721   ELF Image Totals
     30324       1478       1432         80          0          0   ROM Totals

==============================================================================

    Total RO  Size (Code + RO Data)                31756 (  31.01kB)
    Total RW  Size (RW Data + ZI Data)              4072 (   3.98kB)
    Total ROM Size (Code + RO Data + RW Data)      31836 (  31.09kB)

==============================================================================

